:020000040800F2
:2000000080160020D5030008DD010008DF010008E3010008E7010008EB01000800000000AC
:20002000000000000000000000000000EF010008F101000800000000F3010008ED030008DA
:20004000EF030008EF030008EF030008EF030008EF030008EF030008EF030008EF030008D0
:20006000EF030008EF030008EF030008EF030008EF030008EF030008EF030008EF030008B0
:20008000EF030008EF030008EF030008EF030008EF030008EF030008EF030008EF03000890
:2000A000EF030008EF030008EF030008EF030008EF030008EF030008EF030008EF03000870
:2000C000EF030008EF030008EF030008EF030008EF030008EF030008EF030008EF03000850
:2000E000EF030008EF030008EF030008EF030008EF030008EF030008EF030008EF03000830
:20010000EF030008EF030008EF030008EF030008EF030008EF030008EF030008EF0300080F
:20012000EF030008EF030008EF030008EF03000800F002F800F03AF80AA090E8000C8244D7
:200140008344AAF10107DA4501D100F02FF8AFF2090EBAE80F0013F0010F18BFFB1A43F092
:2001600001031847300B0000500B0000103A24BF78C878C1FAD8520724BF30C830C144BFE6
:2001800004680C60704700000023002400250026103A28BF78C1FBD8520728BF30C148BFC9
:2001A0000B6070471FB51FBD10B510BD00F03BFD1146FFF7F7FF00F00CF800F059FD03B47F
:2001C000FFF7F2FF03BC00F05DFD000080F30888704710B500F05AFC002010BD704700BF07
:2001E000FEE700BFFEE700BFFEE700BFFEE77047704770470CB50020019000906C480068EB
:2002000040F480306A49086000BF6948006800F4003000900198401C0190009818B90198CB
:20022000B0F5A06FF1D16248006800F4003010B10120009001E0002000900098012843D13A
:200240005C48006840F010005A4908600846006820F0030008600846006840F002000860C6
:2002600053484068524948600846406848600846406840F4806048600846406820F47C1012
:2002800048600846406840F4E81048600846006840F08070086000BF4548006800F000709A
:2002A0000028F9D04248406820F00300404948600846406840F00200486000BF3C4840681C
:2002C00000F00C000828F9D10CBD10B5FFF792FF10BD10B53648006840F001003449086085
:2002E00008464068344908403149486008460068324908402E4908600846006820F480205F
:2003000008600846406820F4FE0048604FF41F008860FFF7DAFF4FF000602949086010BD66
:2003200010B5002100200022214B5B6803F00C0121B1042906D0082928D107E0214B224CA6
:20034000236027E01F4B204C236023E0184B5B6803F47010164B5B6803F48032022303EB3A
:20036000904022B9194B4343174C23600DE0104B5B6803F4003323B1144B4343124C236033
:2003800003E0104B4343104C236003E00D4B0E4C236000BF00BF064B5B68C3F303130C4CEC
:2003A000E15C094B1B68CB40074C236010BD000000100240002002400000FFF8FFFFF6FEDE
:2003C00008ED00E000127A000000002000093D00040000200948804709480047FEE7FEE7B8
:2003E000FEE7FEE7FEE7FEE7FEE7FEE7FEE7FEE704480549054A064B70470000D302000807
:20040000310100088010002080160020801200208012002001460020FE4A106800F0380089
:20042000084310607047FB49096821F00801F94A116011460968014311607047F5490968E4
:2004400021F01001F34A116011460968014311607047F148EF494860F04848607047EE48B2
:20046000EC494860ED4848607047EA48006940F08000E84908617047E648006940F0800028
:20048000E449086170470420E249C96801F0010109B101200EE0DF49C96801F0040109B1CA
:2004A000022007E0DB49C96801F0100109B1032000E00420704700B502460423FFF7E3FF48
:2004C000034603E0FFF7DFFF0346521E012B01D1002AF7D102B90523184600BD30B5044646
:2004E00004254FF43020FFF7E6FF0546042D17D1C848006940F00200C649086108464461EB
:20050000006940F0400008614FF43020FFF7D3FF0546C048006941F6FD710840BD49086126
:20052000284630BD10B504244FF43020FFF7C3FF0446042C16D1B748006940F00400B5492D
:2005400008610846006940F0400008614FF43020FFF7B1FF0446AF48006941F6FB710840D4
:20056000AC490861204610BD00B502460423FFF78AFF034603E0FFF786FF0346521E012BBB
:2005800001D1002AF7D102B90523184600BD10B504244FF43020FFF7E7FF0446042C16D1DC
:2005A0009C48006940F004009A4908610846006940F0400008614FF43020FFF7D5FF044637
:2005C0009448006941F6FB71084092490861204610BD00208F49C96901F0020109B101207B
:2005E00000E00020704730B5A5250424FFF7F1FF00B100254FF43020FFF75DFF0446042C52
:200600003AD1854883498860844888600846006940F0200008610846006940F0400008619A
:200620004FF43020FFF747FF0446042C1BD17948006941F6DF7108407649086108460069AD
:2006400040F01000086176480580E002FFF733FF0446052C10D06F48006941F6EF7108404A
:200660006C49086108E0052C06D06A48006941F6EF71084067490861204630BD78B506468E
:200680000C46042500200090E802FFF714FF0546042D24D15F48006940F001005D4908617B
:2006A0003480E802FFF707FF0546042D10D1B01C0090200C00990880E802FFF7FCFE054675
:2006C0005448006941F6FE7108405249086106E05048006941F6FE7108404E4908612846E0
:2006E00078BD70B504460D460426F002FFF7E3FE0646042E11D14748006940F001004549F9
:2007000008612580F002FFF7D6FE06464148006941F6FE7108403F490861304670BD70B52A
:2007200005460E460424E002FFF7C5FE0446042C17D13948374988603848886008460069ED
:2007400040F0100008612E80E002FFF7B4FE0446052C06D02F48006941F6EF7108402D4932
:200760000861204670BD2DE9F04304464FF6FF763746B046B1460425E443E6B2C4F30727F9
:20078000C4F307484FEA1469E802FFF794FE0546042D49D120481F4988602048886008463F
:2007A000006940F010000861FF2E06D01C4808300680E802FFF77FFE0546042D08D1FF2F22
:2007C00006D017480A300780E802FFF774FE0546042D0AD1B8F1FF0F07D011480C30A0F8BF
:2007E0000080E802FFF767FE0546042D0AD1B9F1FF0F07D00A480E30A0F80090E802FFF7B6
:200800005AFE0546052D0FD00248006941F6EF71084007E00020024023016745AB89EFCD89
:2008200000F8FF1F664908612846BDE8F08330B5054604244FF43020FFF73DFE0446042C6E
:2008400041D160485E4988605F4888600846006940F0200008610846006940F040000861C0
:200860004FF43020FFF727FE0446042C22D15448006941F6DF7108405149086108460069CF
:2008800040F0100008611DB100205049088002E0A5204E4908804FF43020FFF70CFE0446FD
:2008A000052C10D04648006941F6EF7108404449086108E0052C06D04148006941F6DF71F3
:2008C00008403F490861204630BDF0B505460E46174604243B483A4988603B488860E00288
:2008E000FFF7E9FD0446042C19D13548006940F010003349086147F0F80030432843334924
:20090000891C0880E002FFF7D6FD0446052C06D02B48006941F6EF710840294908612046B2
:20092000F0BD2748C069800870472548006A704700202349096801F0200109B1012000E0DB
:200940000020704729B11E4A126902431C4B1A6104E01B4A12698243194B1A617047014676
:200960000020012908D1164AD26902F001020AB1012008E0002006E0114AD2680A400AB160
:20098000012000E0002070470D49C860704704200B49C96801F0010109B101200EE0084994
:2009A000C96801F0040109B1022007E00449C96801F0100109B1032000E004207047000035
:2009C0000020024023016745AB89EFCD00F8FF1F012080F3138800BF00BF3848006800F456
:2009E000E06037490843001D34490860BFF3408F00BF00BFFEE72DE9F05F06460F4690462A
:200A00000024B3463D46A14617E068784FEA002A28788244AD1C2046641C2A4921F810A0C4
:200A2000B4F5806F07D100244FF48062584600F07CF80BF5006B09F10209C145E5D324B1F8
:200A4000A2B22049584600F070F8BDE8F09F10B5044620681C490840B0F1005F08D16068CA
:200A60001A4908602068FFF7B1FB18480068804710BD08B54FF6FF700090022269461448F5
:200A800000F053F81348FFF7E2FF08BD08B5022269460F4800F038F8BDF800004FF6FF71B3
:200AA000884202D10B48FFF7D2FF4FF4F0320A490848FFF7A0FFFFF7DCFF08BD0CED00E073
:200AC0000000FA05200000200000FE2F14000020001400080018000800F801080146088862
:200AE00070472DE9F04105460E461746002407E036F814102846FFF7F4FDAD1C601C84B2CF
:200B0000BC42F5DBBDE8F08130B503460C461546002207E01846FFF7E1FF24F812009B1CF4
:200B2000501C82B2AA42F5DB30BD2DE9F05F80468A461746B8F1006F02D33748804501D30F
:200B4000BDE8F09FFFF785FCA8F1006B4FEADB25CBF34909C9F58064A74200DC3C464DE087
:200B60004FF0006101EBC5204A142C49FFF7CCFF00260BE009EB0600284931F810004FF676
:200B8000FF71884200D003E0701C86B2A642F1DB00BFA6421BDA4FF0006101EBC520FFF7ED
:200BA0009DFC002608E03AF8160006EB09011B4A22F81100701C86B2A642F4DB4FF00061A0
:200BC00001EBC5204A141549FFF78BFF04E0224651464046FFF785FFA74200D10FE06D1CF3
:200BE0004FF000090AEB440AA044381B87B2B7F5806F02DD4FF4806400E03C46B0E700BFA1
:200C0000FFF733FC00BF9BE713B50446012201A92046FFF78AFF1CBD00000408200800207D
:200C2000704770477047754600F028F8AE4605006946534620F00700854618B020B5FFF70E
:200C4000D7FBBDE820404FF000064FF000074FF000084FF0000B21F00701AC46ACE8C00939
:200C6000ACE8C009ACE8C009ACE8C0098D4670470446AFF300802046FFF7A1FA0048704771
:200C80002010002001491820ABBEFEE72600020070470000041400080000002020000000F5
:200CA0006C0100082414000820000020601600008801000800000000000000000000000038
:200CC000000000000000000000000000000000000000000000000000000000000000000014
:200CE0000000000000000000000000000000000000000000000000000000000000000000F4
:200D00000000000000000000000000000000000000000000000000000000000000000000D3
:200D20000000000000000000000000000000000000000000000000000000000000000000B3
:20140000FFFF000000A24A04000000000000000001020304060708090000000000000000B6
:0414200000000000C8
:20180000F0BB0020611C0008691A00086B1A00086F1A0008731A0008771A000800000000A1
:201820000000000000000000000000007B1A00087D1A0008000000007F1A00080D53000863
:201840007B1C00087B1C00087B1C0008599700087B1C00087B1C00087B1C00087B1C000837
:201860007B1C00087B1C00087B1C00087B1C00087B1C00087B1C0008B3E300087B1C000871
:201880007B1C00087B1C00087B1C00087B1C0008FFA400087B1C0008B9A400087B1C00087E
:2018A0007B1C00087B1C00087B1C00087B1C00087B1C00087B1C00087B1C00087B1C000830
:2018C0007B1C00087B1C00087B1C00087B1C00087B1C0008A7E200087B1C00087B1C00081E
:2018E0007B1C00087B1C00087B1C00087B1C00087B1C00087B1C00087B1C00087B1C0008F0
:201900007B1C00087B1C00087B1C00087B1C0008DBE300087B1C0008855000087B1C00086A
:201920007B1C00087B1C00087B1C0008C5E4000800F002F800F07DF80AA090E8000C8244D6
:201940008344AAF10107DA4501D100F072F8AFF2090EBAE80F0013F0010F18BFFB1A43F037
:201960000103184784BE0100A4BE01000A444FF0000C10F8013B13F0070408BF10F8014B58
:201980001D1108BF10F8015B641E05D010F8016B641E01F8016BF9D113F0080F1EBF10F873
:2019A000014BAD1C0C1B09D16D1E58BF01F801CBFAD505E014F8016B01F8016B6D1EF9D5C0
:2019C0009142D6D3704700000023002400250026103A28BF78C1FBD8520728BF30C148BFCD
:2019E0000B60704767291BF00885692918F0BC82642918F0B982782918F0F282732919F033
:201A00007A80002070471FB59DE8030018F0A8FD19F09CFB0400002000211AF08DFE401C16
:201A20006060002000211AF09DFEE0601FBD10B510BD19F0BAFE1146FFF7E5FF00F00CF86C
:201A40001AF018F903B4FFF7F2FF03BC03F0D4FF80F308887047000003F0A8FE03F05CFCAA
:201A600001E003F0FDFCFCE7704700BFFEE700BFFEE700BFFEE700BFFEE77047704770474A
:201A80000CB50020019000906C48006840F480306A49086000BF6948006800F4003000909D
:201AA0000198401C0190009818B90198B0F5A06FF1D16248006800F4003010B10120009080
:201AC00001E0002000900098012843D15C48006840F010005A4908600846006820F0030080
:201AE00008600846006840F00200086053484068524948600846406848600846406840F4E0
:201B0000806048600846406820F47C1048600846406840F4E81048600846006840F080705F
:201B2000086000BF4548006800F000700028F9D04248406820F003004049486008464068CC
:201B400040F00200486000BF3C48406800F00C000828F9D10CBD10B5FFF792FF10BD10B523
:201B60003648006840F0010034490860084640683449084031494860084600683249084013
:201B80002E4908600846006820F4802008600846406820F4FE0048604FF41F008860FFF7A4
:201BA000DAFF4FF000602949086010BD10B5002100200022214B5B6803F00C0121B10429B0
:201BC00006D0082928D107E0214B224C236027E01F4B204C236023E0184B5B6803F47010C1
:201BE000164B5B6803F48032022303EB904022B9194B4343174C23600DE0104B5B6803F488
:201C0000003323B1144B4343124C236003E0104B4343104C236003E00D4B0E4C236000BF7D
:201C200000BF064B5B68C3F303130C4CE15C094B1B68CB40074C236010BD00000010024099
:201C4000002002400000FFF8FFFFF6FE08ED00E000127A000000002000093D00040000204E
:201C60000948804709480047FEE7FEE7FEE7FEE7FEE7FEE7FEE7FEE7FEE7FEE70448054928
:201C8000054A064B704700005F1B000831190008F0B50020F0BB0020F0B70020F0B70020FB
:201CA00031490143314A1160704770B5002100230F22C47804B32D4C246804F4E064C4F53C
:201CC000E064210AC1F10403CA40447804FA03F18478144021430901254C0678A155047805
:201CE00004F01F050124AC4005786D11AD0005F1E025C5F8004109E0047804F01F05012478
:201D0000AC401C4D0678761145F8264070BD1A4A0A400243154B1B1F1A60704739B1134A94
:201D2000121D12680243114B1B1D1A6006E00F4A121D126882430D4B1B1D1A60704704280D
:201D400008D14FF0E021096941F004014FF0E022116107E04FF0E021096921F004014FF021
:201D6000E0221161704700000000FA050CED00E000E400E080E100E080FFFF1F10B50120D8
:201D800001F034FD002001F031FD10BD2A49086070472949091F086070472749843108603D
:201DA000704701460020254A10884FF67F4210400843224A10807047014600201F4A108842
:201DC0004FF68072104008431C4A1080704708B500220092194A2C3A0092009A0244009246
:201DE000009A116008BD08B501460020009013482C3800900098084400900098008808BDB7
:201E00000D489C300068C0B270470C480830008840F0010009490831088070470648A030E3
:201E20000068C0B2704705480830008840F00200024908310880704704860D422C6C00405E
:201E400010B50446FE48844209D10121480601F0C0FC00214FF0007001F0BBFC08E00121EE
:201E6000880601F0B6FC00214FF0806001F0B1FC10BD30B5024600200023146824F0020480
:201E80001460146844F00104146000E05B1C546804F001041CB94FF6FF74A342F6D15468A4
:201EA00004F001040CB900206CE08C79012C04D1146844F08004146003E0146824F0800452
:201EC0001460CC79012C04D1146844F04004146003E0146824F0400414600C7A012C04D12C
:201EE000146844F02004146003E0146824F0200414604C7A012C04D1146844F0100414608F
:201F000003E0146824F0100414608C7A012C04D1146844F00804146003E0146824F008040F
:201F20001460CC7A012C04D1146844F00404146003E0146824F0040414608C78A407CD78D6
:201F400044EA05640D7944EA05444D7944EA05540D886D1E2C43D461146824F001041460D3
:201F6000002300E05B1C546804F001041CB14FF6FF74A342F6D1546804F001040CB100206F
:201F800000E0012030BD10B50021837A012202FA03F1AC4A126842F00102AA4B1A60A94A56
:201FA0001C3212688A43A74B1C331A60027BCAB9A44A0C3212688A43A24B0C331A604288EE
:201FC000C38842EA03439F4A4032847A42F834300288838842EA03439A4A4032847A02EB05
:201FE000C4025360027B012A19D1964A0C3212680A43944B0C331A604288038842EA034392
:20200000904A4032847A42F83430C288838842EA03438C4A4032847A02EBC4025360C27A29
:202020003AB9884A121D12688A43864B1B1D1A6006E0844A121D12680A43824B1B1D1A60B9
:20204000028932B97F4A143212688A437D4B14331A600289012A06D17A4A143212680A43CD
:20206000784B14331A60427B012A06D1754A1C3212680A43734B1C331A60724A126822F07A
:202080000102704B1A6010BD00218171C171017241728172C1728170C170032101710221CF
:2020A00041710121018070476649096841F00101644A11601146096843F60E729143614AA2
:2020C00011601146096841EA002111601146096821F001011160704721B1026842F48032E3
:2020E000026003E0026822F4803202607047E1B1026842F0800202604FF4C272125842F427
:2021000080734FF4C27213504FF4CA72125842F480734FF4CA7213504FF4D272125842F4D7
:2021200080734FF4D27213501BE0026822F0800202604FF4C272125822F480734FF4C27206
:2021400013504FF4CA72125822F480734FF4CA7213504FF4D272125822F480734FF4D272C7
:202160001350704710B502460020936803F08063B3F1806F00D110E0936803F00063B3F1FE
:20218000006F01D1012008E0936803F08053B3F1805F01D1022000E00420042879D002F54D
:2021A000C07303EB00131B6803F0010402F5C07303EB00131C600B7A7BB94B7A0C8843EA8A
:2021C000445302F5C07404EB00142468234302F5C07404EB0014236010E00B7A4C6843EA41
:2021E000C4034C7A234302F5C07404EB00142468234302F5C07404EB001423608B7A03F023
:202200000F038B7202F5C07303EB00135B6823F00F0402F5C07303EB00135C6002F5C0738A
:2022200003EB00135B688C7A234302F5C07404EB001463608B7B1C064B7B44EA034403E037
:2022400000640040006600400B7B44EA0323CC7A234302F5C07404EB0014A3608B7C1C0654
:202260004B7C44EA03440B7C44EA0323CC7B234302F5C07404EB0014E36002F5C07303EB11
:2022800000131B6843F0010402F5C07303EB00131C6010BD10B50246002321B1012907D0F9
:2022A00002290FD109E09068F94C00EA04030BE09068F84C00EA040306E09068F64C00EADA
:2022C000040301E0002300BF00BFF44C181BA34216D007DC83B16FF08060184470B102283A
:2022E00018D111E0B0F5007F10D0ED4C204448B1B0F5003F0ED10BE002230DE000230BE09C
:20230000002309E0002307E0012305E0012303E0012301E0002300BF00BFD8B210BD21B1C8
:20232000012907D002290FD109E0826842F0800282600AE0826842F40042826005E082682B
:2023400042F40002826000E000BF00BF704710B500F5D87303EB01131B6803F00403137245
:20236000137A53B900F5D87303EB01131B6840F2FF7404EA5353136009E000F5D87303EB3C
:2023800001131B686FF0604404EAD303536000F5D87303EB01131B6803F00203537200F5B5
:2023A000D87303EB01135B6803F00F03937200F5D87303EB01135B681B0AD37400F5D87352
:2023C00003EB01139B68D37200F5D87303EB01139B681C0A147300F5D87303EB01139B687C
:2023E0001C0C547300F5D87303EB01139B681B0E937300F5D87303EB0113DB68D37300F5BA
:20240000D87303EB0113DB681C0A147400F5D87303EB0113DB681C0C547400F5D87303EBDB
:202420000113DB681B0E937421B9C36843F02003C36003E0036943F02003036110BD21B9E7
:20244000C26842F02002C26003E0026942F02002026170470246002019B9D36803F00300B5
:2024600006E0012903D1136903F0030000E00020704710B502460B4600204FF6FF71BBB9A8
:20248000146824F0020444F00104146000E0491E546804F00304012C01D00029F7D1546850
:2024A00004F00304012C01D0002032E0012030E0012B13D1146824F00304146000E0491E5E
:2024C000546804F003040CB10029F8D1546804F003040CB100201CE001201AE0022B17D1D6
:2024E000146824F0010444F00204146000E0491E546804F00304022C01D00029F7D15468EF
:2025000004F00304022C01D0002002E0012000E0002010BD014600200A6822F0010242F0B1
:2025200002020A604A6802F00302022A00D10120704701464FF6FF7200200B6823F0020307
:202540000B6000E0521E4B6803F00203022B01D1002AF7D14B6803F00203022B00D001205B
:202560007047014600208A6902F070007047014600208A69100E7047014600208A69C2F3F3
:20258000074070471AB143690B43436102E043698B434361704710B50246002001F4700388
:2025A00043B19369C1F3130423400BB101202DE000202BE001F0807343B15368C1F313048A
:2025C00023400BB1012021E000201FE001F0006343B19368C1F3130423400BB1012015E058
:2025E000002013E001F0007343B1D368C1F3130423400BB1012009E0002007E01369C1F30A
:20260000130423400BB1012000E0002010BD0022244B994202D10023836111E0C1F3130296
:2026200001F000730BB1C2600AE001F080630BB1026105E001F000630BB1826000E0426022
:2026400070470246002002EA01030BB1012000E00020704770B504460D46002660692840BE
:20266000002872D0B5F5807F69D01DDC082D42D006DC012D2DD0022D31D0042D7FD134E0FC
:20268000102D3ED0202D42D0402D78D145E000000300000400030008000003100001000887
:2026A0000001FFF77000F030B5F5004F61D009DCB5F5007F4AD0B5F5806F4DD0B5F5006F72
:2026C0005DD150E0B5F5803F2DD0B5F5003F56D12FE0A0685549FFF7B4FF064651E0E06803
:2026E0000321FFF7AEFF06464BE0E0680821FFF7A8FF064645E0E0681021FFF7A2FF0646C1
:202700003FE020690321FFF79CFF064639E020690821FFF796FF064633E020691021FFF7AB
:2027200090FF06462DE060680821FFF78AFF064627E060681021FFF784FF064621E0A06926
:202740000121FFF77EFF06461BE01BE0A0690221FFF777FF064614E0A0690421FFF771FF36
:2027600006460EE00BE0A0697021FFF76AFF064607E060680421FFF764FF064601E000266F
:2027800000BF00E00026304670BDB1F5007F3AD00FDC202928D006DC01291CD004291DD064
:2027A000082940D11DE0402921D0B1F5807F3AD126E0B1F5004F31D006DCB1F5806F25D068
:2027C000B1F5006F2FD124E0B1F5803F12D0B1F5003F28D111E0154A826025E00822C26038
:2027E00022E01022C2601FE0082202611CE01022026119E00822426016E01022426013E0E4
:202800000422426010E0042242600DE0042242600AE0002282610422426005E000228261E2
:202820000422426000E000BF00BF70470101010001684FF6FE7211400160002101604160C5
:202840008160C1608D49884208D18C490839496841F00F01894A083A51608AE087491431B0
:20286000884208D185490839496841F0F001834A083A51607DE081492831884208D17F4928
:202880000839496841F470617C4A083A516070E07A493C31884208D178490839496841F47C
:2028A0007041764A083A516063E074495031884208D172490839496841F470216F4A083A22
:2028C000516056E06D496431884208D16B490839496841F47001694A083A516049E0674958
:2028E0007831884208D165490839496841F07061624A083A51603CE06149884206D1011FC4
:20290000096841F00F01021F116032E05C491431884208D15A49091F096841F0F001584AD4
:20292000121F116025E056492831884208D15449091F096841F47061514A121F116018E0E4
:202940004F493C31884208D14D49091F096841F470414B4A121F11600BE0494950318842BB
:2029600007D14749091F096841F47021444A121F1160704710B50022026847F6F0739A43DB
:202980000C6A8B6823430C6923434C6923438C692343CC6923434C6A23438C6A23431A43A7
:2029A0000260CB6843600B6883604B68C36010BD0021016041608160C160016141618161DB
:2029C000C161016241628162704721B1026842F00102026004E002684FF6FE731A400260A2
:2029E00070471AB103680B43036002E003688B4303607047416070470146486880B27047CC
:202A000001460020002201F080531BB11C4B083B1A6802E0194B083B1A6802EA01030BB1BA
:202A2000012000E00020704700F0805119B11449091F086002E01149083948607047014623
:202A40000020002201F080531BB10D4B083B1A6802E00A4B083B1A6802EA01030BB10120BE
:202A600000E00020704700F0805119B10449091F086002E001490839486070470800024021
:202A80000804024001460020FE4A106800F03800084310607047FB49096821F00801F94A15
:202AA000116011460968014311607047F549096821F01001F34A1160114609680143116075
:202AC0007047F148EF494860F04848607047EE48EC494860ED4848607047EA48006940F01D
:202AE0008000E84908617047E648006940F08000E449086170470420E249C96801F00101FE
:202B000009B101200EE0DF49C96801F0040109B1022007E0DB49C96801F0100109B10320A6
:202B200000E00420704700B502460423FFF7E3FF034603E0FFF7DFFF0346521E012B01D127
:202B4000002AF7D102B90523184600BD30B5044604254FF43020FFF7E6FF0546042D17D15B
:202B6000C848006940F00200C649086108464461006940F0400008614FF43020FFF7D3FFA2
:202B80000546C048006941F6FD710840BD490861284630BD10B504244FF43020FFF7C3FF8A
:202BA0000446042C16D1B748006940F00400B54908610846006940F0400008614FF430208E
:202BC000FFF7B1FF0446AF48006941F6FB710840AC490861204610BD00B502460423FFF70F
:202BE0008AFF034603E0FFF786FF0346521E012B01D1002AF7D102B90523184600BD10B539
:202C000004244FF43020FFF7E7FF0446042C16D19C48006940F004009A4908610846006938
:202C200040F0400008614FF43020FFF7D5FF04469448006941F6FB7108409249086120463A
:202C400010BD00208F49C96901F0020109B1012000E00020704730B5A5250424FFF7F1FF3A
:202C600000B100254FF43020FFF75DFF0446042C3AD1854883498860844888600846006928
:202C800040F0200008610846006940F0400008614FF43020FFF747FF0446042C1BD17948F5
:202CA000006941F6DF710840764908610846006940F01000086176480580E002FFF733FF07
:202CC0000446052C10D06F48006941F6EF7108406C49086108E0052C06D06A48006941F63B
:202CE000EF71084067490861204630BD78B506460C46042500200090E802FFF714FF0546DE
:202D0000042D24D15F48006940F001005D4908613480E802FFF707FF0546042D10D1B01C7A
:202D20000090200C00990880E802FFF7FCFE05465448006941F6FE7108405249086106E0B4
:202D40005048006941F6FE7108404E490861284678BD70B504460D460426F002FFF7E3FE2C
:202D60000646042E11D14748006940F00100454908612580F002FFF7D6FE06464148006934
:202D800041F6FE7108403F490861304670BD70B505460E460424E002FFF7C5FE0446042CB0
:202DA00017D1394837498860384888600846006940F0100008612E80E002FFF7B4FE0446F8
:202DC000052C06D02F48006941F6EF7108402D490861204670BD2DE9F04304464FF6FF766E
:202DE0003746B046B1460425E443E6B2C4F30727C4F307484FEA1469E802FFF794FE054623
:202E0000042D49D120481F498860204888600846006940F010000861FF2E06D01C48083060
:202E20000680E802FFF77FFE0546042D08D1FF2F06D017480A300780E802FFF774FE054699
:202E4000042D0AD1B8F1FF0F07D011480C30A0F80080E802FFF767FE0546042D0AD1B9F1E5
:202E6000FF0F07D00A480E30A0F80090E802FFF75AFE0546052D0FD00248006941F6EF71D7
:202E8000084007E00020024023016745AB89EFCD00F8FF1F664908612846BDE8F08330B548
:202EA000054604244FF43020FFF73DFE0446042C41D160485E4988605F48886008460069D2
:202EC00040F0200008610846006940F0400008614FF43020FFF727FE0446042C22D15448F2
:202EE000006941F6DF710840514908610846006940F0100008611DB100205049088002E046
:202F0000A5204E4908804FF43020FFF70CFE0446052C10D04648006941F6EF71084044497C
:202F2000086108E0052C06D04148006941F6DF7108403F490861204630BDF0B505460E46F0
:202F4000174604243B483A4988603B488860E002FFF7E9FD0446042C19D13548006940F05B
:202F600010003349086147F0F800304328433349891C0880E002FFF7D6FD0446052C06D0AA
:202F80002B48006941F6EF710840294908612046F0BD2748C069800870472548006A704723
:202FA00000202349096801F0200109B1012000E00020704729B11E4A126902431C4B1A618C
:202FC00004E01B4A12698243194B1A61704701460020012908D1164AD26902F001020AB11D
:202FE000012008E0002006E0114AD2680A400AB1012000E0002070470D49C86070470420F7
:203000000B49C96801F0010109B101200EE00849C96801F0040109B1022007E00449C968B6
:2030200001F0100109B1032000E00420704700000020024023016745AB89EFCD00F8FF1FBE
:2030400010B50446CC48844208D10121042000F0B3FB0021042000F0AFFB46E0C7488442F0
:2030600008D10121082000F0A7FB0021082000F0A3FB3AE0C248844208D10121102000F0BF
:203080009BFB0021102000F097FB2EE0BD48844208D10121202000F08FFB0021202000F0E8
:2030A0008BFB22E0B848844208D10121402000F083FB0021402000F07FFB16E0B348844257
:2030C00008D10121802000F077FB0021802000F073FB0AE0AE48844207D10121801500F0AF
:2030E0006BFB0021A01500F067FB10BD10B50121084600F061FB0021012000F05DFB10BD9D
:203100002DE9F041024600250026002000230024002791F803C00CF00F0591F803C00CF0A3
:20312000100CBCF1000F03D091F802C04CEA050591F800C0BCF1000F31D0146800202BE0AC
:203140004FF0010C0CFA00F3B1F800C00CEA03069E4220D183004FF00F0C0CFA03F7BC4315
:2031600005FA03FC4CEA040491F803C0BCF1280F06D14FF0010C0CFA00FCC2F814C00AE046
:2031800091F803C0BCF1480F05D14FF0010C0CFA00FCC2F810C0401C0828D1D31460B1F8E4
:2031A00000C0BCF1FF0F34DD546800202EE000F1080C4FF0010808FA0CF3B1F800C00CEAEC
:2031C00003069E4221D183004FF00F0C0CFA03F7BC4305FA03FC4CEA040491F803C0BCF103
:2031E000280F05D100F1080C08FA0CF8C2F8148091F803C0BCF1480F07D100F1080C4FF0FD
:20320000010808FA0CF8C2F81080401C0828CED35460BDE8F0814FF6FF7101800221817014
:203220000421C17070470246002093680B400BB1012000E0002070470146886880B270471F
:2032400002460020D3680B400BB1012000E0002070470146C86880B27047016170474161D1
:2032600070470AB1016100E041617047C16070474FF480320A4382618161826182698269A9
:20328000704702460020434B18684FF68073184040EA021008433F4B186070473E49C86181
:2032A0007047F0B50A46002300240021002500F00046B6F1004F02D1364EF16901E0354E94
:2032C0007168C0F3034583B200F44016B6F5401F08D121F070612F4E766826F070662D4F13
:2032E0007E6012E000F48016B6F5801F06D1032606FA05F4A14341F0706106E0460D3601DB
:2033000003FA06F6B14341F0706122B1460D360103FA06F6314300F00046B6F1004F02D1F5
:203320001C4EF16101E01B4E7160F0BD30B500228B071C0F0F2303FA04F2164B08338C10E8
:2033400053F824309343134C08348D1044F8253023468C1053F824308C07240F00FA04F4D3
:2033600023430C4C08348D1044F8253030BD0A49DC3108607047000000080140000C014023
:20338000001001400014014000180140001C01400020014000000140000020420E4908600E
:2033A00070470D49486070470B49886070474AF6AA200949086070474CF6CC40064908602E
:2033C000704701460020044AD2680A400AB1012000E00020704700000030004010B5012113
:2033E000080700F0F6F900214FF0805000F0F1F910BD2A490862704728490861704701469C
:203400000020274A106820F0E0000843106070472249A0310860704710B502460020204B4E
:20342000186820F00300104318601E4B1B6843F004031C4C2360012901D130BF00E020BF73
:20344000184B1B6823F00403164C236010BD1448006840F00400124908600846006840F019
:20346000020008600F48006840F004000D49086000BF00BF30BF704701460020084A52689A
:203480000A400AB1012000E0002070470449096841EA8001024A11607047000000000E4221
:2034A0000070004010ED00E0DF48006840F00100DD49086008464068DC490840DA49486003
:2034C00008460068DA490840D74908600846006820F4802008600846406820F4FE004860C1
:2034E0004FF41F0088607047CF49096821F48031CD4A11601146096821F480211160B0F560
:20350000803F03D0B0F5802F0ED106E0C649096841F48031C44A116007E0C349096841F482
:20352000A021C14A116000E000BF00BF704710B501460022002300204A11012A02D1BA4C69
:20354000236806E0022A02D1B74C236A01E0B64C636A01F01F02012494401C400CB1012076
:2035600000E0002010BD38B5002000900024002500BF3120FFF7DBFF05460098401C0090E9
:203580000098B0F5A06F01D0002DF2D03120FFF7CEFF08B1012400E00024204638BD014687
:2035A0000020A14A106820F0F80040EAC10010607047A04908607047024600209A4B586859
:2035C00020F47C1042EA01031843974B5860704798490866704701460020934A506820F05D
:2035E00003000843506070478F48406800F00C007047014600208C4A506820F0F0000843A4
:203600005060704701460020874A506820F4E06008435060704701460020834A506820F44D
:20362000605040EAC1005060704729B17E4A527A02437D4B5A7204E07B4A527A82437A4B42
:203640005A7270477B49D8310860704701460020754A506820F440400843506070470021B6
:20366000714A20321170704A82F82010012802D004280AD104E001216B4A2032117005E0E3
:203680000521694A2032117000E000BF00BF70476949086070476449096A0143624A116215
:2036A0007047654944390860704730B500210022002400235C4D6D6805F00C0121B104291B
:2036C00005D0082923D105E05C4D056022E05B4D05601FE0544D6D6805F47012524D6D688A
:2036E00005F48034022505EB92421CB9544D554305600BE04C4D6D6805F400351DB1504DCD
:203700005543056002E04D4D5543056002E04B4D056000BF00BF444D6D6805F0F001090978
:20372000484D6B5C0568DD4045603F4D6D6805F4E061090A434D6B5C4568DD4085603A4DC3
:203740006D6805F46051C90A3E4D6B5C4568DD40C560354D6D6805F44041890B3A4D6B5C23
:20376000C568B5FBF3F5056130BD29B12E4A526902432D4B5A6104E02B4A526982432A4B5E
:203780005A61704729B1284A92690243264B9A6104E0254A92698243234B9A61704729B1B2
:2037A000214AD2690243204BDA6104E01E4AD26982431D4BDA61704729B11B4AD268024314
:2037C000194BDA6004E0184AD2688243164BDA60704729B1144A12690243134B1A6104E0FF
:2037E000114A12698243104B1A61704712494039086070470F49C86470470B49C87170472F
:203800000948406A40F0807007494862704701460020054A92680A400AB1012000E0002006
:203820007047014988727047001002400000FFF8FFFFF6FE000042428004424200127A0083
:2038400000093D00140000202400002010B50446FE48844208D10121C014FFF7ADFF0021FD
:20386000E014FFF7A9FFC4E0B4F1804F08D101210846FFF7AEFF00210120FFF7AAFFB8E039
:20388000F348844208D101210220FFF7A2FF00210220FFF79EFFACE0EE48844208D101211A
:2038A0000420FFF796FF00210420FFF792FFA0E0E948844208D101210820FFF78AFF002153
:2038C0000820FFF786FF94E0E448844208D101211020FFF77EFF00211020FFF77AFF88E019
:2038E000DF48844208D101212020FFF772FF00212020FFF76EFF7CE0DA48844208D1012136
:203900004014FFF759FF00216014FFF755FF70E0D548844209D10121C804FFF74DFF0021C8
:203920004FF40020FFF748FF63E0D048844209D101210805FFF740FF00214FF48010FFF79E
:203940003BFF56E0CA48844209D101214805FFF733FF00214FF40010FFF72EFF49E0C548E1
:20396000844208D101214020FFF733FF00214020FFF72FFF3DE0C048844208D101218020D3
:20398000FFF727FF00218020FFF723FF31E0BB48844208D101218015FFF71BFF0021A015E2
:2039A000FFF717FF25E0B648844209D101210804FFF702FF00214FF48030FFF7FDFE18E036
:2039C000B048844209D101214804FFF7F5FE00214FF40030FFF7F0FE0BE0AB48844208D103
:2039E00001218804FFF7E8FE00214FF48020FFF7E3FE10BD00220288944B98420ED0994B6E
:203A000098420BD0B0F1804F08D0914B984205D0904B984202D0904B984204D14FF68F73C6
:203A20001A404B881A438D4B984207D08C4B984204D04FF6FF431A40CB881A4302808B88C8
:203A400083850B880385814B98420BD0854B984208D08B4B984205D08A4B984202D08A4B65
:203A6000984201D10B7A038601238382704770B5002400220023058C4FF6FE7635400584D6
:203A8000028C8388048B4FF68F752C40B51E2C400D882C43751E2A400D892A434D882A43C4
:203AA0006A4DA8420BD06F4DA84208D0744DA84205D0744DA84202D0734DA84213D14FF63C
:203AC000F7752A404D892A434FF6FB752A408D882A434FF6FF652B404FF6FF552B408D89FE
:203AE0002B43CD892B4383800483CD888586028470BD70B5002400220023058C4FF6EF762E
:203B000035400584028C8388048B48F6FF752C404FF6FF452C400D884FF6FF7606EA052503
:203B20002C434FF6DF752A400D8906EA05152A434D8806EA05152A43444DA84202D0494DD7
:203B4000A8421DD14FF67F752A404D894FF6FF7606EA05152A434FF6BF752A408D8806EAFB
:203B600005152A434FF6FF352B404FF2FF752B408D8906EA85052B43CD8906EA85052B437E
:203B800083800483CD880587028470BD70B5002400220023058C4FF6FF6635400584028CB2
:203BA0008388848B4FF68F752C404FF6FC752C400D882C434FF6FF552A400D894FF6FF76BD
:203BC00006EA05252A434D8806EA05252A431F4DA84202D0234DA8421DD14FF2FF752A4073
:203BE0004D894FF6FF7606EA05252A434FF6FF352A408D8806EA05252A434EF6FF752B400C
:203C00004DF6FF752B408D8906EA05152B43CD8906EA05152B4383808483CD888587028435
:203C200070BD70B5002200230024058C4EF6FF7635400584038C8488828B48F6FF752A40BD
:203C40004FF6FF452A400D8820E00000002C01400004004000080040000C00400010004047
:203C60000014004000340140004C0140005001400054014000180040001C004000200040B4
:203C80000040014000440140004801404FF6FF7606EA05252A434DF6FF752B400D8906EAAC
:203CA00005352B434D8806EA05352B43FA4DA84202D0FA4DA84208D14BF6FF752C408D89AB
:203CC0004FF6FF7606EA85152C4384808283CD88A0F84050038470BD828B4FF2FF331A401D
:203CE0008283828B4FF6FF7303EA01231A4382837047F0B50C461546002200210026078C83
:203D00004EF6FF7C07EA0C070784828B018C4FF6FF7707EA043640F6FF473A404FF6FF7724
:203D200007EA05273A434FF6FF7707EA03373A43D94FB8420ED0D94FB8420BD0B0F1804F19
:203D400008D0D74FB84205D0D64FB84202D0D64FB84206D14DF6FF77394046F480573943F0
:203D600005E047F6FF57394044F48057394382830184F0BD828B4FF6F3731A408283828B6C
:203D80000A4382837047F0B50C461546002200210026078C4FF6FF6C07EA0C070784828B80
:203DA000018C4FF6FF7707EA04264FF60C773A404FF6FF7707EA03172F433A43B64FB842AA
:203DC0000ED0B64FB8420BD0B0F1804F08D0B44FB84205D0B34FB84202D0B34FB84206D170
:203DE0004FF6FF57394046F48077394305E04FF2FF57394044F48077394382830184F0BD2B
:203E0000028B4FF2FF331A400283028B4FF6FF7303EA01231A4302837047F0B50C46154683
:203E2000002200210026078C4FF6EF7C07EA0C070784028B018C4FF6FF7707EA041640F631
:203E4000FF473A404FF6FF7707EA03373A434FF6FF7707EA05273A438F4FB8420ED08F4F56
:203E6000B8420BD0B0F1804F08D08D4FB84205D08C4FB84202D08C4FB84206D14FF6DF778C
:203E8000394046F01007394305E04FF65F77394044F01007394302830184F0BD028B4FF617
:203EA000F3731A400283028B0A4302837047F0B50C46154600220021068C4FF6FE773E4048
:203EC0000684028B018C4FF60C7632407E1C06EA03162E433243704EB0420ED06F4EB0423F
:203EE0000BD0B0F1804F08D06D4EB04205D06D4EB04202D06C4EB04206D14FF6FD763140F2
:203F000044F00106314305E04FF6F576314044F00106314302830184F0BD70B505460C46C4
:203F20005D4885420ED05D4885420BD0B5F1804F08D05B48854205D05A48854202D05A4887
:203F4000854200D100E000BF208850B92389A28861882846FFF7ABFFE1882846FFF79EFF42
:203F600025E0208804280AD12389A28861882846FFF753FFE1882846FFF742FF17E020886B
:203F800008280AD12389A28861882846FFF7FBFEE1882846FFF7EEFE09E02389A288618899
:203FA0002846FFF7A6FEE1882846FFF795FE70BD2DE9F04105460C4600260127608808B991
:203FC000022600E00026A088012801D1022700E001272088A0B92389A28861882846FFF73B
:203FE00066FFE1882846FFF759FF23893A4631462846FFF712FFE1882846FFF701FF13E05F
:204000002389A28861882846FFF707FFE1882846FFF7F6FE23893A4631462846FFF747FF69
:20402000E1882846FFF73AFFBDE8F0810A884B881A438B881A43CB881A430B891A434B89BD
:204040001A438B891A43A0F8442070474FF6FF71818000210180C18041800172704700213A
:20406000018041808180C180018141818181C1817047002101804180012181800021C18095
:20408000018170470021018041808180C18001814181818170470000002C01400034014063
:2040A0000004004000080040000C004021B1028842F00102028004E002884FF6FE731A4097
:2040C0000280704731B1B0F8442042F40042A0F8442005E0B0F84420C2F30E02A0F8442093
:2040E00070471AB183890B43838102E083898B43838170478182704741EA0203A0F848306F
:2041000070471AB183890B43838102E083898B438381704701894FF6F87211400181704785
:204120000A46002101894FF68F73194011430181704730B504460D4629462046FFF7F0FF1B
:20414000208940F00700208130BD2DE9F04104460D4616461F46602D06D13B4601223146CD
:204160002046FFF75AFE05E03B46012231462046FFF79DFE29462046FFF7D2FF208940F01F
:2041800007002081BDE8F08130B50C4600210189C9B24FF6FF7505EA032515432543294308
:2041A000018130BD2DE9F04105460E4617469846002443463A4631462846FFF7E5FF2C89CE
:2041C0004FF6F870044044F007044FF68F70044044F070042C81BDE8F081F0B504460D467A
:2041E00016461F463B46324629462046FFF7CCFF208940F480402081F0BD01858282704743
:204200000A46002101884FF68F731940114301807047F0B50C4615461E460021002200235C
:204220000189028B038C4FF6F877394021434FF6FC473A4040F201173A434FF6DD773B406A
:204240004FF6FF7707EA06172F433B43018102830384F0BD0A460021018B4FF68F731940CD
:204260001143018370470A460021018B48F6FF7319404FF6FF7303EA022319430183704749
:204280000A460021818B4FF68F7319401143818370470A460021818B48F6FF7319404FF627
:2042A000FF7303EA022319438183704721B1028842F08002028004E002884FF67F731A40D2
:2042C0000280704721B1828842F00402828004E082884FF6FB731A408280704721B18288FF
:2042E00042F00802828004E082884FF6F7731A408280704721B1828842F00102828004E0D9
:2043000082884FF6FE731A40828070470A460021018B4FF6F77319401143018370470A46E6
:204320000021018B4FF2FF7319404FF6FF7303EA02231943018370470A460021818B4FF6A2
:20434000F77319401143818370470A460021818B4FF2FF7319404FF6FF7303EA02231943DD
:20436000818370470A460021018B4FF6FB7319401143018370470A460021018B4FF6FF3376
:2043800019404FF6FF7303EA02231943018370470A460021818B4FF6FB7319401143818383
:2043A00070470A460021818B4FF6FF3319404FF6FF7303EA02231943818370470A460021A8
:2043C000018B4FF67F7319401143018370470A460021018BC1F30E014FF6FF7303EA0223A9
:2043E0001943018370470A460021818B4FF67F7319401143818370470A460021818BC1F3D9
:204400000E014FF6FF7303EA02231943818370470A460021018C4FF6FD73194011430184C8
:2044200070470A460021018C4FF6F77319401143018470470A460021018C4FF6DF73194041
:204440004FF6FF7303EA02131943018470470A460021018C4FF67F7319404FF6FF7303EAD9
:2044600002131943018470470A460021018C4FF6FF5319404FF6FF7303EA022319430184F7
:2044800070470A460021018C4FF2FF7319404FF6FF7303EA02231943018470470A46002189
:2044A000018C4DF6FF7319404FF6FF7303EA023319430184704730B5002301248C40A3B2A2
:2044C000048C9C430484048C02FA01F5ADB22C43048430BD30B5002304248C40A3B2048C3F
:2044E0009C430484048C02FA01F5ADB22C43048430BD70B503460020002418461830012512
:204500008D40ACB21D8CA5431D8409B1082909D100EB6100056825F070050560056815430C
:2045200005600EE00D1FC5F34E052844056825F4E045056005684FF6FF7606EA02263543BE
:20454000056070BD21B1028842F00202028004E002884FF6FD731A400280704721B10288A3
:2045600042F00402028004E002884FF6FB731A400280704721B1828842F08002828004E057
:2045800082884FF67F731A408280704702884FF6F7731A40028002880A4302807047828898
:2045A0004FF68F731A40828082880A438280704702894FF6F8731A40028102890A430281D5
:2045C000704702894FF67F731A40028102890A43028170478184704781857047818670473C
:2045E0000187704781877047A0F84010704702884FF6FF431A40028002880A430280704721
:204600000146888E70470146088F70470146888F70470146B1F8400070470146888C7047E3
:204620000146088D704702460020138A0B400BB1012000E000207047CA430282704730B5D6
:204640000246002000230024158A05EA0103958905EA010413B10CB1012000E0002030BD78
:20466000CA4302827047000010B50446FB48844209D101218803FFF79FF800214FF48040A2
:20468000FFF79AF832E0F648844209D101214804FFF79FF800214FF40030FFF79AF825E086
:2046A000F048844209D101218804FFF792F800214FF48020FFF78DF818E0EB48844209D1AA
:2046C0000121C804FFF785F800214FF40020FFF780F80BE0E548844208D101210805FFF7AB
:2046E00078F800214FF48010FFF773F810BD2DE9F04786B005460E460024A24600BFA14654
:204700000027B08900B100BF2F462C8A4CF6FF700440F08804432C82AC894EF6F31004407C
:20472000B08831890843718908430443AC81AC8A4FF6FF400440B0890443AC8201A8FEF739
:20474000B4FFC648874202D1DDF810A001E0DDF80CA0A88900F4004040B10AEBCA0000EB15
:204760000A1031684900B0FBF1F807E00AEBCA0000EB0A1031688900B0FBF1F86420B8FB11
:20478000F0F004012009642101FB1089A88900F4004040B1322000EBC900B0FBF1F000F019
:2047A0000700044308E0322000EB09106421B0FBF1F000F00F0004432C8106B0BDE8F08797
:2047C0004FF41651016000218180C18001810C21418100218181704710B502460020108A59
:2047E0004FF2FF0318400B884C8823438C882343CC8823431843108210BD00210180418000
:204800008180C180704721B1828942F40052828104E082894DF6FF731A4082817047F0B5DA
:204820000346002400260025002040F66A17B94200D100BF1846C1F3421401F01F060127B8
:2048400007FA06F5012C01D10C3004E0022C01D1103000E014301AB107682F43076002E0E4
:204860000768AF430760F0BD1AB1838A0B43838202E0838A8B4383827047028A4FF6F073EB
:204880001A400282028A0A430282704782894FF2FF731A40828182890A438281704721B127
:2048A000828942F00202828104E082894FF6FD731A4082817047028A4FF6DF731A400282FB
:2048C000028A0A430282704721B1028A42F48042028204E0028A4BF6FF731A400282704732
:2048E000C1F308028280704701468888C0F308007047818941F0010181817047028BD2B271
:204900000283028B42EA012202837047028B02F47F420283028B0A430283704721B1828A3D
:2049200042F02002828204E0828A4FF6DF731A408282704721B1828A42F01002828204E079
:20494000828A4FF6EF731A408282704721B1828A42F00802828204E0828A4FF6F7731A4078
:204960008282704721B1828942F40042828103E08289C2F30E028281704721B1828A42F4A3
:204980000062828204E0828A4FF2FF731A4082827047828A4FF6FB731A408282828A0A4383
:2049A0008282704721B1828A42F00202828204E0828A4FF6FD731A40828270470246002002
:2049C000B1F5007F00D100BF13880B400BB1012000E00020704701F40072B2F5007F00D14A
:2049E00000BFCA430280704770B50246002400230025002040F66A16B14200D100BFC1F3CC
:204A0000421501F01F03012606FA03F3012D02D19689334006E0022D02D1168A334001E0A0
:204A2000968A33400C12012606FA04F41688344013B10CB1012000E0002070BD10B50022DE
:204A4000002340F66A14A14200D100BF0A1201249440A3B2DC43048010BD000000380140B9
:204A60000044004000480040004C00400050004010B50446FA48844208D101214015FEF7B2
:204A80009BFE00216015FEF797FE17E0F548844208D101210015FEF78FFE00212015FEF786
:204AA0008BFE0BE0F048844208D10121C803FEF783FE00214FF40040FEF77EFE10BD30B581
:204AC0000246002000235068E84C20400D790C6844EA0524204350609068E54C2040D1E958
:204AE00002542C434D7944EA450420439060D06A20F470000C7C641EE4B2234340EA035020
:204B0000D06230BD00210160017141718160C16001210174704721B1826842F001028260AD
:204B200003E0826822F001028260704721B1826842F48072826003E0826822F4807282607D
:204B4000704710B50023CBB21AB144681C43446002E044689C43446010BD816841F00801BE
:204B600081607047014600208A6802F008020AB1012000E000207047816841F004018160B5
:204B80007047014600208A6802F004020AB1012000E00020704721B1826842F4A002826004
:204BA00003E0826822F4A00282607047014600208A6802F480020AB1012000E00020704773
:204BC00010B50A4600210023416821F46041531E41EA4331416010BD21B1426842F400628B
:204BE000426003E0426822F4006242607047F0B504460D4600200021092D11DDE068A5F130
:204C00000A0606EB4607072606FA07F18843A5F10A0606EB460603FA06F10843E0600CE008
:204C2000206905EB4507072606FA07F1884305EB450603FA06F108432061072A0FDA606BDF
:204C4000561E06EB86071F2606FA07F18843561E06EB860605FA06F10843606322E00D2A2C
:204C60000FDA206BD61F06EB86071F2606FA07F18843D61F06EB860605FA06F1084320630F
:204C800010E0E06AA2F10D0606EB86071F2606FA07F18843A2F10D0606EB860605FA06F195
:204CA0000843E062F0BD21B1826842F48012826003E0826822F48012826070470146C86CCB
:204CC00080B2704766484C300068704721B1426842F48062426003E0426822F48062426045
:204CE000704721B1426842F48052426003E0426822F48052426070470A460021816821F49A
:204D0000E04111438160704721B1826842F40042826003E0826822F400428260704721B1E0
:204D2000826842F40212826003E0826822F4021282607047014600208A6802F400120AB1B1
:204D4000012000E000207047F0B504461546002000220026092911DDE068A1F10A0707EBCC
:204D6000470C072707FA0CF29043A1F10A0707EB470703FA07F21043E0600CE0206901EB13
:204D8000410C072707FA0CF2904301EB410703FA07F210432061A06BC0F30156EF1C06F1B1
:204DA000010CA7EB0C0707EB870C1F2707FA0CF29043EF1C06F1010CA7EB0C0707EB870770
:204DC00001FA07F21043A063F0BD10B50A4600210023816B21F44011531E41EA035181635D
:204DE00010BD08B5002300930090009B0B440093009B1A6008BD08B5024600200090009245
:204E000001F12800009B184400900098006880B208BD0A4600214168164B19401143416031
:204E200070474162826270470A460021416821F01F0111434160704740B109490831096899
:204E400041F40001064A0832116007E004490831096821F40001024A08321160704700007F
:204E60000024014000280140003C0140FFFEF0FFFDF7F1FFFFFD3FFF0246002013680B40AF
:204E80000BB1012000E000207047CA430260704770B502460020002300240B125568CEB22A
:204EA00005EA060415681D4015B10CB1012000E0002070BD00220A12D343036070470000E0
:204EC00029B1504A128802434E4B1A8004E04D4A128882434B4B1A8070474A48001D008854
:204EE00040F010004749091D088070474548001D00884FF6EF7108404249091D088070476E
:204F0000002140481C300188001F008841EA0040704700B50246FFF7E0FF100C3949183191
:204F20000880091D0A80FFF7E1FF00BD00B50246FFF7D3FFC2F30340324908310880091D87
:204F40000A80FFF7D3FF00BD00B50246FFF7C5FF100C2C4920310880091D0A80FFF7C6FFB6
:204F600000BD00202749103109880907080B2549143109880843704700BF2248001D0088DB
:204F800000F020000028F8D070471E48001D00884FF6F77108401B49091D088000BF194828
:204FA000001D008800F008000028F8D0704701460020144A121D12880A400AB1012000E019
:204FC000002070470F49091D098881430D4A121D11807047014600200A4A121D12880A408B
:204FE000D0B2084A12880A4012B108B1012000E0002070470349091D09888143014A121D64
:20500000118070470028004030BF704772B6704762B6704710B54FF4A060FCF741FE10BD85
:205020007FB505460C4601211020FEF7B8FBADF80850ADF804400020ADF80A00ADF8060045
:2050400001A91948FEF7D6FC012211461648FFF748F836208DF8000003208DF801008DF867
:20506000020001208DF803006846FCF71EFE01210D48FFF71BF800200C4908607FBD0B49DB
:205080000860704710B501210748FFF7D8FA012805D10648006810B10448006880470121E0
:2050A0000148FFF7DDFA10BD001000402800002010B56FF00400FCF742FE4FF0E020006972
:2050C00040F002004FF0E021086142F2283048610846006940F00100086110BDF0B50446B3
:2050E0000D4600212AE001EB81008A4E56F8200010BB01EB810046F82040012001EB810615
:20510000844F07EB8606707401EB81003E4606EB8000456001EB810006EB8000826001EBA7
:20512000810006EB80000374002001EB810607EB8606F0600846F0BD481CC1B21E29D2DBDF
:20514000FF20F8E710B50146002027E000EB8002704B53F822208A421ED1002200EB80031E
:205160006C4C44F8232000EB800304EB83035A7400EB800304EB83035A6000EB800304EB4D
:2051800083039A6000EB800304EB83031A7400EB800304EB8303DA60421CD0B21E28D5DB2B
:2051A00010BD002100EB80025A4B43F8221000EB800203EB8202517400EB800203EB8202FF
:2051C000516000EB800203EB8202916000EB800203EB8202117400EB800203EB8202D160DA
:2051E0007047002048E000EB80014A4A02EB8101097CE9BB00EB800102EB8101497C01294E
:2052000038D100EB800102EB8101C96881BB00EB800102EB8101496859B100EB800102EB4E
:2052200081014968491E00EB80023A4B03EB8202516000EB8001374A02EB81014968B9B940
:20524000012100EB8002334B03EB8202D16000EB80011A4602EB8101896849B100EB80010C
:2052600002EB8101896800EB800203EB820200E000E05160411CC8B21E28B4DB704710B556
:20528000002440E004EB8400224901EB8000407C012836D104EB840051F8200088B304EB8E
:2052A000840001EB8000007C012806D104EB8401184A52F82100804723E004EB84001549A6
:2052C00001EB8000007CE0B904EB840001EB8000C068B0B104EB84010E4A52F821008047E7
:2052E000002004EB84010B4A02EB8101C86004EB8400114601EB8000806810B92046FFF7EB
:2053000050FF601CC4B21E2CBCDB10BD00B5FFF768FF00BD9C0A002010B5FFF7C9FE01F096
:2053200004FF01F0C4FF03F087FA03F0C1FC02F085FA03F055FF04F04BFC01F064FE01F05B
:205340007EFA03F075FF01F002F901F00AFA0CF007F813F067FB04F0CAF940F635410520A5
:2053600000F0FAFF00230A2211464048FFF7B6FE00230A2208213E48FFF7B0FE0123002284
:2053800011463C48FFF7AAFE00230A2205213A48FFF7A4FE0123002205213848FFF79EFE87
:2053A00000230A2205213648FFF798FE0123002205213448FFF792FE00230A220521324811
:2053C000FFF78CFE0123002205213048FFF786FE0023642208212E48FFF780FE00233222BC
:2053E00064212C48FFF77AFE00234FF47A7205212948FFF773FE0023322264212748FFF795
:205400006DFE0023322264212548FFF767FE00234FF47A7264212348FFF760FE002342F270
:20542000107219462048FFF759FE00234FF47A7219461E48FFF752FE00234FF47A726421A2
:205440001B48FFF74BFE0023642219461948FFF745FE00230A2219461748FFF73FFE10BDFB
:2054600010B500F090FFFFF70AFF10BD037D0008F39B0008919C0008A5670008B167000895
:20548000C73E010873400108E56B0008916C0008B99200083DA10008179200083579010844
:2054A000F58D010849910108FD910108039101082B990108795A0108255F010870B50346A6
:2054C0000C4603E014F8015B03F8015B1500A2F10102F7D170BD30B5034601E003F8011B12
:2054E0001400A2F10102F9D130BD00B57C494FF40872C8680021FFF7EEFF79494FF4884211
:2055000088680021FFF7E7FF01207549087400BD0022002105E07248C068405C00B1521CC1
:20552000491CB1F5087FF6D3642050434FF40873B0FBF3F0C0B270472DE9F04106460024CD
:20554000A0466748007C10B96549086880471EB94FF0FF30BDE8F08162480068B6FBF0F08E
:2055600085B260480068B6FBF0F100FB116008B1681C85B25C480068441E1BE05848C06841
:20558000005D20B908F101001FFA80F801E04FF00008A8450DD1002704E05149C968E21986
:2055A0008D547F1CAF42F8D34E49096804FB01F0D0E7641E002CE1DA4FF0FF30CAE770B557
:2055C00005464748007C20B9454908688047012070BD46480068854212D242480068B5FB46
:2055E000F0F13F48C068425C002405E000203C4BDB680E199855641C9442F7DB0020E7E760
:205600000220E5E72DE9F04105463548007C20B9334908688047BDE8F081314880682E1AC6
:205620003248006886421ED22E4B1B68B6FBF3F02B4BDB68195C2A46002402E00023135511
:20564000641C284B1B684B43A342F7D8002407E00023234FFF6800EB040C07F80C30641CD5
:205660008C42F5DBD7E700BFD5E770B5044604B970BD1B488068251AFFF7C8FC2046FFF75A
:20568000C1FFFFF7C5FC00BFF2E770B50546FFF7BDFC2846FFF750FF0446FFF7B9FC601CB8
:2056A00008B9002070BD0E4880682044FAE770B506460C462046FFF73FFF0546681C08B96C
:2056C000002070BD06498968481922463146FFF7F5FE3046FFF7C9FF014880682844F0E76C
:2056E00038000020300000202C00002034000020012080F3138800BF00BF6448006800F4AD
:20570000E06063490843001D60490860BFF3408F00BF00BFFEE72DE9F05F06460F46904664
:205720000024B3463D46A14617E068784FEA002A28788244AD1C2046641C564921F810A02B
:20574000B4F5806F07D100244FF48062584600F0D8F80BF5006B09F10209C145E5D324B12F
:20576000A2B24C49584600F0CCF8BDE8F09F10B50446206848490840B0F1005F08D16068A9
:20578000464908602068FCF763F944480068804710BD08B54FF6FF70009002226946404857
:2057A00000F0AFF83F48FFF7E2FF08BD3D483749091F08607047F0B59BB005460E461746F7
:2057C000684600F027F932462946684600F0F7FC17A9684600F058FD002409E0395D17A87E
:2057E000005D814202D000201BB0F0BD601CC4B2102CF3DBFF20F7E738B50446221D2A483E
:205800002168FFF7D8FF40B10020009002226946234800F076F8FFF76BFF002038BD38B593
:205820000446221D20482168FFF7C5FF40B100200090022269461A4800F063F8FF2038BDFF
:205840000020FCE700201949088019490860704710B50446208815490988884214D162887B
:2058600013490968104BC818211DFFF754FF0F480088401C0D49088060880D490968084485
:205880000B490860FF2010BD0020FCE70CED00E00000FA05145300200000FE2F4C00002065
:2058A000001400080018000800F8010850000020540000200146088870472DE9F0410546A7
:2058C0000E461746002407E036F814102846FDF740FAAD1C601C84B2BC42F5DBBDE8F081BF
:2058E00030B503460C461546002207E01846FFF7E1FF24F812009B1C501C82B2AA42F5DB4F
:2059000030BD2DE9F05F80468A461746B8F1006F02D33748804501D3BDE8F09FFDF7D1F84C
:20592000A8F1006B4FEADB25CBF34909C9F58064A74200DC3C464DE04FF0006101EBC52093
:205940004A142C49FFF7CCFF00260BE009EB0600284931F810004FF6FF71884200D003E0CC
:20596000701C86B2A642F1DB00BFA6421BDA4FF0006101EBC520FDF7E9F8002608E03AF88D
:20598000160006EB09011B4A22F81100701C86B2A642F4DB4FF0006101EBC5204A141549BE
:2059A000FFF78BFF04E0224651464046FFF785FFA74200D10FE06D1C4FF000090AEB440AC7
:2059C000A044381B87B2B7F5806F02DD4FF4806400E03C46B0E700BFFDF77FF800BF9BE752
:2059E00013B50446012201A92046FFF78AFF1CBD00000408145B0020014600BF704700BFF3
:205A0000704770B504460D46E1B2032008F013FC204670BD002101604160FE498160FE4A2A
:205A2000C260CA430261FC4AD2434261704770B503460024002010E00E5C451C4D5D46EAD8
:205A40000526851C4D5D46EA0546C51C4D5D46EA056543F82450641C001D9042ECD370BD26
:205A60002DE9F043C0B080468946D8F80040D8F80450D8F80860D8F80C7040224946684681
:205A8000FFF7D5FF05EA060027EA0501084300990844E24908440444E00140EA54642C440E
:205AA00004EA050026EA0401084301990844DC4908440744380340EA1757274407EA0400BE
:205AC00025EA0701084302990844D64908440644700440EAD6363E4406EA070024EA060190
:205AE000084303990844D04908440544A80540EA9525354405EA060027EA050108430499C7
:205B00000844CA4908440444E00140EA54642C4404EA050026EA0401084305990844C44915
:205B200008440744380340EA1757274407EA040025EA0701084306990844BE4908440644B1
:205B4000700440EAD6363E4406EA070024EA0601084307990844B84908440544A80540EA69
:205B60009525354405EA060027EA0501084308990844B24908440444E00140EA54642C44EC
:205B800004EA050026EA0401084309990844AC4908440744380340EA1757274407EA040005
:205BA00025EA070108430A990844A0F524404F380644700440EAD6363E4406EA070024EA99
:205BC000060108430B9908449E4908440544A80540EA9525354405EA060027EA05010843A6
:205BE0000C990844984908440444E00140EA54642C4404EA050026EA040108430D990844C7
:205C0000924908440744380340EA1757274407EA040025EA070108430E9908448C49084469
:205C20000644700440EAD6363E4406EA070024EA060108430F990844864908440544A80592
:205C400040EA9525354405EA070026EA0701084301990844804908440444600140EAD46488
:205C60002C4404EA060025EA06010843069908447A4908440744780240EAD757274407EAEC
:205C8000050024EA050108430B990844744908440644B00340EA96463E4406EA040027EA1D
:205CA00004010843009908446E4908440544280540EA1535354405EA070026EA07010843F0
:205CC00005990844684908440444600140EAD4642C4404EA060025EA060108430A9908441E
:205CE000624908440744780240EAD757274407EA050024EA050108430F9908445C490844EB
:205D00000644B00340EA96463E4406EA040027EA040108430499084456490844054428055F
:205D200040EA1535354405EA070026EA0701084309990844504908440444600140EAD4643F
:205D40002C4404EA060025EA060108430E9908444A4908440744780240EAD757274407EA33
:205D6000050024EA0501084303990844444908440644B00340EA96463E4406EA040027EA74
:205D800004010843089908443E4908440544280540EA1535354405EA070026EA0701084337
:205DA0000D990844384908440444600140EAD4642C4404EA060025EA06010843029908446D
:205DC000324908440744780240EAD757274407EA050024EA05010843079908442C49084472
:205DE0000644B00340EA96463E4406EA040027EA040108430C9908442649084405442805A7
:205E000040EA1535354485EA0600784005990844214943E00123456789ABCDEF78A46AD7D4
:205E200056B7C7E8DB702024EECEBDC1AF0F7CF52AC68747134630A8019546FDD89880698D
:205E4000AFF7448BBED75C892211906B937198FD8E4379A62108B44962251EF640B340C0E8
:205E6000515A5E26AAC7B6E95D102FD65314440281E6A1D8C8FBD3E7E6CDE121D60737C3DB
:205E8000870DD5F4ED145A4505E9E3A9F8A3EFFCD9026F678A4C2A8D4239FAFF08440444BF
:205EA000200140EA14742C4484EA0500704008990844FC4908440744F80240EA5757274476
:205EC00087EA040068400B990844F74908440644300440EA16463E4486EA070060400E99E5
:205EE0000844F24908440544E80540EA5525354485EA0600784001990844ED49084404449F
:205F0000200140EA14742C4484EA0500704004990844E84908440744F80240EA575727442D
:205F200087EA0400684007990844E34908440644300440EA16463E4486EA070060400A99A0
:205F40000844DE4908440544E80540EA5525354485EA060078400D990844D949084404445A
:205F6000200140EA14742C4484EA0500704000990844D44908440744F80240EA57572744E5
:205F800087EA0400684003990844CF4908440644300440EA16463E4486EA0700604006995C
:205FA0000844CA4908440544E80540EA5525354485EA0600784009990844C5490844044426
:205FC000200140EA14742C4484EA050070400C990844C04908440744F80240EA575727448D
:205FE00087EA040068400F990844BB4908440644300440EA16463E4486EA07006040029908
:206000000844B64908440544E80540EA5525354465EA0700704000990844B149084404441D
:20602000A00140EA94642C4464EA0600684007990844AC4908440744B80240EA975727447C
:2060400067EA050060400E990844A74908440644F00340EA56463E4466EA040078400599EC
:206060000844A24908440544680540EAD525354465EA070070400C9908449D4908440444D9
:20608000A00140EA94642C4464EA0600684003990844984908440744B80240EA9757274434
:2060A00067EA050060400A990844934908440644F00340EA56463E4466EA040078400199A8
:2060C00008448E4908440544680540EAD525354465EA0700704008990844894908440444A5
:2060E000A00140EA94642C4464EA060068400F990844844908440744B80240EA97572744DC
:2061000067EA05006040069908447F4908440644F00340EA56463E4466EA040078400D9953
:2061200008447A4908440544680540EAD525354465EA070070400499084475490844044470
:20614000A00140EA94642C4464EA060068400B990844704908440744B80240EA9757274493
:2061600067EA05006040029908446B4908440644F00340EA56463E4466EA0400784009990F
:206180000844664908440544680540EAD5253544D8F800002044C8F80000D8F80400284431
:2061A000C8F80400D8F808003044C8F80800D8F80C003844C8F80C0040B0BDE8F0832DE9C5
:2061C000F04704460F4615460026B046B1462088C0F3C508C8F14009206800EBC500206099
:2061E0002068B0EBC50F02D26068401C6060606800EB557060604D451CD304F1180101EB3D
:2062000008004A46394614F07EF804F1180104F10800FFF725FC4E4605E0B91904F1080083
:20622000FFF71EFC403606F14000A842F5D94FF0000800E00026AA1BB91904F1180303EB07
:20624000080014F060F8BDE8F08770B5034614460022002015E011F822501D5431F8225038
:20626000C5F30726451C5E5551F82250C5F30746851C5E5551F822502D0EC61C9D55521CD9
:20628000001DA042E7D370BD2DE9FC4104460E46002500272088C0F3C505382D40D2C5F189
:2062A00038003FE081F6718722619D6D0C38E5FD44EABEA4A9CFDE4B604BBBF670BCBFBE2F
:2062C000C67E9B28FA27A1EA8530EFD4051D880439D0D4D9E599DBE6F87CA21F6556ACC490
:2062E000442229F497FF2A43A72394AB39A093FCC3595B6592CC0C8F7DF4EFFFD15D84853C
:206300004F7EA86FE0E62CFE144301A3A111084E827E53F735F23ABDBBD2D72A91D386EBDB
:20632000C5F178000746082221466846FFF78DFF3A4608492046FFF742FF08226946204674
:20634000FFF73DFF102204F108013046FFF77DFFBDE8FC815C00002070B505460C4645F25C
:206360005550FDF71BF82846FDF71BF82046FDF71BF8FDF71CF8FDF71FF870BD4AF6AA2045
:2063800003490860704700B5FFF7F8FF00BD00000030004008B50420A84B0022802100909C
:2063A000104604F0CBFD0420A44B1B1F012281210090002004F0C2FD8021002004F047FE5C
:2063C0008121002004F043FE20209C4B1B1D012282210090002004F0B1FD64228221002006
:2063E00004F01CFE0420964B002296210090104604F0A4FD0420934B0122972100900020A9
:2064000004F09CFD9621002004F021FE9721002004F01DFE04208C4B012298210090002097
:2064200004F08CFD9821002004F011FE08BD70471CB50446042104EB840000EBC400834A58
:2064400002EBC000001D00238022CDE90001214640F2371004F00FFB042104EB840000EB95
:20646000C4007A4A02EBC00001238122CDE90001214640F2371004F0FEFA8022214640F262
:20648000371004F094FB8122214640F2371004F08EFB202104EB840000EBC4006B4A02EB2D
:2064A000C000083001238222CDE90001214640F2371004F0E0FA64238222214640F23710AC
:2064C00004F053FB0421624800EBC40000239622CDE90001214640F2371004F0CCFA0421AB
:2064E0005B4800EBC400001D01239722CDE90001214640F2371004F0BEFA9622214640F2BC
:20650000371004F054FB9722214640F2371004F04EFB042104EB44004E4A02EB800001239A
:206520009822CDE90001214640F2371004F0A3FA9822214640F2371004F039FB1CBD10B519
:206540000120FFF775FF0220FFF772FF10BD00B587B002F0A8F800F007008DF8040002F06A
:20656000A2F800F007008DF805003B48006804903948001D00680590374808300068069031
:2065800002F091F830B941F23710ADF806003348029011E002F087F800F0080030B142F2F6
:2065A0003710ADF806002D48029005E040F23710ADF806002948029001A804F0D3FFBDF8B2
:2065C000060000F4805080B106F063FBFFF7B7FF00230A2205212248FEF780FD0123002229
:2065E00011462048FEF77AFD25E0BDF8060000F4005080B107F0ADFAFFF719FF00230A2240
:2066000005211748FEF76AFD0123002211461648FEF764FD0FE007F09CFAFFF7BBFE0023FA
:206620000A2205210E48FEF759FD0123002211460D48FEF753FD07B000BD000038670020FD
:20664000A06F0020946F0020606C0020EC65002062650020706F0020E8F7FF1F01000203A2
:2066600099B90008BDCD0008BDDC000800215348007D01430A015148407D42EA101129B188
:20668000A1F2151028B1222805D100E000BF012070470220FCE70120FAE710B504460A2290
:2066A00021461F2007F0A5FF10BD2DE9F04180460C461546DDE906672A462146112007F0E0
:2066C00098FFBDE8F081F8B504460D461646A4F11000102840D2DFE800F0080914191B1D4B
:2066E0001F2324262C3F3F2E2F3937E0AFF245000022134629460090204600F021F90020C7
:20670000F8BD204600F048FE0020F9E70020F7E70020F5E70020F3E7204600F057F81DE092
:206720001CE00020ECE72946204600F079FC0020E6E70020E4E711E0284600F07AFD002270
:206740001146204607F055FF0020D9E7AFF2B501284611F0E0F801E00220D1E700BF002019
:20676000CEE710B5154800F07AFD41F237101349088001208870124848600C2211490F4883
:206780000830FEF79BFE0D4807F0C2FEAFF2C90007F0C6FE08F0E3FB0B4808F099F9FFF759
:2067A00065FF10BD10B508F06CFC07F0BAFF10BD10B508F085FC08F069F810BD146300200B
:2067C00004080300E8F7FF1FFBF0000870B5054600240AE02146002000F044FF81B2FE4809
:2067E00000EB44000180601CC4B2082CF2DB00240BE02146012000F035FF81B2F64820307A
:2068000000EB44000180601CC4B2082CF1DB00240BE02146022000F025FF81B2EE48403051
:2068200000EB44000180601CC4B2082CF1DB6122E949491E284607F0DCFE70BD7047002057
:20684000E64981F8F70181F8F601642081F8EB010020A1F8F001A1F8EE01A1F8EC01012066
:2068600081F8EA01002081F8E80181F8F80181F8E90181F8F90181F8E10181F8E001142001
:2068800081F8E201704770477047D44890F8E201704710B50446D14890F8E20108B90020C5
:2068A00010BDCE4991F8E01101EB4101CB4A02EBC10018222146FEF701FEC84890F8E0017B
:2068C000401CC64981F8E001084690F8E201401E81F8E201084690F8E001142802D100209A
:2068E00081F8E001FF20DBE710B50446BB4890F8E201142801D1002010BDB84890F8E1017B
:2069000000EB4000B54A02EBC00118222046FEF7D5FDB24890F8E101401CB04981F8E10124
:20692000084690F8E201401C81F8E201084690F8E101142802D1002081F8E1010120DBE7C1
:206940002DE9F04387B080460C4616461F46DDF838902546A9788DF81210E9788DF8131005
:2069600028788DF8100069788DF81110CDF81490CDE902678DF800806846FFF78AFF07B0EA
:20698000BDE8F083954981F8F8017047934890F8F801704770B50446207C00F03DFF002866
:2069A00042D102208D4981F8F601207C00F008FF18BB207C01F0E5FF18B9207C01F0F0FF38
:2069C00020B1E07C401EE074012070BD834890F8EB0100283FD1814890F8F70158B10120A0
:2069E0007E4981F8F601084690F8F701401E81F8F7010220E9E70320E7E7207C00F0E0FE76
:206A00000546012D0ED1207C01F0BBFF18B9207C01F0C6FF20B1E07C401EE0740520D4E7F5
:206A20000420D2E70620D0E7207C00F0E6FE012811D1207C01F0A5FF18B9207C01F0B0FFE3
:206A400048B1E07C401EE074627CA17C207C00F0F4FD0120B9E70020B7E770B504460026A3
:206A60005F48007830B1012811D0022827D003280CD158E00020594981F8F60101205849B7
:206A800008704FF47A705549A1F8F00198E0627CA17C207C00F0A2FD80B1207C01F071FF5D
:206AA000207C01F07DFF64204C4981F8EB0102204B49087014204949A1F8F00180E0207CD5
:206AC00000F0AAFE022820D100F0BFFF20B1434890F8F601012804D10020404981F8F70162
:206AE00003E001203D4981F8F70101203B4981F8F60103203A4908704FF47A703749A1F822
:206B0000F001642081F8EB010CE0207C00F084FE012807D14FF47A703049A1F8F0016420EC
:206B200081F8EB014CE02046FFF734FF0546072D44D2DFE805F004050E1720313A003DE00E
:206B4000FF2600202649087014202449A1F8F00134E00120224908704FF47A701F49A1F898
:206B6000F0012BE0032600201D49087014201B49A1F8F00122E0627CA17C207C00F085FDC5
:206B800008B1042600E0012600201549087014201249A1F8F00111E00526002010490870EF
:206BA00014200E49A1F8F00108E0022600200C49087014200949A1F8F00100BF00BF00BF76
:206BC00000BF0648B0F8F00118B90E26002004490870304670BD000069010020386300203D
:206BE000C901002000B5F44890F8F60102280BD1F14890F8EB01002806DDEF4890F8EB01D2
:206C0000401EED4981F8EB01EB48B0F8F401642807DAE948B0F8F401401CE749A1F8F40156
:206C200005E0FFF70BFE0020E349A1F8F401E248B0F8F001002806DDDF48B0F8F001401EAA
:206C4000DD49A1F8F001DC48B0F8EE01002806DDD948B0F8EE01401ED749A1F8EE01D648E2
:206C6000B0F8EC01002806DDD348B0F8EC01401ED149A1F8EC01D048B0F8F201002806DD08
:206C8000CD48B0F8F201401ECB49A1F8F20100BD7CB5C94890F8F8010A2834D2DFE800F0D7
:206CA00005333433333333F5F4F3C448FFF71CFE28B30120C04981F8E901C048807CC0492F
:206CC0008870BE48C07CC870BC48007C0870BB48407C487003204871BA48C1F80600BA4834
:206CE000C1F80A00B948C1F80E000846007818B9FFF7BCFC012803D10220FFF743FE02E08C
:206D00000720FFF73FFE54E1AC48FFF7A6FE04462046042C7BD007DC68B101280CD0022800
:206D200025D0032807D13EE005286ED00E286DD0FF28F7D1C6E0E6E0A548A149C1F806006E
:206D4000A148C1F80A00002008719C48406950B19A48C1688068CDE9000198490878122221
:206D60004B69974998470920FFF70CFECBE09848401E9349C1F806009348C1F80A00002035
:206D800008718E48406950B18C48C1688068CDE900018A49087812224B6989499847092049
:206DA000FFF7F0FDAFE087488549C1F806008948C1F80A00002008717F4890F8F901401C33
:206DC0007D4981F8F901084690F8F901022804DC7A49087C01F0CFFD20B17E48401C7849E8
:206DE000C1F80A007548406950B17448C1688068CDE900017149087812224B69704998472B
:206E00000920FFF7BFFD7EE001E01CE03EE07048801E6B49C1F806006E48C1F80A000020DC
:206E200008716648406950B16448C1688068CDE900016249087812224B6961499847092048
:206E4000FFF7A0FD5FE000205B4981F8F9016048801E5B49C1F806005B48C1F80A000120F9
:206E600008715648406950B15448C1688068CDE900015249087812224B6951499847092048
:206E8000FFF780FD3FE040E07FE04DE05048401C4B49C1F806004F48C1F80A00002008717A
:206EA0004648406950B14548C1688068CDE900014249087812224B69414998470920FFF7CA
:206EC00061FD20E002F0D7F900203B4981F8F9013C483B49C1F806003B48C1F80A0001204D
:206EE00008713648406950B13448C1688068CDE900013249087812224B6931499847092048
:206F0000FFF740FD00BF00BF53E02D48007818B9FFF7ACFB012803D10020FFF733FD02E00D
:206F20000820FFF72FFD44E003F09EF9054635B1EE2D0FD0FE2D03D0FF2D24D106E022E027
:206F4000224865301E49C1F80E0000BF0220FFF719FD18E000201A4908711C486630C1F870
:206F60000E001648406950B11448C1688068CDE900011249087812224B69114998470020BB
:206F8000FFF700FD00BF00BF13E003F0A9F9054635B1EE2D07D0FE2D03D0FF2D07D101E0F2
:206FA00005E000BF00BF0020FFF7ECFC00BF00BF00BF00BF7CBD00003863002038650020C3
:206FC00050650020888A0100708E0100B0AD0100B78B01000190010010B5044614B901F0CA
:206FE000D1FE10BD334800EBC400C079F9E710B504461CB901F0C9FEC0B210BD2D4800EB77
:20700000C4008079F9E710B52B4800F0E9F82A4B9A7859781B7803F0010001F0BAFE10BD75
:2070200038B505460C46207820B9E278A178607801F0AFFE617820781F4A12F8200061F314
:207040000000217802F82100A078217802EB81014870E07840B2217802EB81018870104604
:2070600000F0A7F861782078124A12F8300061F30000217802F83100A078217802EBC10102
:207080004870E07840B2217802EBC101887020788DF8000000208DF8020001208DF8010043
:2070A00000208DF8030004226946284607F0A1FA38BD0000626500207A6500200146AA483F
:2070C00030F811007047A94890F8FE007047A74890F8FC007047F0B50346002400201A46D6
:2070E00000BF03E015682844121D641CB4EB910FF8D301F0030555B101F00306C6F1040692
:20710000F7004FF0FF36FE40156835402844F0BD02460B46002104E0505C08B100207047E1
:20712000491C9942F8D3FF20F9E710B59048914908604FF4D0718F480068FFF7CCFF044698
:207140008C480068D0F8A001A04223D1E4B94FF4D07188480068FFF7DBFFFF280ED14FF442
:20716000D0718248FFF7B7FF04468048C0F8A041D22201467E48FEF7C4FB19E0D2227B4947
:207180007B48FEF7ADFB13E0D22278497848FEF7A7FB0DE04FF4D0717448FFF79CFF044688
:2071A0007248C0F8A041D22201467148FEF7A9FB10BD70B504460C2221466C482430FEF721
:2071C0007DF94FF4D0716948FFF785FF05466748C0F8A051D22201466548FEF792FB70BD50
:2071E00010B504460C22614924312046FEF766F910BD70B50446CC2221465C483030FEF70F
:207200005DF94FF4D0715948FFF765FF05465748C0F8A051D22201465548FEF772FB70BD9F
:2072200010B50446CC22514930312046FEF746F910BD70B50446242221464C48FEF73EF913
:207240004FF4D0714948FFF746FF05464748C0F8A051D22201464648FEF753FB70BD10B55D
:207260000446242241492046FEF728F910BD70B50446802221463C482030FEF71FF94FF40F
:20728000D0713A48FFF727FF05463848C0F8A051D22201463648FEF734FB70BD10B5044682
:2072A0008022314920312046FEF708F910BD10B50024314831490860582130480068FFF7A5
:2072C0000AFF04462D480068806DA04220D1CCB92A48006800884AF2A00188420CD05821DB
:2072E0002748FFF7F8FE0446254884652E2201462148FEF706FB17E02E2221491E48FEF791
:20730000EFFA11E02E221E491B48FEF7E9FA0BE058211B48FFF7DFFE0446194884652E2223
:2073200001461548FEF7EDFA10BD10B5044654221349091D2046FEF7C1F810BD70B50446A9
:20734000542221460E48001DFEF7B8F858210C48FFF7C1FE05460A4885652E22014606484A
:20736000FEF7CFFA70BD0000D0020020D001002000D80308CC01002000EC030874030020E1
:2073800078030020012090490870704700208E49087070477047704710B5044605208B498D
:2073A000087001218948C170017165208749A1F8010002218548C171012101726521A0F8FB
