:020000040800F2
:1000000080160020D5030008DD010008DF0100088C
:10001000E3010008E7010008EB0100080000000010
:10002000000000000000000000000000EF010008D8
:10003000F101000800000000F3010008ED030008D2
:10004000EF030008EF030008EF030008EF030008C8
:10005000EF030008EF030008EF030008EF030008B8
:10006000EF030008EF030008EF030008EF030008A8
:10007000EF030008EF030008EF030008EF03000898
:10008000EF030008EF030008EF030008EF03000888
:10009000EF030008EF030008EF030008EF03000878
:1000A000EF030008EF030008EF030008EF03000868
:1000B000EF030008EF030008EF030008EF03000858
:1000C000EF030008EF030008EF030008EF03000848
:1000D000EF030008EF030008EF030008EF03000838
:1000E000EF030008EF030008EF030008EF03000828
:1000F000EF030008EF030008EF030008EF03000818
:10010000EF030008EF030008EF030008EF03000807
:10011000EF030008EF030008EF030008EF030008F7
:10012000EF030008EF030008EF030008EF030008E7
:1001300000F002F800F03AF80AA090E8000C8244BF
:100140008344AAF10107DA4501D100F02FF8AFF29C
:10015000090EBAE80F0013F0010F18BFFB1A43F0A5
:1001600001031847300B0000500B0000103A24BF69
:1001700078C878C1FAD8520724BF30C830C144BF0C
:1001800004680C607047000000230024002500264E
:10019000103A28BF78C1FBD8520728BF30C148BFEA
:1001A0000B6070471FB51FBD10B510BD00F03BFDC3
:1001B0001146FFF7F7FF00F00CF800F059FD03B40B
:1001C000FFF7F2FF03BC00F05DFD000080F308883C
:1001D000704710B500F05AFC002010BD704700BFFA
:1001E000FEE700BFFEE700BFFEE700BFFEE7704787
:1001F000704770470CB50020019000906C48006873
:1002000040F480306A49086000BF6948006800F423
:10021000003000900198401C0190009818B9019896
:10022000B0F5A06FF1D16248006800F4003010B161
:100230000120009001E0002000900098012843D1A7
:100240005C48006840F010005A49086008460068A1
:1002500020F0030008600846006840F002000860D3
:10026000534840685249486008464068486008461C
:10027000406840F4806048600846406820F47C1084
:1002800048600846406840F4E81048600846006846
:1002900040F08070086000BF4548006800F00070C2
:1002A0000028F9D04248406820F0030040494860E7
:1002B0000846406840F00200486000BF3C48406883
:1002C00000F00C000828F9D10CBD10B5FFF792FF23
:1002D00010BD10B53648006840F001003449086090
:1002E000084640683449084031494860084600687B
:1002F000324908402E4908600846006820F48020F2
:1003000008600846406820F4FE0048604FF41F0073
:100310008860FFF7DAFF4FF000602949086010BDE0
:1003200010B5002100200022214B5B6803F00C0176
:1003300021B1042906D0082928D107E0214B224CFD
:10034000236027E01F4B204C236023E0184B5B68A1
:1003500003F47010164B5B6803F48032022303EB46
:10036000904022B9194B4343174C23600DE0104BCA
:100370005B6803F4003323B1144B4343124C2360F6
:1003800003E0104B4343104C236003E00D4B0E4C35
:10039000236000BF00BF064B5B68C3F303130C4C24
:1003A000E15C094B1B68CB40074C236010BD00008B
:1003B00000100240002002400000FFF8FFFFF6FEA0
:1003C00008ED00E000127A000000002000093D0066
:1003D000040000200948804709480047FEE7FEE77F
:1003E000FEE7FEE7FEE7FEE7FEE7FEE7FEE7FEE7E5
:1003F00004480549054A064B70470000D30200082F
:10040000310100088010002080160020801200209A
:100410008012002001460020FE4A106800F03800DB
:10042000084310607047FB49096821F00801F94A48
:10043000116011460968014311607047F549096868
:1004400021F01001F34A116011460968014311605F
:100450007047F148EF494860F04848607047EE48FF
:10046000EC494860ED4848607047EA48006940F050
:100470008000E84908617047E648006940F0800064
:10048000E449086170470420E249C96801F00101AC
:1004900009B101200EE0DF49C96801F0040109B18A
:1004A000022007E0DB49C96801F0100109B103200F
:1004B00000E00420704700B502460423FFF7E3FF85
:1004C000034603E0FFF7DFFF0346521E012B01D175
:1004D000002AF7D102B90523184600BD30B50446FD
:1004E00004254FF43020FFF7E6FF0546042D17D111
:1004F000C848006940F00200C649086108464461E6
:10050000006940F0400008614FF43020FFF7D3FF4E
:100510000546C048006941F6FD710840BD490861C3
:10052000284630BD10B504244FF43020FFF7C3FF38
:100530000446042C16D1B748006940F00400B549C0
:1005400008610846006940F0400008614FF430201F
:10055000FFF7B1FF0446AF48006941F6FB71084060
:10056000AC490861204610BD00B502460423FFF7E0
:100570008AFF034603E0FFF786FF0346521E012B66
:1005800001D1002AF7D102B90523184600BD10B5E4
:1005900004244FF43020FFF7E7FF0446042C16D163
:1005A0009C48006940F004009A49086108460069C7
:1005B00040F0400008614FF43020FFF7D5FF0446BB
:1005C0009448006941F6FB71084092490861204651
:1005D00010BD00208F49C96901F0020109B1012055
:1005E00000E00020704730B5A5250424FFF7F1FF97
:1005F00000B100254FF43020FFF75DFF0446042CC6
:100600003AD18548834988608448886008460069F3
:1006100040F0200008610846006940F04000086191
:100620004FF43020FFF747FF0446042C1BD17948D4
:10063000006941F6DF7108407649086108460069A3
:1006400040F01000086176480580E002FFF733FFB4
:100650000446052C10D06F48006941F6EF71084040
:100660006C49086108E0052C06D06A48006941F62B
:10067000EF71084067490861204630BD78B50646ED
:100680000C46042500200090E802FFF714FF054601
:10069000042D24D15F48006940F001005D490861E4
:1006A0003480E802FFF707FF0546042D10D1B01C87
:1006B0000090200C00990880E802FFF7FCFE054638
:1006C0005448006941F6FE7108405249086106E04D
:1006D0005048006941F6FE7108404E4908612846BD
:1006E00078BD70B504460D460426F002FFF7E3FE20
:1006F0000646042E11D14748006940F001004549E3
:1007000008612580F002FFF7D6FE064641480069E1
:1007100041F6FE7108403F490861304670BD70B532
:1007200005460E460424E002FFF7C5FE0446042CED
:1007300017D13948374988603848886008460069C9
:1007400040F0100008612E80E002FFF7B4FE04467E
:10075000052C06D02F48006941F6EF7108402D495D
:100760000861204670BD2DE9F04304464FF6FF7640
:100770003746B046B1460425E443E6B2C4F3072742
:10078000C4F307484FEA1469E802FFF794FE0546F0
:10079000042D49D120481F498860204888600846B8
:1007A000006940F010000861FF2E06D01C48083098
:1007B0000680E802FFF77FFE0546042D08D1FF2FD3
:1007C00006D017480A300780E802FFF774FE054696
:1007D000042D0AD1B8F1FF0F07D011480C30A0F852
:1007E0000080E802FFF767FE0546042D0AD1B9F143
:1007F000FF0F07D00A480E30A0F80090E802FFF77C
:100800005AFE0546052D0FD00248006941F6EF71EA
:10081000084007E00020024023016745AB89EFCD87
:1008200000F8FF1F664908612846BDE8F08330B52F
:10083000054604244FF43020FFF73DFE0446042C07
:1008400041D160485E4988605F4888600846006919
:1008500040F0200008610846006940F0400008614F
:100860004FF43020FFF727FE0446042C22D15448D1
:10087000006941F6DF710840514908610846006986
:1008800040F0100008611DB100205049088002E0CE
:10089000A5204E4908804FF43020FFF70CFE044697
:1008A000052C10D04648006941F6EF7108404449D4
:1008B000086108E0052C06D04148006941F6DF7167
:1008C00008403F490861204630BDF0B505460E4658
:1008D000174604243B483A4988603B488860E00258
:1008E000FFF7E9FD0446042C19D13548006940F0B2
:1008F00010003349086147F0F8003043284333497A
:10090000891C0880E002FFF7D6FD0446052C06D0BE
:100910002B48006941F6EF710840294908612046DB
:10092000F0BD2748C069800870472548006A7047B5
:1009300000202349096801F0200109B1012000E0ED
:100940000020704729B11E4A126902431C4B1A61EC
:1009500004E01B4A12698243194B1A617047014631
:100960000020012908D1164AD26902F001020AB119
:10097000012008E0002006E0114AD2680A400AB1CE
:10098000012000E0002070470D49C8607047042036
:100990000B49C96801F0010109B101200EE00849C5
:1009A000C96801F0040109B1022007E00449C968DF
:1009B00001F0100109B1032000E00420704700009D
:1009C0000020024023016745AB89EFCD00F8FF1FEF
:1009D000012080F3138800BF00BF3848006800F48E
:1009E000E06037490843001D34490860BFF3408F79
:1009F00000BF00BFFEE72DE9F05F06460F469046B8
:100A00000024B3463D46A14617E068784FEA002A25
:100A100028788244AD1C2046641C2A4921F810A085
:100A2000B4F5806F07D100244FF48062584600F07F
:100A30007CF80BF5006B09F10209C145E5D324B13F
:100A4000A2B22049584600F070F8BDE8F09F10B5FA
:100A5000044620681C490840B0F1005F08D1606876
:100A60001A4908602068FFF7B1FB18480068804702
:100A700010BD08B54FF6FF70009002226946144879
:100A800000F053F81348FFF7E2FF08BD08B5022253
:100A900069460F4800F038F8BDF800004FF6FF71C6
:100AA000884202D10B48FFF7D2FF4FF4C8320A49FF
:100AB0000848FFF7A0FFFFF7DCFF08BD0CED00E0E2
:100AC0000000FA05200000200000FE2F1400002086
:100AD000001400080018000800A801080146088852
:100AE00070472DE9F04105460E461746002407E001
:100AF00036F814102846FFF7F4FDAD1C601C84B2D4
:100B0000BC42F5DBBDE8F08130B503460C46154626
:100B1000002207E01846FFF7E1FF24F812009B1CB3
:100B2000501C82B2AA42F5DB30BD2DE9F05F804651
:100B30008A461746B8F1006F02D33748804501D383
:100B4000BDE8F09FFFF785FCA8F1006B4FEADB25BD
:100B5000CBF34909C9F58064A74200DC3C464DE06F
:100B60004FF0006101EBC5204A142C49FFF7CCFF80
:100B700000260BE009EB0600284931F810004FF67B
:100B8000FF71884200D003E0701C86B2A642F1DB00
:100B900000BFA6421BDA4FF0006101EBC520FFF752
:100BA0009DFC002608E03AF8160006EB09011B4AF6
:100BB00022F81100701C86B2A642F4DB4FF00061EF
:100BC00001EBC5204A141549FFF78BFF04E02246CC
:100BD00051464046FFF785FFA74200D10FE06D1C4C
:100BE0004FF000090AEB440AA044381B87B2B7F55E
:100BF000806F02DD4FF4806400E03C46B0E700BF48
:100C0000FFF733FC00BF9BE713B50446012201A99F
:100C10002046FFF78AFF1CBD0000040820080020C2
:100C2000704770477047754600F028F8AE460500DB
:100C30006946534620F00700854618B020B5FFF7F7
:100C4000D7FBBDE820404FF000064FF000074FF003
:100C500000084FF0000B21F00701AC46ACE8C009DA
:100C6000ACE8C009ACE8C009ACE8C0098D467047E3
:100C70000446AFF300802046FFF7A1FA0048704712
:100C80002010002001491820ABBEFEE7260002001C
:100C9000704700000414000800000020200000003D
:100CA0006C010008241400082000002060160000D9
:100CB00088010008000000000000000000000000A3
:100CC0000000000000000000000000000000000024
:100CD0000000000000000000000000000000000014
:100CE0000000000000000000000000000000000004
:100CF00000000000000000000000000000000000F4
:10140000FFFF000000A24A040000000000000000EE
:1014100001020304060708090000000000000000A4
:0414200000000000C8
:0400000508000131BD
:00000001FF
