:020000040800F2
:2000000080160020D5030008DD010008DF010008E3010008E7010008EB01000800000000AC
:20002000000000000000000000000000EF010008F101000800000000F3010008ED030008DA
:20004000EF030008EF030008EF030008EF030008EF030008EF030008EF030008EF030008D0
:20006000EF030008EF030008EF030008EF030008EF030008EF030008EF030008EF030008B0
:20008000EF030008EF030008EF030008EF030008EF030008EF030008EF030008EF03000890
:2000A000EF030008EF030008EF030008EF030008EF030008EF030008EF030008EF03000870
:2000C000EF030008EF030008EF030008EF030008EF030008EF030008EF030008EF03000850
:2000E000EF030008EF030008EF030008EF030008EF030008EF030008EF030008EF03000830
:20010000EF030008EF030008EF030008EF030008EF030008EF030008EF030008EF0300080F
:20012000EF030008EF030008EF030008EF03000800F002F800F03AF80AA090E8000C8244D7
:200140008344AAF10107DA4501D100F02FF8AFF2090EBAE80F0013F0010F18BFFB1A43F092
:2001600001031847300B0000500B0000103A24BF78C878C1FAD8520724BF30C830C144BFE6
:2001800004680C60704700000023002400250026103A28BF78C1FBD8520728BF30C148BFC9
:2001A0000B6070471FB51FBD10B510BD00F03BFD1146FFF7F7FF00F00CF800F059FD03B47F
:2001C000FFF7F2FF03BC00F05DFD000080F30888704710B500F05AFC002010BD704700BF07
:2001E000FEE700BFFEE700BFFEE700BFFEE77047704770470CB50020019000906C480068EB
:2002000040F480306A49086000BF6948006800F4003000900198401C0190009818B90198CB
:20022000B0F5A06FF1D16248006800F4003010B10120009001E0002000900098012843D13A
:200240005C48006840F010005A4908600846006820F0030008600846006840F002000860C6
:2002600053484068524948600846406848600846406840F4806048600846406820F47C1012
:2002800048600846406840F4E81048600846006840F08070086000BF4548006800F000709A
:2002A0000028F9D04248406820F00300404948600846406840F00200486000BF3C4840681C
:2002C00000F00C000828F9D10CBD10B5FFF792FF10BD10B53648006840F001003449086085
:2002E00008464068344908403149486008460068324908402E4908600846006820F480205F
:2003000008600846406820F4FE0048604FF41F008860FFF7DAFF4FF000602949086010BD66
:2003200010B5002100200022214B5B6803F00C0121B1042906D0082928D107E0214B224CA6
:20034000236027E01F4B204C236023E0184B5B6803F47010164B5B6803F48032022303EB3A
:20036000904022B9194B4343174C23600DE0104B5B6803F4003323B1144B4343124C236033
:2003800003E0104B4343104C236003E00D4B0E4C236000BF00BF064B5B68C3F303130C4CEC
:2003A000E15C094B1B68CB40074C236010BD000000100240002002400000FFF8FFFFF6FEDE
:2003C00008ED00E000127A000000002000093D00040000200948804709480047FEE7FEE7B8
:2003E000FEE7FEE7FEE7FEE7FEE7FEE7FEE7FEE704480549054A064B70470000D302000807
:20040000310100088010002080160020801200208012002001460020FE4A106800F0380089
:20042000084310607047FB49096821F00801F94A116011460968014311607047F5490968E4
:2004400021F01001F34A116011460968014311607047F148EF494860F04848607047EE48B2
:20046000EC494860ED4848607047EA48006940F08000E84908617047E648006940F0800028
:20048000E449086170470420E249C96801F0010109B101200EE0DF49C96801F0040109B1CA
:2004A000022007E0DB49C96801F0100109B1032000E00420704700B502460423FFF7E3FF48
:2004C000034603E0FFF7DFFF0346521E012B01D1002AF7D102B90523184600BD30B5044646
:2004E00004254FF43020FFF7E6FF0546042D17D1C848006940F00200C649086108464461EB
:20050000006940F0400008614FF43020FFF7D3FF0546C048006941F6FD710840BD49086126
:20052000284630BD10B504244FF43020FFF7C3FF0446042C16D1B748006940F00400B5492D
:2005400008610846006940F0400008614FF43020FFF7B1FF0446AF48006941F6FB710840D4
:20056000AC490861204610BD00B502460423FFF78AFF034603E0FFF786FF0346521E012BBB
:2005800001D1002AF7D102B90523184600BD10B504244FF43020FFF7E7FF0446042C16D1DC
:2005A0009C48006940F004009A4908610846006940F0400008614FF43020FFF7D5FF044637
:2005C0009448006941F6FB71084092490861204610BD00208F49C96901F0020109B101207B
:2005E00000E00020704730B5A5250424FFF7F1FF00B100254FF43020FFF75DFF0446042C52
:200600003AD1854883498860844888600846006940F0200008610846006940F0400008619A
:200620004FF43020FFF747FF0446042C1BD17948006941F6DF7108407649086108460069AD
:2006400040F01000086176480580E002FFF733FF0446052C10D06F48006941F6EF7108404A
:200660006C49086108E0052C06D06A48006941F6EF71084067490861204630BD78B506468E
:200680000C46042500200090E802FFF714FF0546042D24D15F48006940F001005D4908617B
:2006A0003480E802FFF707FF0546042D10D1B01C0090200C00990880E802FFF7FCFE054675
:2006C0005448006941F6FE7108405249086106E05048006941F6FE7108404E4908612846E0
:2006E00078BD70B504460D460426F002FFF7E3FE0646042E11D14748006940F001004549F9
:2007000008612580F002FFF7D6FE06464148006941F6FE7108403F490861304670BD70B52A
:2007200005460E460424E002FFF7C5FE0446042C17D13948374988603848886008460069ED
:2007400040F0100008612E80E002FFF7B4FE0446052C06D02F48006941F6EF7108402D4932
:200760000861204670BD2DE9F04304464FF6FF763746B046B1460425E443E6B2C4F30727F9
:20078000C4F307484FEA1469E802FFF794FE0546042D49D120481F4988602048886008463F
:2007A000006940F010000861FF2E06D01C4808300680E802FFF77FFE0546042D08D1FF2F22
:2007C00006D017480A300780E802FFF774FE0546042D0AD1B8F1FF0F07D011480C30A0F8BF
:2007E0000080E802FFF767FE0546042D0AD1B9F1FF0F07D00A480E30A0F80090E802FFF7B6
:200800005AFE0546052D0FD00248006941F6EF71084007E00020024023016745AB89EFCD89
:2008200000F8FF1F664908612846BDE8F08330B5054604244FF43020FFF73DFE0446042C6E
:2008400041D160485E4988605F4888600846006940F0200008610846006940F040000861C0
:200860004FF43020FFF727FE0446042C22D15448006941F6DF7108405149086108460069CF
:2008800040F0100008611DB100205049088002E0A5204E4908804FF43020FFF70CFE0446FD
:2008A000052C10D04648006941F6EF7108404449086108E0052C06D04148006941F6DF71F3
:2008C00008403F490861204630BDF0B505460E46174604243B483A4988603B488860E00288
:2008E000FFF7E9FD0446042C19D13548006940F010003349086147F0F80030432843334924
:20090000891C0880E002FFF7D6FD0446052C06D02B48006941F6EF710840294908612046B2
:20092000F0BD2748C069800870472548006A704700202349096801F0200109B1012000E0DB
:200940000020704729B11E4A126902431C4B1A6104E01B4A12698243194B1A617047014676
:200960000020012908D1164AD26902F001020AB1012008E0002006E0114AD2680A400AB160
:20098000012000E0002070470D49C860704704200B49C96801F0010109B101200EE0084994
:2009A000C96801F0040109B1022007E00449C96801F0100109B1032000E004207047000035
:2009C0000020024023016745AB89EFCD00F8FF1F012080F3138800BF00BF3848006800F456
:2009E000E06037490843001D34490860BFF3408F00BF00BFFEE72DE9F05F06460F4690462A
:200A00000024B3463D46A14617E068784FEA002A28788244AD1C2046641C2A4921F810A0C4
:200A2000B4F5806F07D100244FF48062584600F07CF80BF5006B09F10209C145E5D324B1F8
:200A4000A2B22049584600F070F8BDE8F09F10B5044620681C490840B0F1005F08D16068CA
:200A60001A4908602068FFF7B1FB18480068804710BD08B54FF6FF700090022269461448F5
:200A800000F053F81348FFF7E2FF08BD08B5022269460F4800F038F8BDF800004FF6FF71B3
:200AA000884202D10B48FFF7D2FF4FF4C8320A490848FFF7A0FFFFF7DCFF08BD0CED00E09B
:200AC0000000FA05200000200000FE2F14000020001400080018000800A8010801460888B2
:200AE00070472DE9F04105460E461746002407E036F814102846FFF7F4FDAD1C601C84B2CF
:200B0000BC42F5DBBDE8F08130B503460C461546002207E01846FFF7E1FF24F812009B1CF4
:200B2000501C82B2AA42F5DB30BD2DE9F05F80468A461746B8F1006F02D33748804501D30F
:200B4000BDE8F09FFFF785FCA8F1006B4FEADB25CBF34909C9F58064A74200DC3C464DE087
:200B60004FF0006101EBC5204A142C49FFF7CCFF00260BE009EB0600284931F810004FF676
:200B8000FF71884200D003E0701C86B2A642F1DB00BFA6421BDA4FF0006101EBC520FFF7ED
:200BA0009DFC002608E03AF8160006EB09011B4A22F81100701C86B2A642F4DB4FF00061A0
:200BC00001EBC5204A141549FFF78BFF04E0224651464046FFF785FFA74200D10FE06D1CF3
:200BE0004FF000090AEB440AA044381B87B2B7F5806F02DD4FF4806400E03C46B0E700BFA1
:200C0000FFF733FC00BF9BE713B50446012201A92046FFF78AFF1CBD00000408200800207D
:200C2000704770477047754600F028F8AE4605006946534620F00700854618B020B5FFF70E
:200C4000D7FBBDE820404FF000064FF000074FF000084FF0000B21F00701AC46ACE8C00939
:200C6000ACE8C009ACE8C009ACE8C0098D4670470446AFF300802046FFF7A1FA0048704771
:200C80002010002001491820ABBEFEE72600020070470000041400080000002020000000F5
:200CA0006C0100082414000820000020601600008801000800000000000000000000000038
:200CC000000000000000000000000000000000000000000000000000000000000000000014
:200CE0000000000000000000000000000000000000000000000000000000000000000000F4
:200D00000000000000000000000000000000000000000000000000000000000000000000D3
:200D20000000000000000000000000000000000000000000000000000000000000000000B3
:20140000FFFF000000A24A04000000000000000001020304060708090000000000000000B6
:2014200000000000FFFFFFFFFFFFFFFFFFFFFFFFFFFFFFFFFFFFFFFFFFFFFFFFFFFFFFFFC8
:20144000FFFFFFFFFFFFFFFFFFFFFFFFFFFFFFFFFFFFFFFFFFFFFFFFFFFFFFFFFFFFFFFFAC
:20146000FFFFFFFFFFFFFFFFFFFFFFFFFFFFFFFFFFFFFFFFFFFFFFFFFFFFFFFFFFFFFFFF8C
:20148000FFFFFFFFFFFFFFFFFFFFFFFFFFFFFFFFFFFFFFFFFFFFFFFFFFFFFFFFFFFFFFFF6C
:2014A000FFFFFFFFFFFFFFFFFFFFFFFFFFFFFFFFFFFFFFFFFFFFFFFFFFFFFFFFFFFFFFFF4C
:2014C000FFFFFFFFFFFFFFFFFFFFFFFFFFFFFFFFFFFFFFFFFFFFFFFFFFFFFFFFFFFFFFFF2C
:2014E000FFFFFFFFFFFFFFFFFFFFFFFFFFFFFFFFFFFFFFFFFFFFFFFFFFFFFFFFFFFFFFFF0C
:20150000FFFFFFFFFFFFFFFFFFFFFFFFFFFFFFFFFFFFFFFFFFFFFFFFFFFFFFFFFFFFFFFFEB
:20152000FFFFFFFFFFFFFFFFFFFFFFFFFFFFFFFFFFFFFFFFFFFFFFFFFFFFFFFFFFFFFFFFCB
:20154000FFFFFFFFFFFFFFFFFFFFFFFFFFFFFFFFFFFFFFFFFFFFFFFFFFFFFFFFFFFFFFFFAB
:20156000FFFFFFFFFFFFFFFFFFFFFFFFFFFFFFFFFFFFFFFFFFFFFFFFFFFFFFFFFFFFFFFF8B
:20158000FFFFFFFFFFFFFFFFFFFFFFFFFFFFFFFFFFFFFFFFFFFFFFFFFFFFFFFFFFFFFFFF6B
:2015A000FFFFFFFFFFFFFFFFFFFFFFFFFFFFFFFFFFFFFFFFFFFFFFFFFFFFFFFFFFFFFFFF4B
:2015C000FFFFFFFFFFFFFFFFFFFFFFFFFFFFFFFFFFFFFFFFFFFFFFFFFFFFFFFFFFFFFFFF2B
:2015E000FFFFFFFFFFFFFFFFFFFFFFFFFFFFFFFFFFFFFFFFFFFFFFFFFFFFFFFFFFFFFFFF0B
:20160000FFFFFFFFFFFFFFFFFFFFFFFFFFFFFFFFFFFFFFFFFFFFFFFFFFFFFFFFFFFFFFFFEA
:20162000FFFFFFFFFFFFFFFFFFFFFFFFFFFFFFFFFFFFFFFFFFFFFFFFFFFFFFFFFFFFFFFFCA
:20164000FFFFFFFFFFFFFFFFFFFFFFFFFFFFFFFFFFFFFFFFFFFFFFFFFFFFFFFFFFFFFFFFAA
:20166000FFFFFFFFFFFFFFFFFFFFFFFFFFFFFFFFFFFFFFFFFFFFFFFFFFFFFFFFFFFFFFFF8A
:20168000FFFFFFFFFFFFFFFFFFFFFFFFFFFFFFFFFFFFFFFFFFFFFFFFFFFFFFFFFFFFFFFF6A
:2016A000FFFFFFFFFFFFFFFFFFFFFFFFFFFFFFFFFFFFFFFFFFFFFFFFFFFFFFFFFFFFFFFF4A
:2016C000FFFFFFFFFFFFFFFFFFFFFFFFFFFFFFFFFFFFFFFFFFFFFFFFFFFFFFFFFFFFFFFF2A
:2016E000FFFFFFFFFFFFFFFFFFFFFFFFFFFFFFFFFFFFFFFFFFFFFFFFFFFFFFFFFFFFFFFF0A
:20170000FFFFFFFFFFFFFFFFFFFFFFFFFFFFFFFFFFFFFFFFFFFFFFFFFFFFFFFFFFFFFFFFE9
:20172000FFFFFFFFFFFFFFFFFFFFFFFFFFFFFFFFFFFFFFFFFFFFFFFFFFFFFFFFFFFFFFFFC9
:20174000FFFFFFFFFFFFFFFFFFFFFFFFFFFFFFFFFFFFFFFFFFFFFFFFFFFFFFFFFFFFFFFFA9
:20176000FFFFFFFFFFFFFFFFFFFFFFFFFFFFFFFFFFFFFFFFFFFFFFFFFFFFFFFFFFFFFFFF89
:20178000FFFFFFFFFFFFFFFFFFFFFFFFFFFFFFFFFFFFFFFFFFFFFFFFFFFFFFFFFFFFFFFF69
:2017A000FFFFFFFFFFFFFFFFFFFFFFFFFFFFFFFFFFFFFFFFFFFFFFFFFFFFFFFFFFFFFFFF49
:2017C000FFFFFFFFFFFFFFFFFFFFFFFFFFFFFFFFFFFFFFFFFFFFFFFFFFFFFFFFFFFFFFFF29
:2017E000FFFFFFFFFFFFFFFFFFFFFFFFFFFFFFFFFFFFFFFFFFFFFFFFFFFFFFFFFFFFFFFF09
:20180000908E00202D1C0008351A0008371A00083B1A00083F1A0008431A00080000000066
:20182000000000000000000000000000471A0008491A0008000000004B1A0008D145000849
:20184000471C0008471C0008471C0008471C0008471C0008471C0008471C0008471C000830
:20186000471C0008471C0008471C0008471C0008F3950008471C0008471C0008471C0008EB
:20188000471C00086B940008471C0008471C0008471C0008471C0008471C0008471C000854
:2018A000471C0008471C0008471C0008471C0008471C0008471C0008471C0008471C0008D0
:2018C000471C0008471C0008471C0008471C0008471C0008471C00085F930008939400085D
:2018E000471C0008471C0008471C0008471C0008471C0008471C0008471C0008471C000890
:20190000471C0008471C0008471C0008471C0008471C0008471C000849430008471C000846
:20192000471C0008471C0008471C0008471C000800F002F800F05AF80AA090E8000C8244DB
:201940008344AAF10107DA4501D100F04FF8AFF2090EBAE80F0013F0010F18BFFB1A43F05A
:2019600001031847C0940000E09400000A444FF0000C10F8013B13F0070408BF10F8014B36
:201980001D1108BF10F8015B641E05D010F8016B641E01F8016BF9D113F0080F1EBF10F873
:2019A000014BAD1C0C1B09D16D1E58BF01F801CBFAD505E014F8016B01F8016B6D1EF9D5C0
:2019C0009142D6D3704700000023002400250026103A28BF78C1FBD8520728BF30C148BFCD
:2019E0000B6070471FB51FBD10B510BD08F0D4FC1146FFF7F7FF00F015F808F0F2FC03B4DE
:201A0000FFF7F2FF03BC03F0F9F8000080F308887047024802490160FEE700000CED00E0CE
:201A20000100FA0502F0C2FF02F0D8FD01E002F02CFEFCE7704700BFFEE700BFFEE700BF8E
:201A4000FEE700BFFEE77047704770470CB50020019000906C48006840F480306A490860BB
:201A600000BF6948006800F4003000900198401C0190009818B90198B0F5A06FF1D1624832
:201A8000006800F4003010B10120009001E0002000900098012843D15C48006840F0100096
:201AA0005A4908600846006820F0030008600846006840F002000860534840685249486014
:201AC0000846406848600846406840F4806048600846406820F47C1048600846406840F44E
:201AE000E81048600846006840F08070086000BF4548006800F000700028F9D042484068D1
:201B000020F00300404948600846406840F00200486000BF3C48406800F00C000828F9D1D0
:201B20000CBD10B5FFF792FF10BD10B53648006840F0010034490860084640683449084047
:201B40003149486008460068324908402E4908600846006820F4802008600846406820F42F
:201B6000FE0048604FF41F008860FFF7DAFF4FF000602949086010BD10B500210020002238
:201B8000214B5B6803F00C0121B1042906D0082928D107E0214B224C236027E01F4B204CF6
:201BA000236023E0184B5B6803F47010164B5B6803F48032022303EB904022B9194B43438D
:201BC000174C23600DE0104B5B6803F4003323B1144B4343124C236003E0104B4343104C30
:201BE000236003E00D4B0E4C236000BF00BF064B5B68C3F303130C4CE15C094B1B68CB4075
:201C0000074C236010BD000000100240002002400000FFF8FFFFF6FE08ED00E000127A0023
:201C20000000002000093D00040000200948804709480047FEE7FEE7FEE7FEE7FEE7FEE70C
:201C4000FEE7FEE7FEE7FEE704480549054A064B704700002B1B0008311900089088002027
:201C6000908E0020908A0020908A002031490143314A1160704770B5002100230F22C4787B
:201C800004B32D4C246804F4E064C4F5E064210AC1F10403CA40447804FA03F18478144063
:201CA00021430901254C0678A155047804F01F050124AC4005786D11AD0005F1E025C5F8CC
:201CC000004109E0047804F01F050124AC401C4D0678761145F8264070BD1A4A0A40024304
:201CE000154B1B1F1A60704739B1134A121D12680243114B1B1D1A6006E00F4A121D1268EE
:201D000082430D4B1B1D1A607047042808D14FF0E021096941F004014FF0E022116107E0B6
:201D20004FF0E021096921F004014FF0E0221161704700000000FA050CED00E000E400E0D5
:201D400080E100E080FFFF1F01684FF6FE72114001600021016041608160C1608D49884210
:201D600008D18C490839496841F00F01894A083A51608AE087491431884208D1854908398B
:201D8000496841F0F001834A083A51607DE081492831884208D17F490839496841F47061CD
:201DA0007C4A083A516070E07A493C31884208D178490839496841F47041764A083A5160FB
:201DC00063E074495031884208D172490839496841F470216F4A083A516056E06D4964313F
:201DE000884208D16B490839496841F47001694A083A516049E067497831884208D165497B
:201E00000839496841F07061624A083A51603CE06149884206D1011F096841F00F01021FD5
:201E2000116032E05C491431884208D15A49091F096841F0F001584A121F116025E056494C
:201E40002831884208D15449091F096841F47061514A121F116018E04F493C31884208D16D
:201E60004D49091F096841F470414B4A121F11600BE049495031884207D14749091F09684D
:201E800041F47021444A121F1160704710B50022026847F6F0739A430C6A8B6823430C6983
:201EA00023434C6923438C692343CC6923434C6A23438C6A23431A430260CB6843600B682B
:201EC00083604B68C36010BD0021016041608160C160016141618161C16101624162816266
:201EE000704721B1026842F00102026004E002684FF6FE731A40026070471AB103680B435D
:201F0000036002E003688B4303607047416070470146486880B2704701460020002201F077
:201F200080531BB11C4B083B1A6802E0194B083B1A6802EA01030BB1012000E00020704747
:201F400000F0805119B11449091F086002E0114908394860704701460020002201F08053E0
:201F60001BB10D4B083B1A6802E00A4B083B1A6802EA01030BB1012000E00020704700F008
:201F8000805119B10449091F086002E00149083948607047080002400804024001460020FE
:201FA000FE4A106800F03800084310607047FB49096821F00801F94A116011460968014338
:201FC00011607047F549096821F01001F34A116011460968014311607047F148EF4948600D
:201FE000F04848607047EE48EC494860ED4848607047EA48006940F08000E8490861704707
:020000040800F2
:20200000E648006940F08000E449086170470420E249C96801F0010109B101200EE0DF49C8
:20202000C96801F0040109B1022007E0DB49C96801F0100109B1032000E00420704700B512
:2020400002460423FFF7E3FF034603E0FFF7DFFF0346521E012B01D1002AF7D102B90523AD
:20206000184600BD30B5044604254FF43020FFF7E6FF0546042D17D1C848006940F0020070
:20208000C649086108464461006940F0400008614FF43020FFF7D3FF0546C048006941F645
:2020A000FD710840BD490861284630BD10B504244FF43020FFF7C3FF0446042C16D1B74808
:2020C000006940F00400B54908610846006940F0400008614FF43020FFF7B1FF0446AF48F2
:2020E000006941F6FB710840AC490861204610BD00B502460423FFF78AFF034603E0FFF736
:2021000086FF0346521E012B01D1002AF7D102B90523184600BD10B504244FF43020FFF71D
:20212000E7FF0446042C16D19C48006940F004009A4908610846006940F0400008614FF4B8
:202140003020FFF7D5FF04469448006941F6FB71084092490861204610BD00208F49C9694A
:2021600001F0020109B1012000E00020704730B5A5250424FFF7F1FF00B100254FF43020B3
:20218000FFF75DFF0446042C3AD1854883498860844888600846006940F020000861084675
:2021A000006940F0400008614FF43020FFF747FF0446042C1BD17948006941F6DF710840AF
:2021C000764908610846006940F01000086176480580E002FFF733FF0446052C10D06F4818
:2021E000006941F6EF7108406C49086108E0052C06D06A48006941F6EF7108406749086177
:20220000204630BD78B506460C46042500200090E802FFF714FF0546042D24D15F48006953
:2022200040F001005D4908613480E802FFF707FF0546042D10D1B01C0090200C00990880BE
:20224000E802FFF7FCFE05465448006941F6FE7108405249086106E05048006941F6FE71D5
:2022600008404E490861284678BD70B504460D460426F002FFF7E3FE0646042E11D14748CF
:20228000006940F00100454908612580F002FFF7D6FE06464148006941F6FE7108403F4998
:2022A0000861304670BD70B505460E460424E002FFF7C5FE0446042C17D139483749886040
:2022C000384888600846006940F0100008612E80E002FFF7B4FE0446052C06D02F480069CD
:2022E00041F6EF7108402D490861204670BD2DE9F04304464FF6FF763746B046B1460425AD
:20230000E443E6B2C4F30727C4F307484FEA1469E802FFF794FE0546042D49D120481F4985
:202320008860204888600846006940F010000861FF2E06D01C4808300680E802FFF77FFE83
:202340000546042D08D1FF2F06D017480A300780E802FFF774FE0546042D0AD1B8F1FF0FA4
:2023600007D011480C30A0F80080E802FFF767FE0546042D0AD1B9F1FF0F07D00A480E301E
:20238000A0F80090E802FFF75AFE0546052D0FD00248006941F6EF71084007E000200240A6
:2023A00023016745AB89EFCD00F8FF1F664908612846BDE8F08330B5054604244FF43020BE
:2023C000FFF73DFE0446042C41D160485E4988605F4888600846006940F0200008610846BC
:2023E000006940F0400008614FF43020FFF727FE0446042C22D15448006941F6DF710840AC
:20240000514908610846006940F0100008611DB100205049088002E0A5204E4908804FF441
:202420003020FFF70CFE0446052C10D04648006941F6EF7108404449086108E0052C06D036
:202440004148006941F6DF7108403F490861204630BDF0B505460E46174604243B483A49A8
:2024600088603B488860E002FFF7E9FD0446042C19D13548006940F010003349086147F0A5
:20248000F800304328433349891C0880E002FFF7D6FD0446052C06D02B48006941F6EF714E
:2024A0000840294908612046F0BD2748C069800870472548006A704700202349096801F093
:2024C000200109B1012000E00020704729B11E4A126902431C4B1A6104E01B4A12698243DC
:2024E000194B1A61704701460020012908D1164AD26902F001020AB1012008E0002006E082
:20250000114AD2680A400AB1012000E0002070470D49C860704704200B49C96801F0010178
:2025200009B101200EE00849C96801F0040109B1022007E00449C96801F0100109B103203A
:2025400000E00420704700000020024023016745AB89EFCD00F8FF1F10B50446CC4884429F
:2025600008D10121042000F02DFB0021042000F029FB46E0C748844208D10121082000F0BD
:2025800021FB0021082000F01DFB3AE0C248844208D10121102000F015FB0021102000F078
:2025A00011FB2EE0BD48844208D10121202000F009FB0021202000F005FB22E0B8488442EE
:2025C00008D10121402000F0FDFA0021402000F0F9FA16E0B348844208D10121802000F013
:2025E000F1FA0021802000F0EDFA0AE0AE48844207D10121801500F0E5FA0021A01500F08E
:20260000E1FA10BD10B50121084600F0DBFA0021012000F0D7FA10BD2DE9F0410246002594
:202620000026002000230024002791F803C00CF00F0591F803C00CF0100CBCF1000F03D097
:2026400091F802C04CEA050591F800C0BCF1000F31D0146800202BE04FF0010C0CFA00F3FD
:20266000B1F800C00CEA03069E4220D183004FF00F0C0CFA03F7BC4305FA03FC4CEA040409
:2026800091F803C0BCF1280F06D14FF0010C0CFA00FCC2F814C00AE091F803C0BCF1480F1D
:2026A00005D14FF0010C0CFA00FCC2F810C0401C0828D1D31460B1F800C0BCF1FF0F34DD93
:2026C000546800202EE000F1080C4FF0010808FA0CF3B1F800C00CEA03069E4221D1830005
:2026E0004FF00F0C0CFA03F7BC4305FA03FC4CEA040491F803C0BCF1280F05D100F1080C3A
:2027000008FA0CF8C2F8148091F803C0BCF1480F07D100F1080C4FF0010808FA0CF8C2F830
:202720001080401C0828CED35460BDE8F0814FF6FF710180022181700421C1707047024673
:20274000002093680B400BB1012000E0002070470146886880B2704702460020D3680B4071
:202760000BB1012000E0002070470146C86880B2704701617047416170470AB1016100E0F6
:2027800041617047C16070474FF480320A4382618161826182698269704702460020434B9B
:2027A00018684FF68073184040EA021008433F4B186070473E49C8617047F0B50A4600234A
:2027C00000240021002500F00046B6F1004F02D1364EF16901E0354E7168C0F3034583B245
:2027E00000F44016B6F5401F08D121F070612F4E766826F070662D4F7E6012E000F48016AD
:20280000B6F5801F06D1032606FA05F4A14341F0706106E0460D360103FA06F6B14341F001
:20282000706122B1460D360103FA06F6314300F00046B6F1004F02D11C4EF16101E01B4EF8
:202840007160F0BD30B500228B071C0F0F2303FA04F2164B08338C1053F824309343134C05
:2028600008348D1044F8253023468C1053F824308C07240F00FA04F423430C4C08348D10FB
:2028800044F8253030BD0A49DC3108607047000000080140000C01400010014000140140FF
:2028A00000180140001C0140002001400000014000002042DF48006840F00100DD49086010
:2028C00008464068DC490840DA49486008460068DA490840D74908600846006820F48020B7
:2028E00008600846406820F4FE0048604FF41F0088607047CF49096821F48031CD4A1160E8
:202900001146096821F480211160B0F5803F03D0B0F5802F0ED106E0C649096841F4803112
:20292000C44A116007E0C349096841F4A021C14A116000E000BF00BF704710B501460022FF
:20294000002300204A11012A02D1BA4C236806E0022A02D1B74C236A01E0B64C636A01F034
:202960001F02012494401C400CB1012000E0002010BD38B5002000900024002500BF312040
:20298000FFF7DBFF05460098401C00900098B0F5A06F01D0002DF2D03120FFF7CEFF08B1BF
:2029A000012400E00024204638BD01460020A14A106820F0F80040EAC10010607047A049C6
:2029C00008607047024600209A4B586820F47C1042EA01031843974B586070479849086600
:2029E000704701460020934A506820F003000843506070478F48406800F00C0070470146E6
:202A000000208C4A506820F0F00008435060704701460020874A506820F4E0600843506017
:202A2000704701460020834A506820F4605040EAC1005060704729B17E4A527A02437D4B62
:202A40005A7204E07B4A527A82437A4B5A7270477B49D8310860704701460020754A50685E
:202A600020F440400843506070470021714A20321170704A82F82010012802D004280AD1FB
:202A800004E001216B4A2032117005E00521694A2032117000E000BF00BF704769490860E8
:202AA00070476449096A0143624A11627047654944390860704730B500210022002400236C
:202AC0005C4D6D6805F00C0121B1042905D0082923D105E05C4D056022E05B4D05601FE07C
:202AE000544D6D6805F47012524D6D6805F48034022505EB92421CB9544D554305600BE07B
:202B00004C4D6D6805F400351DB1504D5543056002E04D4D5543056002E04B4D056000BF9A
:202B200000BF444D6D6805F0F0010909484D6B5C0568DD4045603F4D6D6805F4E061090A3F
:202B4000434D6B5C4568DD4085603A4D6D6805F46051C90A3E4D6B5C4568DD40C560354DD3
:202B60006D6805F44041890B3A4D6B5CC568B5FBF3F5056130BD29B12E4A526902432D4B42
:202B80005A6104E02B4A526982432A4B5A61704729B1284A92690243264B9A6104E0254A6F
:202BA00092698243234B9A61704729B1214AD2690243204BDA6104E01E4AD26982431D4B16
:202BC000DA61704729B11B4AD2680243194BDA6004E0184AD2688243164BDA60704729B136
:202BE000144A12690243134B1A6104E0114A12698243104B1A6170471249403908607047DF
:202C00000F49C86470470B49C87170470948406A40F0807007494862704701460020054AB3
:202C200092680A400AB1012000E000207047014988727047001002400000FFF8FFFFF6FE87
:202C4000000042428004424200127A0000093D00140000202400002010B50446FE48844283
:202C600008D10121C014FFF7ADFF0021E014FFF7A9FFC4E0B4F1804F08D101210846FFF7D9
:202C8000AEFF00210120FFF7AAFFB8E0F348844208D101210220FFF7A2FF00210220FFF720
:202CA0009EFFACE0EE48844208D101210420FFF796FF00210420FFF792FFA0E0E948844202
:202CC00008D101210820FFF78AFF00210820FFF786FF94E0E448844208D101211020FFF707
:202CE0007EFF00211020FFF77AFF88E0DF48844208D101212020FFF772FF00212020FFF749
:202D00006EFF7CE0DA48844208D101214014FFF759FF00216014FFF755FF70E0D548844253
:202D200009D10121C804FFF74DFF00214FF40020FFF748FF63E0D048844209D1012108059E
:202D4000FFF740FF00214FF48010FFF73BFF56E0CA48844209D101214805FFF733FF00217A
:202D60004FF40010FFF72EFF49E0C548844208D101214020FFF733FF00214020FFF72FFFB9
:202D80003DE0C048844208D101218020FFF727FF00218020FFF723FF31E0BB48844208D105
:202DA00001218015FFF71BFF0021A015FFF717FF25E0B648844209D101210804FFF702FFA2
:202DC00000214FF48030FFF7FDFE18E0B048844209D101214804FFF7F5FE00214FF4003073
:202DE000FFF7F0FE0BE0AB48844208D101218804FFF7E8FE00214FF48020FFF7E3FE10BD40
:202E000000220288944B98420ED0994B98420BD0B0F1804F08D0914B984205D0904B98424E
:202E200002D0904B984204D14FF68F731A404B881A438D4B984207D08C4B984204D04FF612
:202E4000FF431A40CB881A4302808B8883850B880385814B98420BD0854B984208D08B4B95
:202E6000984205D08A4B984202D08A4B984201D10B7A038601238382704770B50024002248
:202E80000023058C4FF6FE7635400584028C8388048B4FF68F752C40B51E2C400D882C43A7
:202EA000751E2A400D892A434D882A436A4DA8420BD06F4DA84208D0744DA84205D0744D95
:202EC000A84202D0734DA84213D14FF6F7752A404D892A434FF6FB752A408D882A434FF664
:202EE000FF652B404FF6FF552B408D892B43CD892B4383800483CD888586028470BD70B5F5
:202F0000002400220023058C4FF6EF7635400584028C8388048B48F6FF752C404FF6FF4540
:202F20002C400D884FF6FF7606EA05252C434FF6DF752A400D8906EA05152A434D8806EA78
:202F400005152A43444DA84202D0494DA8421DD14FF67F752A404D894FF6FF7606EA0515F2
:202F60002A434FF6BF752A408D8806EA05152A434FF6FF352B404FF2FF752B408D8906EA6B
:202F800085052B43CD8906EA85052B4383800483CD880587028470BD70B50024002200234F
:202FA000058C4FF6FF6635400584028C8388848B4FF68F752C404FF6FC752C400D882C4355
:202FC0004FF6FF552A400D894FF6FF7606EA05252A434D8806EA05252A431F4DA84202D093
:202FE000234DA8421DD14FF2FF752A404D894FF6FF7606EA05252A434FF6FF352A408D885B
:2030000006EA05252A434EF6FF752B404DF6FF752B408D8906EA05152B43CD8906EA0515F6
:203020002B4383808483CD888587028470BD70B5002200230024058C4EF6FF76354005842E
:20304000038C8488828B48F6FF752A404FF6FF452A400D8820E00000002C01400004004073
:2030600000080040000C0040001000400014004000340140004C01400050014000540140F0
:2030800000180040001C0040002000400040014000440140004801404FF6FF7606EA0525B9
:2030A0002A434DF6FF752B400D8906EA05352B434D8806EA05352B43FA4DA84202D0FA4D9C
:2030C000A84208D14BF6FF752C408D894FF6FF7606EA85152C4384808283CD88A0F84050BD
:2030E000038470BD828B4FF2FF331A408283828B4FF6FF7303EA01231A4382837047F0B5AA
:203100000C461546002200210026078C4EF6FF7C07EA0C070784828B018C4FF6FF7707EA72
:20312000043640F6FF473A404FF6FF7707EA05273A434FF6FF7707EA03373A43D94FB84285
:203140000ED0D94FB8420BD0B0F1804F08D0D74FB84205D0D64FB84202D0D64FB84206D170
:203160004DF6FF77394046F48057394305E047F6FF57394044F48057394382830184F0BDDD
:20318000828B4FF6F3731A408283828B0A4382837047F0B50C461546002200210026078CB4
:2031A0004FF6FF6C07EA0C070784828B018C4FF6FF7707EA04264FF60C773A404FF6FF7763
:2031C00007EA03172F433A43B64FB8420ED0B64FB8420BD0B0F1804F08D0B44FB84205D024
:2031E000B34FB84202D0B34FB84206D14FF6FF57394046F48077394305E04FF2FF57394078
:2032000044F48077394382830184F0BD028B4FF2FF331A400283028B4FF6FF7303EA012398
:203220001A4302837047F0B50C461546002200210026078C4FF6EF7C07EA0C070784028BDB
:20324000018C4FF6FF7707EA041640F6FF473A404FF6FF7707EA03373A434FF6FF7707EA16
:2032600005273A438F4FB8420ED08F4FB8420BD0B0F1804F08D08D4FB84205D08C4FB84274
:2032800002D08C4FB84206D14FF6DF77394046F01007394305E04FF65F77394044F010070F
:2032A000394302830184F0BD028B4FF6F3731A400283028B0A4302837047F0B50C4615465C
:2032C00000220021068C4FF6FE773E400684028B018C4FF60C7632407E1C06EA03162E43F0
:2032E0003243704EB0420ED06F4EB0420BD0B0F1804F08D06D4EB04205D06D4EB04202D0F8
:203300006C4EB04206D14FF6FD76314044F00106314305E04FF6F576314044F0010631439D
:2033200002830184F0BD70B505460C465D4885420ED05D4885420BD0B5F1804F08D05B4893
:20334000854205D05A48854202D05A48854200D100E000BF208850B92389A28861882846DF
:20336000FFF7ABFFE1882846FFF79EFF25E0208804280AD12389A28861882846FFF753FF1A
:20338000E1882846FFF742FF17E0208808280AD12389A28861882846FFF7FBFEE188284682
:2033A000FFF7EEFE09E02389A28861882846FFF7A6FEE1882846FFF795FE70BD2DE9F041A7
:2033C00005460C4600260127608808B9022600E00026A088012801D1022700E0012720882F
:2033E000A0B92389A28861882846FFF766FFE1882846FFF759FF23893A4631462846FFF7C0
:2034000012FFE1882846FFF701FF13E02389A28861882846FFF707FFE1882846FFF7F6FEF1
:2034200023893A4631462846FFF747FFE1882846FFF73AFFBDE8F0810A884B881A438B884E
:203440001A43CB881A430B891A434B891A438B891A43A0F8442070474FF6FF718180002142
:203460000180C1804180017270470021018041808180C180018141818181C181704700219A
:2034800001804180012181800021C180018170470021018041808180C18001814181818141
:2034A00070470000002C0140003401400004004000080040000C004021B1028842F001020A
:2034C000028004E002884FF6FE731A400280704731B1B0F8442042F40042A0F8442005E06C
:2034E000B0F84420C2F30E02A0F8442070471AB183890B43838102E083898B4383817047A8
:203500008182704741EA0203A0F8483070471AB183890B43838102E083898B43838170475A
:2035200001894FF6F8721140018170470A46002101894FF68F73194011430181704730B5BB
:2035400004460D4629462046FFF7F0FF208940F00700208130BD2DE9F04104460D46164666
:203560001F46602D06D13B46012231462046FFF75AFE05E03B46012231462046FFF79DFEBC
:2035800029462046FFF7D2FF208940F007002081BDE8F08130B50C4600210189C9B24FF656
:2035A000FF7505EA0325154325432943018130BD2DE9F04105460E46174698460024434617
:2035C0003A4631462846FFF7E5FF2C894FF6F870044044F007044FF68F70044044F0700497
:2035E0002C81BDE8F081F0B504460D4616461F463B46324629462046FFF7CCFF208940F499
:2036000080402081F0BD0185828270470A46002101884FF68F731940114301807047F0B590
:203620000C4615461E460021002200230189028B038C4FF6F877394021434FF6FC473A40DA
:2036400040F201173A434FF6DD773B404FF6FF7707EA06172F433B43018102830384F0BD9B
:203660000A460021018B4FF68F7319401143018370470A460021018B48F6FF7319404FF6D3
:20368000FF7303EA02231943018370470A460021818B4FF68F7319401143818370470A4693
:2036A0000021818B48F6FF7319404FF6FF7303EA022319438183704721B1028842F08002E4
:2036C000028004E002884FF67F731A400280704721B1828842F00402828004E082884FF6E7
:2036E000FB731A408280704721B1828842F00802828004E082884FF6F7731A40828070477F
:2037000021B1828842F00102828004E082884FF6FE731A40828070470A460021018B4FF69D
:20372000F77319401143018370470A460021018B4FF2FF7319404FF6FF7303EA0223194309
:20374000018370470A460021818B4FF6F77319401143818370470A460021818B4FF2FF736A
:2037600019404FF6FF7303EA02231943818370470A460021018B4FF6FB731940114301832F
:2037800070470A460021018B4FF6FF3319404FF6FF7303EA02231943018370470A460021D4
:2037A000818B4FF6FB7319401143818370470A460021818B4FF6FF3319404FF6FF7303EAF1
:2037C00002231943818370470A460021018B4FF67F7319401143018370470A460021018B94
:2037E000C1F30E014FF6FF7303EA02231943018370470A460021818B4FF67F731940114345
:20380000818370470A460021818BC1F30E014FF6FF7303EA02231943818370470A4600215C
:20382000018C4FF6FD7319401143018470470A460021018C4FF6F7731940114301847047C7
:203840000A460021018C4FF6DF7319404FF6FF7303EA02131943018470470A460021018C2B
:203860004FF67F7319404FF6FF7303EA02131943018470470A460021018C4FF6FF53194079
:203880004FF6FF7303EA02231943018470470A460021018C4FF2FF7319404FF6FF7303EA19
:2038A00002231943018470470A460021018C4DF6FF7319404FF6FF7303EA02331943018485
:2038C000704730B5002301248C40A3B2048C9C430484048C02FA01F5ADB22C43048430BD27
:2038E00030B5002304248C40A3B2048C9C430484048C02FA01F5ADB22C43048430BD70B596
:203900000346002000241846183001258D40ACB21D8CA5431D8409B1082909D100EB6100E0
:20392000056825F0700505600568154305600EE00D1FC5F34E052844056825F4E045056060
:2039400005684FF6FF7606EA02263543056070BD21B1028842F00202028004E002884FF657
:20396000FD731A400280704721B1028842F00402028004E002884FF6FB731A40028070477A
:2039800021B1828842F08002828004E082884FF67F731A408280704702884FF6F7731A40CA
:2039A000028002880A430280704782884FF68F731A40828082880A438280704702894FF6E8
:2039C000F8731A40028102890A430281704702894FF67F731A40028102890A4302817047DC
:2039E0008184704781857047818670470187704781877047A0F84010704702884FF6FF43E2
:203A00001A40028002880A43028070470146888E70470146088F70470146888F70470146B5
:203A2000B1F8400070470146888C70470146088D704702460020138A0B400BB1012000E034
:203A400000207047CA430282704730B50246002000230024158A05EA0103958905EA01040F
:203A600013B10CB1012000E0002030BDCA4302827047000010B50446FB48844209D101215B
:203A80008803FFF79FF800214FF48040FFF79AF832E0F648844209D101214804FFF79FF877
:203AA00000214FF40030FFF79AF825E0F048844209D101218804FFF792F800214FF48020DB
:203AC000FFF78DF818E0EB48844209D10121C804FFF785F800214FF40020FFF780F80BE062
:203AE000E548844208D101210805FFF778F800214FF48010FFF773F810BD2DE9F04786B0C0
:203B000005460E460024A24600BFA1460027B08900B100BF2F462C8A4CF6FF700440F088EC
:203B200004432C82AC894EF6F3100440B08831890843718908430443AC81AC8A4FF6FF4020
:203B40000440B0890443AC8201A8FEF7B4FFC648874202D1DDF810A001E0DDF80CA0A88960
:203B600000F4004040B10AEBCA0000EB0A1031684900B0FBF1F807E00AEBCA0000EB0A103B
:203B800031688900B0FBF1F86420B8FBF0F004012009642101FB1089A88900F4004040B1BA
:203BA000322000EBC900B0FBF1F000F00700044308E0322000EB09106421B0FBF1F000F0F6
:203BC0000F0004432C8106B0BDE8F0874FF41651016000218180C18001810C214181002110
:203BE0008181704710B502460020108A4FF2FF0318400B884C8823438C882343CC882343A9
:203C00001843108210BD0021018041808180C180704721B1828942F40052828104E0828937
:203C20004DF6FF731A4082817047F0B50346002400260025002040F66A17B94200D100BFFC
:203C40001846C1F3421401F01F06012707FA06F5012C01D10C3004E0022C01D1103000E083
:203C600014301AB107682F43076002E00768AF430760F0BD1AB1838A0B43838202E0838A7C
:203C80008B4383827047028A4FF6F0731A400282028A0A430282704782894FF2FF731A405C
:203CA000828182890A438281704721B1828942F00202828104E082894FF6FD731A408281D8
:203CC0007047028A4FF6DF731A400282028A0A430282704721B1028A42F48042028204E05A
:203CE000028A4BF6FF731A4002827047C1F308028280704701468888C0F3080070478189A6
:203D000041F0010181817047028BD2B20283028B42EA012202837047028B02F47F42028340
:203D2000028B0A430283704721B1828A42F02002828204E0828A4FF6DF731A40828270479B
:203D400021B1828A42F01002828204E0828A4FF6EF731A408282704721B1828A42F0080277
:203D6000828204E0828A4FF6F7731A408282704721B1828942F40042828103E08289C2F390
:203D80000E028281704721B1828A42F40062828204E0828A4FF2FF731A4082827047828A1B
:203DA0004FF6FB731A408282828A0A438282704721B1828A42F00202828204E0828A4FF691
:203DC000FD731A408282704702460020B1F5007F00D100BF13880B400BB1012000E000207E
:203DE000704701F40072B2F5007F00D100BFCA430280704770B502460024002300250020B0
:203E000040F66A16B14200D100BFC1F3421501F01F03012606FA03F3012D02D1968933409B
:203E200006E0022D02D1168A334001E0968A33400C12012606FA04F41688344013B10CB143
:203E4000012000E0002070BD10B50022002340F66A14A14200D100BF0A1201249440A3B279
:203E6000DC43048010BD0000003801400044004000480040004C00400050004010B5044622
:203E8000FA48844208D101214015FEF79BFE00216015FEF797FE17E0F548844208D1012127
:203EA0000015FEF78FFE00212015FEF78BFE0BE0F048844208D10121C803FEF783FE002151
:203EC0004FF40040FEF77EFE10BD30B50246002000235068E84C20400D790C6844EA052414
:203EE000204350609068E54C2040D1E902542C434D7944EA450420439060D06A20F4700059
:203F00000C7C641EE4B2234340EA0350D06230BD00210160017141718160C16001210174C0
:203F2000704721B1826842F00102826003E0826822F001028260704721B1826842F4807298
:203F4000826003E0826822F480728260704710B50023CBB21AB144681C43446002E04468A4
:203F60009C43446010BD816841F0080181607047014600208A6802F008020AB1012000E025
:203F800000207047816841F0040181607047014600208A6802F004020AB1012000E0002066
:203FA000704721B1826842F4A002826003E0826822F4A00282607047014600208A6802F467
:203FC00080020AB1012000E00020704710B50A4600210023416821F46041531E41EA433104
:203FE000416010BD21B1426842F40062426003E0426822F4006242607047F0B504460D46FD
:020000040800F2
:2040000000200021092D11DDE068A5F10A0606EB4607072606FA07F18843A5F10A0606EB88
:20402000460603FA06F10843E0600CE0206905EB4507072606FA07F1884305EB450603FADC
:2040400006F108432061072A0FDA606B561E06EB86071F2606FA07F18843561E06EB8606CD
:2040600005FA06F10843606322E00D2A0FDA206BD61F06EB86071F2606FA07F18843D61F1F
:2040800006EB860605FA06F10843206310E0E06AA2F10D0606EB86071F2606FA07F1884379
:2040A000A2F10D0606EB860605FA06F10843E062F0BD21B1826842F48012826003E082687A
:2040C00022F48012826070470146C86C80B2704766484C300068704721B1426842F480625E
:2040E000426003E0426822F480624260704721B1426842F48052426003E0426822F48052A5
:20410000426070470A460021816821F4E04111438160704721B1826842F40042826003E0D1
:20412000826822F400428260704721B1826842F40212826003E0826822F40212826070472C
:20414000014600208A6802F400120AB1012000E000207047F0B504461546002000220026B9
:20416000092911DDE068A1F10A0707EB470C072707FA0CF29043A1F10A0707EB470703FA0F
:2041800007F21043E0600CE0206901EB410C072707FA0CF2904301EB410703FA07F2104368
:2041A0002061A06BC0F30156EF1C06F1010CA7EB0C0707EB870C1F2707FA0CF29043EF1C0D
:2041C00006F1010CA7EB0C0707EB870701FA07F21043A063F0BD10B50A4600210023816B7A
:2041E00021F44011531E41EA0351816310BD08B5002300930090009B0B440093009B1A6023
:2042000008BD08B5024600200090009201F12800009B184400900098006880B208BD0A46AA
:2042200000214168164B19401143416070474162826270470A460021416821F01F01114371
:204240004160704740B109490831096841F40001064A0832116007E004490831096821F4F5
:204260000001024A08321160704700000024014000280140003C0140FFFEF0FFFDF7F1FF74
:20428000FFFD3FFF0246002013680B400BB1012000E000207047CA430260704770B502468F
:2042A0000020002300240B125568CEB205EA060415681D4015B10CB1012000E0002070BD99
:2042C00000220A12D3430360704730BF704772B6704762B6704710B54FF4A060FDF7C6FC5E
:2042E00010BD00007FB505460C4601211020FEF75CFCADF80850ADF804400020ADF80A00CC
:20430000ADF8060001A91948FEF77AFD012211461648FFF7ECF836208DF8000003208DF846
:2043200001008DF8020001208DF803006846FDF7A2FC01210D48FFF7BFF800200C4908600B
:204340007FBD0B490860704710B501210748FFF77CFB012805D10648006810B104480068E1
:20436000804701210148FFF781FB10BD001000402800002010B56FF00400FDF7C6FC4FF017
:20438000E020006940F002004FF0E021086142F2283048610846006940F00100086110BD86
:2043A000F0B504460D4600212AE001EB81008A4E56F8200010BB01EB810046F820400120E6
:2043C00001EB8106844F07EB8606707401EB81003E4606EB8000456001EB810006EB800050
:2043E000826001EB810006EB80000374002001EB810607EB8606F0600846F0BD481CC1B253
:204400001E29D2DBFF20F8E710B50146002027E000EB8002704B53F822208A421ED10022E5
:2044200000EB80036C4C44F8232000EB800304EB83035A7400EB800304EB83035A6000EB9E
:20444000800304EB83039A6000EB800304EB83031A7400EB800304EB8303DA60421CD0B2FC
:204460001E28D5DB10BD002100EB80025A4B43F8221000EB800203EB8202517400EB8002C8
:2044800003EB8202516000EB800203EB8202916000EB800203EB8202117400EB800203EB6A
:2044A0008202D1607047002048E000EB80014A4A02EB8101097CE9BB00EB800102EB8101D5
:2044C000497C012938D100EB800102EB8101C96881BB00EB800102EB8101496859B100EB1B
:2044E000800102EB81014968491E00EB80023A4B03EB8202516000EB8001374A02EB810143
:204500004968B9B9012100EB8002334B03EB8202D16000EB80011A4602EB8101896849B1A2
:2045200000EB800102EB8101896800EB800203EB820200E000E05160411CC8B21E28B4DBB3
:20454000704710B5002440E004EB8400224901EB8000407C012836D104EB840051F8200089
:2045600088B304EB840001EB8000007C012806D104EB8401184A52F82100804723E004EBAB
:204580008400154901EB8000007CE0B904EB840001EB8000C068B0B104EB84010E4A52F83A
:2045A00021008047002004EB84010B4A02EB8101C86004EB8400114601EB8000806810B9AC
:2045C0002046FFF750FF601CC4B21E2CBCDB10BD00B5FFF768FF00BDEC02002010B500F0FE
:2045E0001BFBFFF7C7FE01F01AFD05F01FFE02F028F800230A2211462648FFF7D1FE03F0F2
:2046000097F901230A2211462348FFF7C9FE04F0A0F801F05FFC00234FF47A7205211F4884
:20462000FFF7BEFE02F076F800230A2211461C48FFF7B6FE01F08DF800230A220521194868
:20464000FFF7AEFE0123002205211748FFF7A8FE01F026F800230A2205211448FFF7A0FEDD
:204660000123002205211248FFF79AFE04F098F80023642208210F48FFF792FE012300226D
:2046800005210D48FFF78CFE10BD10B5FFF759FF10BD000071660008617900088987000899
:2046A000276C0008435B00085B5C0008E3560008EF5600083D880008678B000870B5034637
:2046C0000C4603E014F8015B03F8015B1500A2F10102F7D170BD30B5034601E003F8011B20
:2046E0001400A2F10102F9D130BD00B57C494FF42072C8680021FFF7EEFF79494FF4A042EF
:2047000088680021FFF7E7FF01207549087400BD0022002105E07248C068405C00B1521CCF
:20472000491CB1F5207FF6D3642050434FF42073B0FBF3F0C0B270472DE9F04106460024AB
:20474000A0466748007C10B96549086880471EB94FF0FF30BDE8F08162480068B6FBF0F09C
:2047600085B260480068B6FBF0F100FB116008B1681C85B25C480068441E1BE05848C0684F
:20478000005D20B908F101001FFA80F801E04FF00008A8450DD1002704E05149C968E21994
:2047A0008D547F1CAF42F8D34E49096804FB01F0D0E7641E002CE1DA4FF0FF30CAE770B565
:2047C00005464748007C20B9454908688047012070BD46480068854212D242480068B5FB54
:2047E000F0F13F48C068425C002405E000203C4BDB680E199855641C9442F7DB0020E7E76E
:204800000220E5E72DE9F04105463548007C20B9334908688047BDE8F081314880682E1AD4
:204820003248006886421ED22E4B1B68B6FBF3F02B4BDB68195C2A46002402E0002313551F
:20484000641C284B1B684B43A342F7D8002407E00023234FFF6800EB040C07F80C30641CE3
:204860008C42F5DBD7E700BFD5E770B5044604B970BD1B488068251AFFF729FD2046FFF706
:20488000C1FFFFF726FD00BFF2E770B50546FFF71EFD2846FFF750FF0446FFF71AFD601CA0
:2048A00008B9002070BD0E4880682044FAE770B506460C462046FFF73FFF0546681C08B97A
:2048C000002070BD06498968481922463146FFF7F5FE3046FFF7C9FF014880682844F0E77A
:2048E00038000020300000202C00002034000020012080F3138800BF00BF6548006800F4BA
:20490000E06064490843001D61490860BFF3408F00BF00BFFEE72DE9F05F06460F46904670
:204920000024B3463D46A14617E068784FEA002A28788244AD1C2046641C574921F810A038
:20494000B4F5806F07D100244FF48062584600F0DAF80BF5006B09F10209C145E5D324B13B
:20496000A2B24D49584600F0CEF8BDE8F09F10B50446206849490840B0F1005F08D16068B3
:20498000474908602068FDF741F845480068804710BD08B54FF6FF70009002226946414884
:2049A00000F0B1F84048FFF7E2FF08BD3E483849091F08607047F0B59BB005460E46174600
:2049C000684600F02FF932462946684600F0FFFC17A9684600F060FD002409E0395D17A874
:2049E000005D814202D000201BB0F0BD601CC4B2102CF3DBFF20F7E738B50446221D2B484B
:204A00002168FFF7D8FF50B10020009002226946244800F078F8FCF7FCFFFF2038BD0020CE
:204A2000FCE738B50446221D20482168FFF7C3FF40B100200090022269461A4800F063F853
:204A4000FF2038BD0020FCE700201949088019490860704710B50446208815490988884244
:204A600014D1628813490968104BC818211DFFF752FF0F480088401C0D49088060880D4983
:204A8000096808440B490860FF2010BD0020FCE70CED00E00000FA05C45700200000FE2F6E
:204AA0004C000020001400080018000800A8010850000020540000200146088870472DE915
:204AC000F04105460E461746002407E036F814102846FDF7CAFBAD1C601C84B2BC42F5DBDC
:204AE000BDE8F08130B503460C461546002207E01846FFF7E1FF24F812009B1C501C82B203
:204B0000AA42F5DB30BD2DE9F05F80468A461746B8F1006F02D33748804501D3BDE8F09F5B
:204B2000FDF75BFAA8F1006B4FEADB25CBF34909C9F58064A74200DC3C464DE04FF0006129
:204B400001EBC5204A142C49FFF7CCFF00260BE009EB0600284931F810004FF6FF718842BC
:204B600000D003E0701C86B2A642F1DB00BFA6421BDA4FF0006101EBC520FDF773FA002676
:204B800008E03AF8160006EB09011B4A22F81100701C86B2A642F4DB4FF0006101EBC5206E
:204BA0004A141549FFF78BFF04E0224651464046FFF785FFA74200D10FE06D1C4FF000095C
:204BC0000AEB440AA044381B87B2B7F5806F02DD4FF4806400E03C46B0E700BFFDF709FAD2
:204BE00000BF9BE713B50446012201A92046FFF78AFF1CBD00000408C45F0020014600BF82
:204C0000704700BF704770B504460D46E1B2012004F06DFB204670BD10B5012004F073FABB
:204C200010BD0000002101604160FE498160FE4AC260CA430261FC4AD2434261704770B5A8
:204C400003460024002010E00E5C451C4D5D46EA0526851C4D5D46EA0546C51C4D5D46EA86
:204C6000056543F82450641C001D9042ECD370BD2DE9F043C0B080468946D8F80040D8F892
:204C80000450D8F80860D8F80C70402249466846FFF7D5FF05EA060027EA050108430099E3
:204CA0000844E24908440444E00140EA54642C4404EA050026EA0401084301990844DC4958
:204CC00008440744380340EA1757274407EA040025EA0701084302990844D649084406440C
:204CE000700440EAD6363E4406EA070024EA0601084303990844D04908440544A80540EAC4
:204D00009525354405EA060027EA0501084304990844CA4908440444E00140EA54642C4446
:204D200004EA050026EA0401084305990844C44908440744380340EA1757274407EA04005F
:204D400025EA0701084306990844BE4908440644700440EAD6363E4406EA070024EA060131
:204D6000084307990844B84908440544A80540EA9525354405EA060027EA05010843089964
:204D80000844B24908440444E00140EA54642C4404EA050026EA0401084309990844AC49CF
:204DA00008440744380340EA1757274407EA040025EA070108430A990844A0F524404F3858
:204DC0000644700440EAD6363E4406EA070024EA060108430B9908449E4908440544A805ED
:204DE00040EA9525354405EA060027EA050108430C990844984908440444E00140EA5464D6
:204E00002C4404EA050026EA040108430D990844924908440744380340EA1757274407EA3C
:204E2000040025EA070108430E9908448C4908440644700440EAD6363E4406EA070024EA7D
:204E4000060108430F990844864908440544A80540EA9525354405EA070026EA0701084345
:204E600001990844804908440444600140EAD4642C4404EA060025EA06010843069908447C
:204E80007A4908440744780240EAD757274407EA050024EA050108430B990844744908442D
:204EA0000644B00340EA96463E4406EA040027EA04010843009908446E49084405442805BA
:204EC00040EA1535354405EA070026EA0701084305990844684908440444600140EAD4649A
:204EE0002C4404EA060025EA060108430A990844624908440744780240EAD757274407EA8E
:204F0000050024EA050108430F9908445C4908440644B00340EA96463E4406EA040027EABE
:204F20000401084304990844564908440544280540EA1535354405EA070026EA0701084391
:204F400009990844504908440444600140EAD4642C4404EA060025EA060108430E990844BB
:204F60004A4908440744780240EAD757274407EA050024EA050108430399084444490844B4
:204F80000644B00340EA96463E4406EA040027EA04010843089908443E4908440544280501
:204FA00040EA1535354405EA070026EA070108430D990844384908440444600140EAD464E1
:204FC0002C4404EA060025EA0601084302990844324908440744780240EAD757274407EAE5
:204FE000050024EA05010843079908442C4908440644B00340EA96463E4406EA040027EA16
:20500000040108430C990844264908440544280540EA1535354485EA06007840059908441A
:20502000214943E00123456789ABCDEF78A46AD756B7C7E8DB702024EECEBDC1AF0F7CF512
:205040002AC68747134630A8019546FDD8988069AFF7448BBED75C892211906B937198FD79
:205060008E4379A62108B44962251EF640B340C0515A5E26AAC7B6E95D102FD6531444022E
:2050800081E6A1D8C8FBD3E7E6CDE121D60737C3870DD5F4ED145A4505E9E3A9F8A3EFFC2A
:2050A000D9026F678A4C2A8D4239FAFF08440444200140EA14742C4484EA050070400899A3
:2050C0000844FC4908440744F80240EA5757274487EA040068400B990844F7490844064488
:2050E000300440EA16463E4486EA070060400E990844F24908440544E80540EA5525354490
:2051000085EA0600784001990844ED4908440444200140EA14742C4484EA050070400499AF
:205120000844E84908440744F80240EA5757274487EA0400684007990844E3490844064453
:20514000300440EA16463E4486EA070060400A990844DE4908440544E80540EA5525354447
:2051600085EA060078400D990844D94908440444200140EA14742C4484EA0500704000995B
:205180000844D44908440744F80240EA5757274487EA0400684003990844CF49084406441F
:2051A000300440EA16463E4486EA0700604006990844CA4908440544E80540EA55253544FF
:2051C00085EA0600784009990844C54908440444200140EA14742C4484EA050070400C9907
:2051E0000844C04908440744F80240EA5757274487EA040068400F990844BB4908440644DB
:20520000300440EA16463E4486EA0700604002990844B64908440544E80540EA55253544B6
:2052200065EA0700704000990844B14908440444A00140EA94642C4464EA06006840079926
:205240000844AC4908440744B80240EA9757274467EA050060400E990844A74908440644CA
:20526000F00340EA56463E4466EA0400784005990844A24908440544680540EAD525354473
:2052800065EA070070400C9908449D4908440444A00140EA94642C4464EA060068400399D2
:2052A0000844984908440744B80240EA9757274467EA050060400A99084493490844064496
:2052C000F00340EA56463E4466EA04007840019908448E4908440544680540EAD52535442B
:2052E00065EA0700704008990844894908440444A00140EA94642C4464EA060068400F997E
:205300000844844908440744B80240EA9757274467EA05006040069908447F490844064461
:20532000F00340EA56463E4466EA040078400D9908447A4908440544680540EAD5253544D2
:2053400065EA0700704004990844754908440444A00140EA94642C4464EA060068400B9939
:205360000844704908440744B80240EA9757274467EA05006040029908446B49084406442D
:20538000F00340EA56463E4466EA0400784009990844664908440544680540EAD52535448A
:2053A000D8F800002044C8F80000D8F804002844C8F80400D8F808003044C8F80800D8F811
:2053C0000C003844C8F80C0040B0BDE8F0832DE9F04704460F4615460026B046B14620886F
:2053E000C0F3C508C8F14009206800EBC50020602068B0EBC50F02D26068401C60606068FC
:2054000000EB557060604D451CD304F1180101EB08004A46394604F044FF04F1180104F150
:205420000800FFF725FC4E4605E0B91904F10800FFF71EFC403606F14000A842F5D94FF051
:20544000000800E00026AA1BB91904F1180303EB080004F026FFBDE8F08770B503461446A4
:205460000022002015E011F822501D5431F82250C5F30726451C5E5551F82250C5F30746B5
:20548000851C5E5551F822502D0EC61C9D55521C001DA042E7D370BD2DE9FC4104460E46A9
:2054A000002500272088C0F3C505382D40D2C5F138003FE081F6718722619D6D0C38E5FDD5
:2054C00044EABEA4A9CFDE4B604BBBF670BCBFBEC67E9B28FA27A1EA8530EFD4051D8804BD
:2054E00039D0D4D9E599DBE6F87CA21F6556ACC4442229F497FF2A43A72394AB39A093FC60
:20550000C3595B6592CC0C8F7DF4EFFFD15D84854F7EA86FE0E62CFE144301A3A111084E49
:20552000827E53F735F23ABDBBD2D72A91D386EBC5F178000746082221466846FFF78DFF64
:205540003A4608492046FFF742FF082269462046FFF73DFF102204F108013046FFF77DFF54
:20556000BDE8FC815800002000216848007D01430A016648407D42EA101129B1A1F21510AA
:2055800028B1222805D100E000BF012070470220FCE70120FAE72DE9F04104460D46164654
:2055A000DDE9067832462946204604F0AAF8BDE8F0812DE9F04180460C461546DDE90667C1
:2055C0002A462146112004F09CF8BDE8F081FEB505460C4616462846172D36D009DCA0F14B
:2055E0001000072857D2DFE800F015162126282A2C001D2837D006DC182827D019282AD0FC
:205600001A2848D12DE01E282ED01F2836D04C2841D134E041E0AFF26500002213462146EE
:205620000090284600F017F90020FEBD284600F089FD0020F9E70020F7E70020F5E7002093
:20564000F3E7284600F068F827E026E0207800F0FCFF0020E9E72146284600F05BFC0020F6
:20566000E3E70020E1E718E0204600F03BFD00221146284604F045F80020D6E70DE0AFF26F
:20568000E900002100913246CDE901102146284604F0D0FD01E00220C7E700BF0020C4E75F
:2056A00010B51A4800F035FD41F237101749088001208870082048600C2215491348083037
:2056C000FEF7FCFF114803F0ABFFAFF2FD0003F0AFFF04F0AAFC0F4804F060FAFFF744FF2D
:2056E00010BD10B504F033FD04F0A3F810BD10B504F04CFD04F01BF910BD10B504460A2286
:2057000021461F2003F0FDFF10BD0000C4670020E8F7FF1FC7A1000870B5054600240AE0F1
:205720002146002000F086FE81B2F74800EB44000180601CC4B2082CF2DBF348401E007848
:205740004001421CF049491E284603F0DAFF70BD70470020ED4981F8010281F800024FF45C
:20576000FA70A1F8EC010020A1F8F201A1F8F001A1F8EE01012081F8EA01002081F8E80174
:2057800081F8020281F8E90181F8030281F8E10181F8E001142081F8E20170477047704741
:2057A000DA4890F8E201704710B50446D74890F8E20108B9002010BDD44991F8E01101EBDB
:2057C0004101D24A02EBC10018222146FEF776FFCE4890F8E001401CCC4981F8E00108461A
:2057E00090F8E201401E81F8E201084690F8E001142802D1002081F8E001FF20DBE710B59E
:205800000446C24890F8E201142801D1002010BDBE4890F8E10100EB4000BC4A02EBC0017F
:2058200018222046FEF74AFFB84890F8E101401CB64981F8E101084690F8E201401C81F8DC
:20584000E201084690F8E101142802D1002081F8E1010120DBE72DE9F04387B080460C46A8
:2058600016461F46DDF838902546A9788DF81210E9788DF8131028788DF8100069788DF8F3
:205880001110CDF81490CDE902678DF800806846FFF78AFF07B0BDE8F0839C4981F80202FC
:2058A00070479A4890F80202704770B50446207C00F09AFE002855D10220944981F80002B1
:2058C000207C00F065FE48BB9048B0F8EC01B0F5967F5EDA207C02F069F918B9207C02F028
:2058E00052F920B1E07C401EE074012070BD8748B0F8EC0100284CD1844890F8010258B127
:205900000120824981F80002084690F80102401E81F801020220E9E70320E7E7207C00F0FE
:2059200037FE0546012D0ED1207C02F03FF918B9207C02F028F920B1E07C401EE074052090
:20594000D4E70420D2E7207C02F030F918B9207C02F019F920B1E07C401EE0740720C5E7D5
:205960000620C3E7207C00F030FE012811D1207C02F01CF918B9207C02F005F948B1E07C3D
:20598000401EE074627CA17C207C00F03EFD0120ACE70020AAE72DE9F04104460027002650
:2059A0005B48007830B1012811D0022835D003280CD15EE00020554981F800020120544975
:2059C00008704FF47A705149A1F8F201ADE0627CA17C207C00F0EAFC0646FF2E12D1207C0A
:2059E00002F0E4F8207C02F0CEF84FF4FA704749A1F8EC0102204649087014204349A1F840
:205A0000F20109E0012E07D1012700204049087014203E49A1F8F20187E0207C00F0E4FD3F
:205A2000022825D1207C02F0C1F8207C02F0ABF800F07CFF20B1354890F80002012804D18D
:205A40000020324981F8010203E001202F4981F8010201202D4981F8000203202C49087015
:205A60004FF47A702949A1F8F2014010A1F8EC015BE02046FFF719FF0546082D53D2DFE80A
:205A800005F004050E1720313A494CE0FF2700201F49087014201D49A1F8F20143E0012053
:205AA0001B4908704FF47A701849A1F8F2013AE0032700201649087014201449A1F8F20198
:205AC00031E0627CA17C207C00F0C7FC08B1042700E0012700200E49087014200B49A1F86F
:205AE000F20120E0052700200949087014200749A1F8F20117E00227002005490870142053
:205B00000249A1F8F2010EE099000020E8670020F900002007270020D84908701420D84943
:205B2000A1F8F20100BF00BF00BF00BFD448B0F8F20118B90E270020D04908703846BDE84C
:205B4000F08100B5CE4890F8000202280BD1CC48B0F8EC01002806DDC948B0F8EC01401EC1
:205B6000C749A1F8EC01C648B0F8F601642807DAC348B0F8F601401CC149A1F8F60105E0F0
:205B8000FFF7E6FD0020BE49A1F8F601BC48B0F8F201002806DDBA48B0F8F201401EB849CF
:205BA000A1F8F201B648B0F8F001002806DDB448B0F8F001401EB249A1F8F001B048B0F89F
:205BC000EE01002806DDAE48B0F8EE01401EAC49A1F8EE01AA48B0F8F401002806DDA848D9
:205BE000B0F8F401401EA649A1F8F401A448B0F8F801002806DDA248B0F8F801401EA049C3
:205C0000A1F8F8019E48B0F8FA01002806DD9C48B0F8FA01401E9A49A1F8FA019848B0F87A
:205C2000FC0150B19648B0F8FE0130B19448B0F8FC01401E9249A1F8FC0100BD4379821D98
:205C400002EB830211604279521C4271704701464879062202EB800070477CB5884890F8F1
:205C6000020230B1022824D00D2878D00E2877D11BE08448FFF7C3FDB0B10120804981F8E5
:205C8000E9018048807C804988707E48C07CC8707C48007C08707B48407C48700020487193
:205CA00008710E20FFF7F9FDE5E00220FFF7F5FDE1E07448FFF76FFE0446042C59D007DC1C
:205CC0007CB1012C0ED0022C1BD0032C09D128E0052C5ED0072C76D00E2C73D0FF2CF5D11C
:205CE00099E0AFE069496848FFF7A8FF68496648FFF7A4FF0020644908710D20FFF7CDFD72
:205D0000A0E06249491E6048FFF798FF60495E48FFF794FF00205C4908710D20FFF7BDFDC9
:205D200090E05C495848FFF789FF002056490871534890F80302401C514981F8030208460E
:205D400090F80302022804DC4E49087C01F008FF38B14F49491C4C48FFF770FF05E073E082
:205D600088E04B494848FFF769FF0D20FFF795FD68E04649891E4448FFF760FF444942480E
:205D8000FFF75CFF0020404908710D20FFF785FD58E000203A4981F803023B49087802F09C
:205DA00021FD3A49891E3848FFF748FF3A493648FFF744FF0120344908710D20FFF76DFD00
:205DC00040E000E017E000202D4981F803022E49087802F007FD2D49491E2B48FFF72EFF58
:205DE0002D492948FFF72AFF0120274908710D20FFF753FD26E02549491C2348FFF71EFFC9
:205E000023492148FFF71AFF00201F4908710D20FFF743FD16E00020194981F803021A49E1
:205E2000087802F0DFFC1B491748FFF707FF1A491548FFF703FF0120134908710D20FFF785
:205E40002CFD00BF00BF16E00E48406970B10E48FFF7FDFE85B20B48C1688068CDE90001EC
:205E6000084908782A464B69074998470020FFF714FD00E000BF00BF7CBD0000F900002027
:205E8000E8670020F0690020086A0020B78B010001900100888A0100708E010010B5044692
:205EA00014B902F011FA10BD3E4800EBC400C079F9E710B504461CB902F009FAC0B210BDE5
:205EC000012C02D101F0DDFFF9E7364800EBC4008079F4E710B5344800F0FBF8324B9A7861
:205EE00059781B7803F0010002F0F5F904222E492C48FEF7E3FB04222B49091D294808301D
:205F0000FEF7DCFB04222849083126481030FEF7D5FB10BD38B505460C46E278A1786078D0
:205F200002F0D9F9617820781F4A12F8200061F30000217802F82100A078217802EB810171
:205F40004870E07840B2217802EB81018870104600F0A8F861782078124A12F8300061F3FE
:205F60000000217802F83100A078217802EBC1014870E07840B2217802EBC1018870207823
:205F80008DF8000000208DF8020001208DF8010000208DF8030004226946284603F0B1FBA4
:205FA00038BD00002E6A0020466A002001465D4830F8110070475B48343890F83200704708
:205FC0005848343890F830007047F0B50346002400201A4600BF03E015682844121D641C7A
:205FE000B4EB910FF8D301F0030555B101F00306C6F10406F7004FF0FF36FE401568354042
:020000040800F2
:206000002844F0BD02460B46002104E0505C08B100207047491C9942F8D3FF20F9E710B5BE
:20602000414842490860542140480068FFF7CDFF04463E480068406DA04224D1E4B95421EF
:206040003A480068FFF7DEFFFF280ED1542135483438FFF7BAFF04463248343844652C2249
:2060600001463148FEF74FFD1BE02C222D4934392D48FEF737FD14E02C222A4934392A48C1
:20608000FEF730FD0DE0542126483438FFF79DFF04462448343844652C2201462248FEF751
:2060A00032FD10BD70B504460C2221461D481038FEF704FB54211B483438FFF786FF054635
:2060C0001848343845652C2201461748FEF71BFD70BD10B504460C22124910392046FEF7E0
:2060E000EDFA10BD70B50446242221460D483438FEF7E4FA54210B483438FFF766FF054662
:206100000848343845652C2201460748FEF7FBFC70BD10B504462422024934392046FEF7B4
:20612000CDFA10BD3401002000D80308FC0000200120994908707047002097490870704716
:206140007047704710B5044605209449087001219248C170017165209049A1F8010002218E
:206160008E48C171012101726521A0F805100021C172012101736621A0F809100121C173D7
:2061800001746621A0F80D100221C174012101756621A0F8111003208049487500217F488D
:2061A00081750121C1758176C176022181770121C1770120794981F822000021774880F818
:2061C0002310012180F82410014691F82300FFF770FE0146714880F82610002180F82710E9
:2061E00080F82810012180F8291080F82A10014691F82900FFF75DFE0146684880F82C1075
:20620000002180F82D1080F82E100220634981F835000121614880F8361080F83710604985
:20622000C0F83A10012180F83810022180F83E10012180F83F105A49C0F84210012180F861
:2062400040100520554981F846000021534880F8471080F84810012180F8491080F84B104B
:20626000002180F84C10012180F84D1080F84F10002180F85010012180F85110022180F8CC
:206280005310002180F85410012180F85510022180F85710002180F85810012180F8591099
:2062A0005B220146204603F02CFA10BD10B5044604203C49087000204870002139480171B2
:2062C00081700121C17000214171017201218171C17141720021017381720121C17202213B
:2062E00041730021017481730121C17304220146204603F006FA10BD10B5044605202949D1
:2063000008700020487000212648017181700121C17041710021017201218171C1714172A9
:206320000021017381720121C172022141730021017481730121C17302214173002101745C
:2063400081730121C17304220146204603F0D9F910BD10B586B0044602208DF8040001207D
:206360008DF8050001218DF806108DF807100E49CDF8091002218DF80D1001218DF80E107B
:206380008DF80F100849CDF81110112201A9152003F0B7F906B010BD5C010020526A002091
:2063A00078560100AD6A00204023010070B504460E46154624B92946304600F0CEF970BDAF
:2063C00004EB840000EBC4008F4901EBC000807808B10020F3E7012004EB840101EBC40126
:2063E000894A02EBC101087104EB840000EBC400114601EBC000867104EB840000EBC40064
:2064000001EBC0004571FF20D9E770B504460D46164624B93146284600F0B8F970BD00206D
:2064200004EB840101EBC401774A02EBC101087100BFF3E770B504460D461CB9284600F0C0
:20644000AAF970BD04EB840000EBC4006E4901EBC000083050F82500F3E770B504460E46A5
:2064600015466CB929462046FFF7E4FF04EB840101EBC401644A02EBC101083141F82500D5
:2064800004EB840000EBC4005F4901EBC000083050F825100120B040014009B1012070BD77
:2064A0000020FCE7024602EB820000EBC200564B03EBC000283050F831007047024602EB69
:2064C000820000EBC200504B03EBC0004078704770B504460E4615466CB929462046FFF7C7
:2064E000E1FF04EB840101EBC401474A02EBC101283141F8350004EB840000EBC4004249E3
:2065000001EBC000283050F835100120B040014009B1012070BD0020FCE770B504460D46CB
:206520001CB9284600F0D9F970BD04EB840000EBC400354901EBC000283000EBC50040682D
:20654000F2E770B504460E46154674B929462046FFF7E3FF04EB840101EBC4012A4A02EBE4
:20656000C101283101EBC501486004EB840000EBC400254901EBC000283000EBC5004068BA
:206580000121B140084008B1012070BD0020FCE710B5044614B900F0C1F910BD04EB8400D0
:2065A00000EBC400184901EBC0004078F5E710B5044614B900F0B6F910BD04EB840000EBE5
:2065C000C400114911F83000F6E710B5044614B900F0ACF910BD04EB840000EBC4000A49D4
:2065E00001EBC000C078F5E710B5044614B900F068F910BD04EB840000EBC400024901EB88
:20660000C0008078F5E70000C46A00201FB5044603208DF8000000208DF8010001218DF885
:2066200002108DF805108DF8061002218DF8091001218DF80A100D226946204603F061F801
:206640001FBD10B502F04CF910BD01212F4A517011460870704710B5022001F057FA18B9B9
:20666000022001F068FA10B10020FFF7EEFF10BD10B502F0A4F902F06EF9254948702348D6
:20668000407818B92148807800B910BD1F48407828B902F073F900201C49887034E01B4838
:2066A000807810B101282ED105E002F063F901201649887027E002F065F918BB02F057F9E2
:2066C00070B112480078124908700120887002F042F90F4948700422182003F012F80DE056
:2066E0000A4800780A4908700020887002F033F9074948700422182003F003F8002003490F
:206700008870487000BF00BF00BFBEE7640100206901002010B500240CE0002104EB4400AF
:2067200000EB0412FE4840F82210603840F82410601CC4B2082CF0DB00F02BFE10BD704716
:206740000246F748603850F8210001239340184008B1012070470020FCE730B505460C464C
:20676000EF487838807C08B1002030BD21462846FFF7E6FF08B90120F7E70120E8497839FD
:206780000875084685754475FF20EEE70022E44B783B1A7570470146E148603850F82100CC
:2067A00070470146DE48403850F8310070470146DB487838407C704710B50246D8484038DB
:2067C00050F831000124944000EA04030BB1012010BD0020FCE730B5024601EB410000EB64
:2067E0000114CF4800EB840040680124944000EA040393B101EB410000EB0114C84800EB00
:2068000084004068984301EB410404EB0115C44C04EB85046060012030BD0020FCE730B5FD
:20682000024601EB410000EB0114BD4800EB840080680124944000EA040393B101EB41002C
:2068400000EB0114B64800EB84008068984301EB410404EB0115B24C04EB8504A06001203B
:2068600030BD0020FCE710B5024601EB410000EB0114AB4850F824000124944000EA0403A5
:206880000BB1012010BD0020FCE7024601EB410000EB0113A24800EB83000C3030F8120009
:2068A00070479F487838C0687047024601EB410000EB01139A4800EB83002C3030F8120051
:2068C000704797487838807C704795487838017D09B1012070470020FCE701469048403888
:2068E00000EBC1004068704710B502468C48403800EBC10040680124944000EA04030BB13A
:20690000012010BD0020FCE702460B4684487838417C09B1012070470020FCE780487838A7
:20692000407C70477E487838007C70477C487838C07C704710B57A487838007D38B1002017
:2069400078490870784908707849087010BD754800780A2808DA73480078401C71490870B5
:206960007148007800F0D4FA6E4800780A287DD16E480178022000F075FE88B16848603845
:206980006A49097850F8210067490A7801219140084363496039654A127841F8220010E021
:2069A0005F4860386149097850F821005E490A780121914088435A4960395C4A127841F878
:2069C00022005A480178012000F04CFEB8B15748007800EB400101EB0011514850F8210074
:2069E00051490A780121914008435049097801EB410202EB01124A4941F8220016E04B487D
:206A0000007800EB400101EB0011454850F8210045490A780121914088434449097801EB17
:206A2000410202EB01123E4941F822003F480178012000F075FEC0B13C48007800EB400114
:206A400001EB0011364800EB8100406836490A780121914008433549097801EB410202EB4D
:206A600001122F4901EB8201486000E037E02F480178012000F02FFEC0B12C48007800EB07
:206A8000400101EB0011264800EB8100806826490A780121914008432449097801EB4102AA
:206AA00002EB01121E4901EB8201886000201D4908701E480078401C1C490870084600783D
:206AC00008280CD10020087017480078401C1649087008460078102801D10020087000F0AF
:206AE00054FC0F497839C86000BF2FE770B50C487838007D18B10A487838807C00B970BDED
:206B000007487838857D447D284600F001FA2146012000F0A7FDD8B104EB440008E000009A
:206B2000746C00206D0100206E0100206F01002000EB0411E54850F821000121A9400843BC
:206B400004EB440101EB0412E04941F8220010E004EB440000EB0411DC4850F821000121A9
:206B6000A940884304EB440101EB0412D74941F822002146012000F0D3FD90B104EB4400F4
:206B800000EB0411D14800EB810041680120A840014304EB440000EB0412CC4800EB8200C5
:206BA00041602146012000F096FD90B104EB440000EB0411C54800EB810081680120A8404A
:206BC000014304EB440000EB0412C04800EB820081602146012000F0C8FD014604EB440030
:206BE00000EB0412B94800EB82000C3020F815102146012000F0C5FD04EB440101EB04123D
:206C0000B24901EB82012C3121F8150000F0BDFBAE497839C86000BF71E710B5FFF78AFEAD
:206C2000FFF764FF10BD2DE9F0410125FFF782FEFFF75CFFA5487838007D28B9A348783864
:206C4000807C08B9BDE8F081A0487838007D40B900219E487838817400F048F900F038F955
:206C600031E19A487838807C30B198487838C088401C96497839C88094487838807CF8B94E
:206C80004FF4167091497839888001218F487838817400208D497839C880488000218B484F
:206CA0007838417400208949783948810874887D00F02EF985497839487D00F0B1FA02E1A9
:206CC00082487838C088052820D1804A783A517D907DFFF7A4FD7D4A783A517D907DFFF79C
:206CE0007AFD7A4A783A517D907DFFF7BCFD20B1012176487838C17403E000217348783818
:206D0000C1740221714878388174DCE06F487838C0880528A4DD6D4878384088C0B36B4851
:206D20007838C088694978394988401A282897DD66487838867D477D807D05FA00F4634849
:206D40007838417D383000EBC1004068A0435F4978394A7D383101EBC20148605B487838F3
:206D6000417D383050F83100A043584978394A7D383141F8320000203839488008750021AD
:206D800052487838817400F0B1F800F0A1F89AE0FFE74E4A783A517D907DFFF740FD0028B2
:206DA0004FD04A487838867D477D39463046FFF76CFD642844DD39463046FFF766FDB0F5B7
:206DC000167F30DD41487838807D05FA00F400203E49783908740846417D383000EBC100F4
:206DE0004068A043394978394A7D383101EBC201486036487838417D383050F83100A0439E
:206E0000324978394A7D383141F83200002038394880087500212D487838817400F066F84C
:206E200000F056F80CE039463046FFF72EFD642806DD01202549783908740846C088488089
:206E400041E022487838C088204978398988884224D11E487838807D05FA00F41B487838AC
:206E6000417D383000EBC10040682043174978394A7D383101EBC201486001211348783870
:206E80004174002011497839087500210F487838817400F02BF800F01BF814E00B4878386B
:206EA000C08864280FD1094A783A517D907DFFF7DAFC20B1002005497839087403E0012002
:206EC00002497839087400BFBCE60000746C00200020FE490860FE49C1F8B001FB490839D4
:206EE0000860091F0860091F086070470020F9490860F949C1F89001F64908310860F749DD
:206F00000860F4490C310860F349C1F89C0170470021F04A1160F04AC2F89011ED4A08320C
:206F20001160EE4A1160EB4A0C321160EA4AC2F89C1110287ED2DFE800F0081B2F44586D1E
:206F4000859AAEC3D9F5F3F2F1F00021E14A1160E14AC2F89011DF4A08321160DF4A11605C
:206F6000DC4A0C3211600121DB4AC2F89C1155E10121D84A11600021D74AC2F89011D54AE7
:206F800008321160D54A1160D24A0C3211600121D14AC2F89C1141E10021CE4A1160012159
:206FA000CD4AC2F890110021CA4A08321160CB4A1160C84A0C3211600121C74AC2F89C119E
:206FC0002CE10121C34A1160C34AC2F890110021C04A08321160C14A1160BE4A0C32116093
