:020000040800F2
:10000000F0B90020750400087D0200087F02000896
:1000100083020008870200088B020008000000002D
:100020000000000000000000000000008F02000837
:10003000910200080000000093020008313100081E
:100040008F0400088F0400088F040008A58C0008A6
:100050008F0400088F0400088F0400088F04000834
:100060008F0400088F0400088F0400088F04000824
:10007000E39800088F0400088F0400088F0400082C
:100080008F0400085B9700088F0400088F040008A5
:100090008F0400088F0400088F0400088F040008F4
:1000A0008F0400088F0400088F0400088F040008E4
:1000B0008F0400088F0400088F0400088F040008D4
:1000C0008F0400088F0400088F0400088F040008C4
:1000D0008F0400088F0400084F96000883970008DB
:1000E0008F0400088F0400088F0400088F040008A4
:1000F0008F0400088F0400088F0400088F04000894
:100100008F0400088F0400088F0400088F04000883
:100110008F0400088F040008A92E00088F0400082F
:100120008F0400088F0400088F0400088F04000863
:1001300000F002F800F081F80AA090E8000C824478
:100140008344AAF10107DA4501D100F076F8AFF255
:10015000090EBAE80F0013F0010F18BFFB1A43F0A5
:1001600001031847D0370200F037020010F8013BB6
:100170000A4413F0030408BF10F8014B1D1108BF17
:1001800010F8015B641E05D010F8016B641E01F8C5
:10019000016BF9D1002D15D010F8014B03F00C03C1
:1001A0000C2BA1EB04040ABF10F8013BA4EB831451
:1001B000A4EB032405F1010314F8016B5B1E01F8A5
:1001C000016BF9D5914238BF10F8013BD1D370478C
:1001D0000023002400250026103A28BF78C1FBD850
:1001E000520728BF30C148BF0B60704767291BF01A
:1001F000BC87692918F06485642918F0618578291D
:1002000018F09A85732919F02E83002070471FB5C6
:100210009DE8030019F05CF819F050FE040000207E
:1002200000211BF041F9401C6060002000211BF000
:1002300051F9E0601FBD10B510BD1AF06EF91146FE
:10024000FFF7E5FF00F014F81AF0CCFB03B4FFF75A
:10025000F2FF03BC03F0D6FA80F308887047024827
:1002600002490160FEE700000CED00E00100FA0524
:1002700002F06AFF01E002F0FBFFFCE7704700BFFD
:10028000FEE700BFFEE700BFFEE700BFFEE77047E6
:10029000704770470CB50020019000906C480068D2
:1002A00040F480306A49086000BF6948006800F483
:1002B000003000900198401C0190009818B90198F6
:1002C000B0F5A06FF1D16248006800F4003010B1C1
:1002D0000120009001E0002000900098012843D107
:1002E0005C48006840F010005A4908600846006801
:1002F00020F0030008600846006840F00200086033
:10030000534840685249486008464068486008467B
:10031000406840F4806048600846406820F47C10E3
:1003200048600846406840F4E810486008460068A5
:1003300040F08070086000BF4548006800F0007021
:100340000028F9D04248406820F003004049486046
:100350000846406840F00200486000BF3C484068E2
:1003600000F00C000828F9D10CBD10B5FFF792FF82
:1003700010BD10B53648006840F0010034490860EF
:1003800008464068344908403149486008460068DA
:10039000324908402E4908600846006820F4802051
:1003A00008600846406820F4FE0048604FF41F00D3
:1003B0008860FFF7DAFF4FF000602949086010BD40
:1003C00010B5002100200022214B5B6803F00C01D6
:1003D00021B1042906D0082928D107E0214B224C5D
:1003E000236027E01F4B204C236023E0184B5B6801
:1003F00003F47010164B5B6803F48032022303EBA6
:10040000904022B9194B4343174C23600DE0104B29
:100410005B6803F4003323B1144B4343124C236055
:1004200003E0104B4343104C236003E00D4B0E4C94
:10043000236000BF00BF064B5B68C3F303130C4C83
:10044000E15C094B1B68CB40074C236010BD0000EA
:1004500000100240002002400000FFF8FFFFF6FEFF
:1004600008ED00E000127A000000002000093D00C5
:10047000040000200948804709480047FEE7FEE7DE
:10048000FEE7FEE7FEE7FEE7FEE7FEE7FEE7FEE744
:1004900004480549054A064B7047000073030008ED
:1004A00031010008F0B30020F0B90020F0B50020C1
:1004B000F0B5002031490143314A1160704770B5F1
:1004C000002100230F22C47804B32D4C246804F4C7
:1004D000E064C4F5E064210AC1F10403CA40447831
:1004E00004FA03F18478144021430901254C06786D
:1004F000A155047804F01F050124AC4005786D1166
:10050000AD0005F1E025C5F8004109E0047804F0EC
:100510001F050124AC401C4D0678761145F8264095
:1005200070BD1A4A0A400243154B1B1F1A607047E0
:1005300039B1134A121D12680243114B1B1D1A6078
:1005400006E00F4A121D126882430D4B1B1D1A60F4
:100550007047042808D14FF0E021096941F00401F7
:100560004FF0E022116107E04FF0E021096921F02E
:1005700004014FF0E0221161704700000000FA050D
:100580000CED00E000E400E080E100E080FFFF1FF0
:1005900010B5012001F03CF8002001F039F810BD41
:1005A0002A49086070472949091F08607047274990
:1005B00084310860704701460020254A10884FF6B4
:1005C0007F4210400843224A1080704701460020B5
:1005D0001F4A10884FF68072104008431C4A108052
:1005E000704708B500220092194A2C3A0092009AEE
:1005F00002440092009A116008BD08B5014600202F
:10060000009013482C3800900098084400900098FF
:10061000008808BD0D489C300068C0B270470C4887
:100620000830008840F0010009490831088070470F
:100630000648A0300068C0B27047054808300088FE
:1006400040F00200024908310880704704860D42DC
:100650002C6C004001684FF6FE72114001600021D1
:10066000016041608160C1608D49884208D18C4938
:100670000839496841F00F01894A083A51608AE017
:1006800087491431884208D185490839496841F0C1
:10069000F001834A083A51607DE08149283188425F
:1006A00008D17F490839496841F470617C4A083AA9
:1006B000516070E07A493C31884208D17849083964
:1006C000496841F47041764A083A516063E07449E0
:1006D0005031884208D172490839496841F4702183
:1006E0006F4A083A516056E06D496431884208D13A
:1006F0006B490839496841F47001694A083A516008
:1007000049E067497831884208D165490839496824
:1007100041F07061624A083A51603CE061498842A8
:1007200006D1011F096841F00F01021F116032E07C
:100730005C491431884208D15A49091F096841F0BF
:10074000F001584A121F116025E0564928318842AD
:1007500008D15449091F096841F47061514A121FB8
:10076000116018E04F493C31884208D14D49091FBA
:10077000096841F470414B4A121F11600BE049496E
:100780005031884207D14749091F096841F4702157
:10079000444A121F1160704710B50022026847F6E4
:1007A000F0739A430C6A8B6823430C6923434C69AA
:1007B00023438C692343CC6923434C6A23438C6ACB
:1007C00023431A430260CB6843600B6883604B6825
:1007D000C36010BD0021016041608160C1600161A2
:1007E00041618161C161016241628162704721B1F1
:1007F000026842F00102026004E002684FF6FE73F4
:100800001A40026070471AB103680B43036002E0AC
:1008100003688B4303607047416070470146486836
:1008200080B2704701460020002201F080531BB1C6
:100830001C4B083B1A6802E0194B083B1A6802EA95
:1008400001030BB1012000E00020704700F080514F
:1008500019B11449091F086002E0114908394860BC
:10086000704701460020002201F080531BB10D4B60
:10087000083B1A6802E00A4B083B1A6802EA0103C7
:100880000BB1012000E00020704700F0805119B149
:100890000449091F086002E00149083948607047AF
:1008A000080002400804024001460020FE4A106889
:1008B00000F03800084310607047FB49096821F0D8
:1008C0000801F94A11601146096801431160704737
:1008D000F549096821F01001F34A116011460968D1
:1008E000014311607047F148EF494860F0484860A3
:1008F0007047EE48EC494860ED4848607047EA4868
:10090000006940F08000E84908617047E6480069E6
:1009100040F08000E449086170470420E249C9685A
:1009200001F0010109B101200EE0DF49C96801F0C1
:10093000040109B1022007E0DB49C96801F0100198
:1009400009B1032000E00420704700B502460423EB
:10095000FFF7E3FF034603E0FFF7DFFF0346521E06
:10096000012B01D1002AF7D102B90523184600BD99
:1009700030B5044604254FF43020FFF7E6FF054666
:10098000042D17D1C848006940F00200C64908612B
:1009900008464461006940F0400008614FF430208F
:1009A000FFF7D3FF0546C048006941F6FD710840D6
:1009B000BD490861284630BD10B504244FF43020ED
:1009C000FFF7C3FF0446042C16D1B748006940F076
:1009D0000400B54908610846006940F0400008611C
:1009E0004FF43020FFF7B1FF0446AF48006941F6ED
:1009F000FB710840AC490861204610BD00B50246B5
:100A00000423FFF78AFF034603E0FFF786FF034650
:100A1000521E012B01D1002AF7D102B90523184635
:100A200000BD10B504244FF43020FFF7E7FF044663
:100A3000042C16D19C48006940F004009A490861D2
:100A40000846006940F0400008614FF43020FFF78D
:100A5000D5FF04469448006941F6FB71084092496D
:100A60000861204610BD00208F49C96901F00201CC
:100A700009B1012000E00020704730B5A52504240D
:100A8000FFF7F1FF00B100254FF43020FFF75DFFC5
:100A90000446042C3AD1854883498860844888609C
:100AA0000846006940F0200008610846006940F0EF
:100AB000400008614FF43020FFF747FF0446042C44
:100AC0001BD17948006941F6DF7108407649086119
:100AD0000846006940F01000086176480580E00291
:100AE000FFF733FF0446052C10D06F48006941F62C
:100AF000EF7108406C49086108E0052C06D06A488F
:100B0000006941F6EF71084067490861204630BD31
:100B100078B506460C46042500200090E802FFF751
:100B200014FF0546042D24D15F48006940F0010000
:100B30005D4908613480E802FFF707FF0546042D90
:100B400010D1B01C0090200C00990880E802FFF73B
:100B5000FCFE05465448006941F6FE7108405249C2
:100B6000086106E05048006941F6FE7108404E49B0
:100B70000861284678BD70B504460D460426F0028B
:100B8000FFF7E3FE0646042E11D14748006940F006
:100B90000100454908612580F002FFF7D6FE0646B0
:100BA0004148006941F6FE7108403F4908613046FE
:100BB00070BD70B505460E460424E002FFF7C5FE81
:100BC0000446042C17D13948374988603848886072
:100BD0000846006940F0100008612E80E002FFF72F
:100BE000B4FE0446052C06D02F48006941F6EF718B
:100BF00008402D490861204670BD2DE9F0430446A8
:100C00004FF6FF763746B046B1460425E443E6B2D8
:100C1000C4F30727C4F307484FEA1469E802FFF753
:100C200094FE0546042D49D120481F49886020487C
:100C300088600846006940F010000861FF2E06D069
:100C40001C4808300680E802FFF77FFE0546042DA9
:100C500008D1FF2F06D017480A300780E802FFF7B7
:100C600074FE0546042D0AD1B8F1FF0F07D01148D4
:100C70000C30A0F80080E802FFF767FE0546042D5F
:100C80000AD1B9F1FF0F07D00A480E30A0F8009042
:100C9000E802FFF75AFE0546052D0FD0024800690D
:100CA00041F6EF71084007E000200240230167454C
:100CB000AB89EFCD00F8FF1F664908612846BDE803
:100CC000F08330B5054604244FF43020FFF73DFE95
:100CD0000446042C41D160485E4988605F488860C2
:100CE0000846006940F0200008610846006940F0AD
:100CF000400008614FF43020FFF727FE0446042C23
:100D000022D15448006941F6DF7108405149086119
:100D10000846006940F0100008611DB100205049EC
:100D2000088002E0A5204E4908804FF43020FFF7EC
:100D30000CFE0446052C10D04648006941F6EF71C0
:100D400008404449086108E0052C06D04148006984
:100D500041F6DF7108403F490861204630BDF0B5DB
:100D600005460E46174604243B483A4988603B48EE
:100D70008860E002FFF7E9FD0446042C19D13548EC
:100D8000006940F010003349086147F0F800304333
:100D900028433349891C0880E002FFF7D6FD04464A
:100DA000052C06D02B48006941F6EF71084029490F
:100DB00008612046F0BD2748C06980087047254873
:100DC000006A704700202349096801F0200109B139
:100DD000012000E00020704729B11E4A1269024339
:100DE0001C4B1A6104E01B4A12698243194B1A61B9
:100DF000704701460020012908D1164AD26902F045
:100E000001020AB1012008E0002006E0114AD26880
:100E10000A400AB1012000E0002070470D49C86077
:100E2000704704200B49C96801F0010109B1012094
:100E30000EE00849C96801F0040109B1022007E089
:100E40000449C96801F0100109B1032000E0042041
:100E5000704700000020024023016745AB89EFCDB9
:100E600000F8FF1F10B50446CC48844208D1012188
:100E7000042000F0B3FB0021042000F0AFFB46E0AB
:100E8000C748844208D10121082000F0A7FB0021B7
:100E9000082000F0A3FB3AE0C248844208D10121B7
:100EA000102000F09BFB0021102000F097FB2EE0AB
:100EB000BD48844208D10121202000F08FFB002191
:100EC000202000F08BFB22E0B848844208D10121A9
:100ED000402000F083FB0021402000F07FFB16E063
:100EE000B348844208D10121802000F077FB002123
:100EF000802000F073FB0AE0AE48844207D1012154
:100F0000801500F06BFB0021A01500F067FB10BD01
:100F100010B50121084600F061FB0021012000F01E
:100F20005DFB10BD2DE9F0410246002500260020A2
:100F300000230024002791F803C00CF00F0591F85E
:100F400003C00CF0100CBCF1000F03D091F802C0EC
:100F50004CEA050591F800C0BCF1000F31D01468CF
:100F600000202BE04FF0010C0CFA00F3B1F800C0A8
:100F70000CEA03069E4220D183004FF00F0C0CFABE
:100F800003F7BC4305FA03FC4CEA040491F803C0E0
:100F9000BCF1280F06D14FF0010C0CFA00FCC2F88E
:100FA00014C00AE091F803C0BCF1480F05D14FF01E
:100FB000010C0CFA00FCC2F810C0401C0828D1D368
:100FC0001460B1F800C0BCF1FF0F34DD546800209C
:100FD0002EE000F1080C4FF0010808FA0CF3B1F80C
:100FE00000C00CEA03069E4221D183004FF00F0C93
:100FF0000CFA03F7BC4305FA03FC4CEA040491F82D
:1010000003C0BCF1280F05D100F1080C08FA0CF858
:10101000C2F8148091F803C0BCF1480F07D100F169
:10102000080C4FF0010808FA0CF8C2F81080401CB8
:101030000828CED35460BDE8F0814FF6FF710180DF
:10104000022181700421C17070470246002093681C
:101050000B400BB1012000E000207047014688687A
:1010600080B2704702460020D3680B400BB10120CC
:1010700000E0002070470146C86880B270470161F7
:101080007047416170470AB1016100E041617047FA
:10109000C16070474FF480320A438261816182618E
:1010A00082698269704702460020434B18684FF6F8
:1010B0008073184040EA021008433F4B18607047A5
:1010C0003E49C8617047F0B50A460023002400215C
:1010D000002500F00046B6F1004F02D1364EF1690E
:1010E00001E0354E7168C0F3034583B200F4401649
:1010F000B6F5401F08D121F070612F4E766826F0BA
:1011000070662D4F7E6012E000F48016B6F5801FE9
:1011100006D1032606FA05F4A14341F0706106E00A
:10112000460D360103FA06F6B14341F0706122B173
:10113000460D360103FA06F6314300F00046B6F1DB
:10114000004F02D11C4EF16101E01B4E7160F0BDF9
:1011500030B500228B071C0F0F2303FA04F2164B45
:1011600008338C1053F824309343134C08348D10FB
:1011700044F8253023468C1053F824308C07240F74
:1011800000FA04F423430C4C08348D1044F8253045
:1011900030BD0A49DC31086070470000000801409A
:1011A000000C0140001001400014014000180140F3
:1011B000001C0140002001400000014000002042CE
:1011C0000E49086070470D49486070470B498860B8
:1011D00070474AF6AA200949086070474CF6CC408F
:1011E00006490860704701460020044AD2680A4058
:1011F0000AB1012000E000207047000000300040EC
:1012000010B50121080700F0F6F900214FF08050D9
:1012100000F0F1F910BD2A490862704728490861B9
:10122000704701460020274A106820F0E00008437C
:10123000106070472249A0310860704710B502461F
:101240000020204B186820F00300104318601E4B4C
:101250001B6843F004031C4C2360012901D130BFFB
:1012600000E020BF184B1B6823F00403164C2360DA
:1012700010BD1448006840F0040012490860084698
:10128000006840F0020008600F48006840F0040069
:101290000D49086000BF00BF30BF70470146002005
:1012A000084A52680A400AB1012000E00020704755
:1012B0000449096841EA8001024A11607047000050
:1012C00000000E420070004010ED00E0DF480068B2
:1012D00040F00100DD49086008464068DC490840EC
:1012E000DA49486008460068DA490840D74908608A
:1012F0000846006820F4802008600846406820F412
:10130000FE0048604FF41F0088607047CF490968AD
:1013100021F48031CD4A11601146096821F4802101
:101320001160B0F5803F03D0B0F5802F0ED106E0FC
:10133000C649096841F48031C44A116007E0C349D5
:10134000096841F4A021C14A116000E000BF00BF5C
:10135000704710B501460022002300204A11012ADF
:1013600002D1BA4C236806E0022A02D1B74C236AA4
:1013700001E0B64C636A01F01F02012494401C4056
:101380000CB1012000E0002010BD38B50020009015
:101390000024002500BF3120FFF7DBFF0546009841
:1013A000401C00900098B0F5A06F01D0002DF2D045
:1013B0003120FFF7CEFF08B1012400E000242046D1
:1013C00038BD01460020A14A106820F0F80040EA2C
:1013D000C10010607047A0490860704702460020B5
:1013E0009A4B586820F47C1042EA01031843974B4B
:1013F0005860704798490866704701460020934A34
:10140000506820F003000843506070478F484068E0
:1014100000F00C007047014600208C4A506820F014
:10142000F00008435060704701460020874A50682A
:1014300020F4E06008435060704701460020834A72
:10144000506820F4605040EAC1005060704729B1F4
:101450007E4A527A02437D4B5A7204E07B4A527AAA
:1014600082437A4B5A7270477B49D8310860704783
:1014700001460020754A506820F4404008435060FF
:1014800070470021714A20321170704A82F8201092
:10149000012802D004280AD104E001216B4A20323D
:1014A000117005E00521694A2032117000E000BF8B
:1014B00000BF70476949086070476449096A014381
:1014C000624A11627047654944390860704730B517
:1014D00000210022002400235C4D6D6805F00C0102
:1014E00021B1042905D0082923D105E05C4D056010
:1014F00022E05B4D05601FE0544D6D6805F47012ED
:10150000524D6D6805F48034022505EB92421CB9FA
:10151000544D554305600BE04C4D6D6805F40035A6
:101520001DB1504D5543056002E04D4D55430560DA
:1015300002E04B4D056000BF00BF444D6D6805F0F3
:10154000F0010909484D6B5C0568DD4045603F4D81
:101550006D6805F4E061090A434D6B5C4568DD4048
:1015600085603A4D6D6805F46051C90A3E4D6B5C6B
:101570004568DD40C560354D6D6805F44041890B17
:101580003A4D6B5CC568B5FBF3F5056130BD29B11B
:101590002E4A526902432D4B5A6104E02B4A52698C
:1015A00082432A4B5A61704729B1284A9269024303
:1015B000264B9A6104E0254A92698243234B9A6143
:1015C000704729B1214AD2690243204BDA6104E015
:1015D0001E4AD26982431D4BDA61704729B11B4A0A
:1015E000D2680243194BDA6004E0184AD268824399
:1015F000164BDA60704729B1144A12690243134B43
:101600001A6104E0114A12698243104B1A61704753
:1016100012494039086070470F49C86470470B4948
:10162000C87170470948406A40F0807007494862B5
:10163000704701460020054A92680A400AB101201D
:1016400000E0002070470149887270470010024096
:101650000000FFF8FFFFF6FE000042428004424215
:1016600000127A0000093D00140000202400002030
:1016700010B50446FE48844208D10121C014FFF78A
:10168000ADFF0021E014FFF7A9FFC4E0B4F1804FE3
:1016900008D101210846FFF7AEFF00210120FFF726
:1016A000AAFFB8E0F348844208D101210220FFF7E5
:1016B000A2FF00210220FFF79EFFACE0EE4884422B
:1016C00008D101210420FFF796FF00210420FFF735
:1016D00092FFA0E0E948844208D101210820FFF7E9
:1016E0008AFF00210820FFF786FF94E0E448844247
:1016F00008D101211020FFF77EFF00211020FFF705
:101700007AFF88E0DF48844208D101212020FFF7DA
:1017100072FF00212020FFF76EFF7CE0DA48844250
:1017200008D101214014FFF759FF00216014FFF791
:1017300055FF70E0D548844209D10121C804FFF764
:101740004DFF00214FF40020FFF748FF63E0D04831
:10175000844209D101210805FFF740FF00214FF421
:101760008010FFF73BFF56E0CA48844209D10121AF
:101770004805FFF733FF00214FF40010FFF72EFF5D
:1017800049E0C548844208D101214020FFF733FFDA
:1017900000214020FFF72FFF3DE0C048844208D1E0
:1017A00001218020FFF727FF00218020FFF723FF82
:1017B00031E0BB48844208D101218015FFF71BFFAF
:1017C0000021A015FFF717FF25E0B648844209D194
:1017D00001210804FFF702FF00214FF48030FFF7DA
:1017E000FDFE18E0B048844209D101214804FFF70A
:1017F000F5FE00214FF40030FFF7F0FE0BE0AB48A0
:10180000844208D101218804FFF7E8FE00214FF44B
:101810008020FFF7E3FE10BD00220288944B98421F
:101820000ED0994B98420BD0B0F1804F08D0914B1D
:10183000984205D0904B984202D0904B984204D1E8
:101840004FF68F731A404B881A438D4B984207D03E
:101850008C4B984204D04FF6FF431A40CB881A4372
:1018600002808B8883850B880385814B98420BD03F
:10187000854B984208D08B4B984205D08A4B9842B2
:1018800002D08A4B984201D10B7A038601238382CE
:10189000704770B5002400220023058C4FF6FE76B9
:1018A00035400584028C8388048B4FF68F752C405D
:1018B000B51E2C400D882C43751E2A400D892A43E5
:1018C0004D882A436A4DA8420BD06F4DA84208D0DC
:1018D000744DA84205D0744DA84202D0734DA84261
:1018E00013D14FF6F7752A404D892A434FF6FB7501
:1018F0002A408D882A434FF6FF652B404FF6FF554F
:101900002B408D892B43CD892B4383800483CD8845
:101910008586028470BD70B5002400220023058CEA
:101920004FF6EF7635400584028C8388048B48F6A9
:10193000FF752C404FF6FF452C400D884FF6FF7683
:1019400006EA05252C434FF6DF752A400D8906EA85
:1019500005152A434D8806EA05152A43444DA84239
:1019600002D0494DA8421DD14FF67F752A404D89BE
:101970004FF6FF7606EA05152A434FF6BF752A4053
:101980008D8806EA05152A434FF6FF352B404FF2A6
:10199000FF752B408D8906EA85052B43CD8906EA24
:1019A00085052B4383800483CD880587028470BD21
:1019B00070B5002400220023058C4FF6FF663540E9
:1019C0000584028C8388848B4FF68F752C404FF6EC
:1019D000FC752C400D882C434FF6FF552A400D898D
:1019E0004FF6FF7606EA05252A434D8806EA0525C7
:1019F0002A431F4DA84202D0234DA8421DD14FF2C9
:101A0000FF752A404D894FF6FF7606EA05252A43E1
:101A10004FF6FF352A408D8806EA05252A434EF603
:101A2000FF752B404DF6FF752B408D8906EA051595
:101A30002B43CD8906EA05152B4383808483CD880B
:101A40008587028470BD70B5002200230024058CB8
:101A50004EF6FF7635400584038C8488828B48F6E9
:101A6000FF752A404FF6FF452A400D8820E0000010
:101A7000002C01400004004000080040000C004021
:101A8000001000400014004000340140004C0140B0
:101A9000005001400054014000180040001C00406C
:101AA0000020004000400140004401400048014047
:101AB0004FF6FF7606EA05252A434DF6FF752B40C3
:101AC0000D8906EA05352B434D8806EA05352B437B
:101AD000FA4DA84202D0FA4DA84208D14BF6FF7544
:101AE0002C408D894FF6FF7606EA85152C438480BD
:101AF0008283CD88A0F84050038470BD828B4FF262
:101B0000FF331A408283828B4FF6FF7303EA01236F
:101B10001A4382837047F0B50C4615460022002117
:101B20000026078C4EF6FF7C07EA0C070784828BA1
:101B3000018C4FF6FF7707EA043640F6FF473A403C
:101B40004FF6FF7707EA05273A434FF6FF7707EA94
:101B500003373A43D94FB8420ED0D94FB8420BD0D1
:101B6000B0F1804F08D0D74FB84205D0D64FB84219
:101B700002D0D64FB84206D14DF6FF77394046F431
:101B80008057394305E047F6FF57394044F4805702
:101B9000394382830184F0BD828B4FF6F3731A4080
:101BA0008283828B0A4382837047F0B50C461546C8
:101BB000002200210026078C4FF6FF6C07EA0C0775
:101BC0000784828B018C4FF6FF7707EA04264FF6D5
:101BD0000C773A404FF6FF7707EA03172F433A4353
:101BE000B64FB8420ED0B64FB8420BD0B0F1804FCE
:101BF00008D0B44FB84205D0B34FB84202D0B34F6B
:101C0000B84206D14FF6FF57394046F48077394342
:101C100005E04FF2FF57394044F48077394382831F
:101C20000184F0BD028B4FF2FF331A400283028B16
:101C30004FF6FF7303EA01231A4302837047F0B59E
:101C40000C461546002200210026078C4FF6EF7C3B
:101C500007EA0C070784028B018C4FF6FF7707EA2F
:101C6000041640F6FF473A404FF6FF7707EA03377E
:101C70003A434FF6FF7707EA05273A438F4FB842BA
:101C80000ED08F4FB8420BD0B0F1804F08D08D4F9F
:101C9000B84205D08C4FB84202D08C4FB84206D122
:101CA0004FF6DF77394046F01007394305E04FF62D
:101CB0005F77394044F01007394302830184F0BD57
:101CC000028B4FF6F3731A400283028B0A4302839E
:101CD0007047F0B50C46154600220021068C4FF6E1
:101CE000FE773E400684028B018C4FF60C76324024
:101CF0007E1C06EA03162E433243704EB0420ED0CD
:101D00006F4EB0420BD0B0F1804F08D06D4EB04254
:101D100005D06D4EB04202D06C4EB04206D14FF6A7
:101D2000FD76314044F00106314305E04FF6F5768B
:101D3000314044F00106314302830184F0BD70B5A7
:101D400005460C465D4885420ED05D4885420BD065
:101D5000B5F1804F08D05B48854205D05A4885428E
:101D600002D05A48854200D100E000BF208850B917
:101D70002389A28861882846FFF7ABFFE1882846BF
:101D8000FFF79EFF25E0208804280AD12389A28836
:101D900061882846FFF753FFE1882846FFF742FF96
:101DA00017E0208808280AD12389A288618828465C
:101DB000FFF7FBFEE1882846FFF7EEFE09E02389E6
:101DC000A28861882846FFF7A6FEE1882846FFF72B
:101DD00095FE70BD2DE9F04105460C460026012711
:101DE000608808B9022600E00026A088012801D1F9
:101DF000022700E001272088A0B92389A2886188F2
:101E00002846FFF766FFE1882846FFF759FF238938
:101E10003A4631462846FFF712FFE1882846FFF789
:101E200001FF13E02389A28861882846FFF707FF96
:101E3000E1882846FFF7F6FE23893A4631462846D0
:101E4000FFF747FFE1882846FFF73AFFBDE8F0813A
:101E50000A884B881A438B881A43CB881A430B890C
:101E60001A434B891A438B891A43A0F844207047C0
:101E70004FF6FF71818000210180C1804180017295
:101E800070470021018041808180C18001814181B2
:101E90008181C181704700210180418001218180C1
:101EA0000021C18001817047002101804180818033
:101EB000C18001814181818170470000002C014077
:101EC000003401400004004000080040000C0040C5
:101ED00021B1028842F00102028004E002884FF63C
:101EE000FE731A400280704731B1B0F8442042F4CA
:101EF0000042A0F8442005E0B0F84420C2F30E02EE
:101F0000A0F8442070471AB183890B43838102E013
:101F100083898B43838170478182704741EA020342
:101F2000A0F8483070471AB183890B43838102E0DF
:101F300083898B438381704701894FF6F872114082
:101F4000018170470A46002101894FF68F731940BD
:101F500011430181704730B504460D46294620469D
:101F6000FFF7F0FF208940F00700208130BD2DE908
:101F7000F04104460D4616461F46602D06D13B46ED
:101F8000012231462046FFF75AFE05E03B4601227A
:101F900031462046FFF79DFE29462046FFF7D2FF37
:101FA000208940F007002081BDE8F08130B50C4663
:101FB00000210189C9B24FF6FF7505EA03251543D3
:101FC00025432943018130BD2DE9F04105460E46E8
:101FD00017469846002443463A4631462846FFF7BE
:101FE000E5FF2C894FF6F870044044F007044FF6E3
:101FF0008F70044044F070042C81BDE8F081F0B58E
:1020000004460D4616461F463B46324629462046A4
:10201000FFF7CCFF208940F480402081F0BD01858E
:10202000828270470A46002101884FF68F7319405B
:10203000114301807047F0B50C4615461E4600213D
:10204000002200230189028B038C4FF6F877394078
:1020500021434FF6FC473A4040F201173A434FF60E
:10206000DD773B404FF6FF7707EA06172F433B43E8
:10207000018102830384F0BD0A460021018B4FF6E3
:102080008F7319401143018370470A460021018B69
:1020900048F6FF7319404FF6FF7303EA0223194312
:1020A000018370470A460021818B4FF68F731940D8
:1020B0001143818370470A460021818B48F6FF73E4
:1020C00019404FF6FF7303EA0223194381837047D7
:1020D00021B1028842F08002028004E002884FF6BB
:1020E0007F731A400280704721B1828842F0040257
:1020F000828004E082884FF6FB731A40828070472A
:1021000021B1828842F00802828004E082884FF682
:10211000F7731A408280704721B1828842F0010231
:10212000828004E082884FF6FE731A4082807047F6
:102130000A460021018B4FF6F773194011430183C2
:1021400070470A460021018B4FF2FF7319404FF68A
:10215000FF7303EA02231943018370470A460021F3
:10216000818B4FF6F77319401143818370470A46FC
:102170000021818B4FF2FF7319404FF6FF7303EA82
:1021800002231943818370470A460021018B4FF6D1
:10219000FB7319401143018370470A460021018BEC
:1021A0004FF6FF3319404FF6FF7303EA022319433A
:1021B000018370470A460021818B4FF6FB7319405B
:1021C0001143818370470A460021818B4FF6FF330C
:1021D00019404FF6FF7303EA0223194381837047C6
:1021E0000A460021018B4FF67F731940114301838A
:1021F00070470A460021018BC1F30E014FF6FF73B1
:1022000003EA02231943018370470A460021818BA8
:102210004FF67F7319401143818370470A460021AE
:10222000818BC1F30E014FF6FF7303EA02231943BA
:10223000818370470A460021018C4FF6FD731940D7
:102240001143018470470A460021018C4FF6F77351
:1022500019401143018470470A460021018C4FF652
:10226000DF7319404FF6FF7303EA02131943018429
:1022700070470A460021018C4FF67F7319404FF6D4
:10228000FF7303EA02131943018470470A460021D1
:10229000018C4FF6FF5319404FF6FF7303EA0223F8
:1022A0001943018470470A460021018C4FF2FF73E5
:1022B00019404FF6FF7303EA022319430184704764
:1022C0000A460021018C4DF6FF7319404FF6FF734B
:1022D00003EA023319430184704730B50023012417
:1022E0008C40A3B2048C9C430484048C02FA01F554
:1022F000ADB22C43048430BD30B5002304248C409F
:10230000A3B2048C9C430484048C02FA01F5ADB2A0
:102310002C43048430BD70B50346002000241846C9
:10232000183001258D40ACB21D8CA5431D8409B128
:10233000082909D100EB6100056825F070050560EA
:102340000568154305600EE00D1FC5F34E052844D2
:10235000056825F4E045056005684FF6FF7606EA56
:1023600002263543056070BD21B1028842F00202A9
:10237000028004E002884FF6FD731A400280704725
:1023800021B1028842F00402028004E002884FF684
:10239000FB731A400280704721B1828842F08002AC
:1023A000828004E082884FF67F731A4082807047F3
:1023B00002884FF6F7731A40028002880A430280AF
:1023C000704782884FF68F731A40828082880A4352
:1023D0008280704702894FF6F8731A4002810289A1
:1023E0000A430281704702894FF67F731A400281C7
:1023F00002890A4302817047818470478185704752
:10240000818670470187704781877047A0F8401028
:10241000704702884FF6FF431A40028002880A4341
:10242000028070470146888E70470146088F7047CA
:102430000146888F70470146B1F840007047014659
:10244000888C70470146088D704702460020138A29
:102450000B400BB1012000E000207047CA4302820C
:10246000704730B50246002000230024158A05EA93
:102470000103958905EA010413B10CB1012000E0C4
:10248000002030BDCA4302827047000010B50446E8
:10249000FB48844209D101218803FFF79FF80021FE
:1024A0004FF48040FFF79AF832E0F648844209D1B1
:1024B00001214804FFF79FF800214FF40030FFF797
:1024C0009AF825E0F048844209D101218804FFF7F9
:1024D00092F800214FF48020FFF78DF818E0EB48C8
:1024E000844209D10121C804FFF785F800214FF487
:1024F0000020FFF780F80BE0E548844208D1012175
:102500000805FFF778F800214FF48010FFF773F803
:1025100010BD2DE9F04786B005460E460024A246C0
:1025200000BFA1460027B08900B100BF2F462C8A0A
:102530004CF6FF700440F08804432C82AC894EF6C0
:10254000F3100440B088318908437189084304437B
:10255000AC81AC8A4FF6FF400440B0890443AC82A2
:1025600001A8FEF7B4FFC648874202D1DDF810A0EB
:1025700001E0DDF80CA0A88900F4004040B10AEBAE
:10258000CA0000EB0A1031684900B0FBF1F807E01F
:102590000AEBCA0000EB0A1031688900B0FBF1F8C1
:1025A0006420B8FBF0F004012009642101FB1089CC
:1025B000A88900F4004040B1322000EBC900B0FB14
:1025C000F1F000F00700044308E0322000EB0910AE
:1025D0006421B0FBF1F000F00F0004432C8106B041
:1025E000BDE8F0874FF41651016000218180C18061
:1025F00001810C21418100218181704710B5024683
:102600000020108A4FF2FF0318400B884C882343A8
:102610008C882343CC8823431843108210BD0021AB
:10262000018041808180C180704721B1828942F45C
:102630000052828104E082894DF6FF731A40828144
:102640007047F0B50346002400260025002040F620
:102650006A17B94200D100BF1846C1F3421401F015
:102660001F06012707FA06F5012C01D10C3004E002
:10267000022C01D1103000E014301AB107682F434A
:10268000076002E00768AF430760F0BD1AB1838AB4
:102690000B43838202E0838A8B4383827047028AE2
:1026A0004FF6F0731A400282028A0A430282704790
:1026B00082894FF2FF731A40828182890A438281A4
:1026C000704721B1828942F00202828104E082894E
:1026D0004FF6FD731A4082817047028A4FF6DF730E
:1026E0001A400282028A0A430282704721B1028A9A
:1026F00042F48042028204E0028A4BF6FF731A40E1
:1027000002827047C1F308028280704701468888C0
:10271000C0F308007047818941F001018181704751
:10272000028BD2B20283028B42EA012202837047FB
:10273000028B02F47F420283028B0A4302837047BA
:1027400021B1828A42F02002828204E0828A4FF61E
:10275000DF731A408282704721B1828A42F01002F0
:10276000828204E0828A4FF6EF731A4082827047B9
:1027700021B1828A42F00802828204E0828A4FF606
:10278000F7731A408282704721B1828942F4004275
:10279000828103E08289C2F30E028281704721B1F7
:1027A000828A42F40062828204E0828A4FF2FF73DE
:1027B0001A4082827047828A4FF6FB731A408282E7
:1027C000828A0A438282704721B1828A42F00202E1
:1027D000828204E0828A4FF6FD731A40828270473B
:1027E00002460020B1F5007F00D100BF13880B40E6
:1027F0000BB1012000E00020704701F40072B2F537
:10280000007F00D100BFCA430280704770B5024606
:10281000002400230025002040F66A16B14200D1B2
:1028200000BFC1F3421501F01F03012606FA03F3AE
:10283000012D02D19689334006E0022D02D1168A7D
:10284000334001E0968A33400C12012606FA04F464
:102850001688344013B10CB1012000E0002070BD97
:1028600010B50022002340F66A14A14200D100BF37
:102870000A1201249440A3B2DC43048010BD00007E
:10288000003801400044004000480040004C004037
:102890000050004010B50446FA48844208D1012196
:1028A0004015FEF79BFE00216015FEF797FE17E02E
:1028B000F548844208D101210015FEF78FFE002162
:1028C0002015FEF78BFE0BE0F048844208D1012171
:1028D000C803FEF783FE00214FF40040FEF77EFEA2
:1028E00010BD30B50246002000235068E84C20405F
:1028F0000D790C6844EA0524204350609068E54C4B
:102900002040D1E902542C434D7944EA4504204348
:102910009060D06A20F470000C7C641EE4B2234303
:1029200040EA0350D06230BD002101600171417165
:102930008160C16001210174704721B1826842F059
:102940000102826003E0826822F001028260704727
:1029500021B1826842F48072826003E0826822F4CE
:1029600080728260704710B50023CBB21AB1446800
:102970001C43446002E044689C43446010BD81688D
:1029800041F0080181607047014600208A6802F02A
:1029900008020AB1012000E000207047816841F080
:1029A000040181607047014600208A6802F0040239
:1029B0000AB1012000E00020704721B1826842F492
:1029C000A002826003E0826822F4A0028260704765
:1029D000014600208A6802F480020AB1012000E06A
:1029E0000020704710B50A4600210023416821F4F9
:1029F0006041531E41EA4331416010BD21B142683C
:102A000042F40062426003E0426822F400624260E5
:102A10007047F0B504460D4600200021092D11DD58
:102A2000E068A5F10A0606EB4607072606FA07F155
:102A30008843A5F10A0606EB460603FA06F10843A9
:102A4000E0600CE0206905EB4507072606FA07F170
:102A5000884305EB450603FA06F108432061072A7F
:102A60000FDA606B561E06EB86071F2606FA07F183
:102A70008843561E06EB860605FA06F10843606396
:102A800022E00D2A0FDA206BD61F06EB86071F26E1
:102A900006FA07F18843D61F06EB860605FA06F10B
:102AA0000843206310E0E06AA2F10D0606EB8607FA
:102AB0001F2606FA07F18843A2F10D0606EB8606EB
:102AC00005FA06F10843E062F0BD21B1826842F4E4
:102AD0008012826003E0826822F480128260704774
:102AE0000146C86C80B2704766484C300068704739
:102AF00021B1426842F48062426003E0426822F4FD
:102B000080624260704721B1426842F48052426064
:102B100003E0426822F48052426070470A46002176
:102B2000816821F4E04111438160704721B18268DE
:102B300042F40042826003E0826822F40042826034
:102B4000704721B1826842F40212826003E0826819
:102B500022F4021282607047014600208A6802F463
:102B600000120AB1012000E000207047F0B50446D1
:102B70001546002000220026092911DDE068A1F198
:102B80000A0707EB470C072707FA0CF29043A1F15D
:102B90000A0707EB470703FA07F21043E0600CE06F
:102BA000206901EB410C072707FA0CF2904301EB77
:102BB000410703FA07F210432061A06BC0F30156EE
:102BC000EF1C06F1010CA7EB0C0707EB870C1F2786
:102BD00007FA0CF29043EF1C06F1010CA7EB0C076F
:102BE00007EB870701FA07F21043A063F0BD10B5A9
:102BF0000A4600210023816B21F44011531E41EA53
:102C00000351816310BD08B5002300930090009B21
:102C10000B440093009B1A6008BD08B502460020D3
:102C20000090009201F12800009B18440090009849
:102C3000006880B208BD0A4600214168164B194061
:102C40001143416070474162826270470A46002129
:102C5000416821F01F0111434160704740B10949AB
:102C60000831096841F40001064A0832116007E0A2
:102C700004490831096821F40001024A0832116050
:102C8000704700000024014000280140003C014042
:102C9000FFFEF0FFFDF7F1FFFFFD3FFF02460020C2
:102CA00013680B400BB1012000E000207047CA43BD
:102CB0000260704770B502460020002300240B120A
:102CC0005568CEB205EA060415681D4015B10CB171
:102CD000012000E0002070BD00220A12D3430360EF
:102CE0007047000029B1504A128802434E4B1A80A7
:102CF00004E04D4A128882434B4B1A8070474A4881
:102D0000001D008840F010004749091D08807047E9
:102D10004548001D00884FF6EF7108404249091DE3
:102D200008807047002140481C300188001F00883F
:102D300041EA0040704700B50246FFF7E0FF100C83
:102D4000394918310880091D0A80FFF7E1FF00BDED
:102D500000B50246FFF7D3FFC2F303403249083102
:102D60000880091D0A80FFF7D3FF00BD00B50246A9
:102D7000FFF7C5FF100C2C4920310880091D0A807F
:102D8000FFF7C6FF00BD0020274910310988090759
:102D9000080B2549143109880843704700BF2248B1
:102DA000001D008800F020000028F8D070471E4861
:102DB000001D00884FF6F77108401B49091D088067
:102DC00000BF1948001D008800F008000028F8D056
:102DD000704701460020144A121D12880A400AB1A9
:102DE000012000E0002070470F49091D0988814338
:102DF0000D4A121D11807047014600200A4A121D1B
:102E000012880A40D0B2084A12880A4012B108B1AA
:102E1000012000E0002070470349091D0988814313
:102E2000014A121D118070470028004030BF7047D2
:102E300072B6704762B6704710B54FF4A060FDF7E8
:102E400039FB10BD7FB505460C4601211020FEF769
:102E5000B8FBADF80850ADF804400020ADF80A000A
:102E6000ADF8060001A91948FEF7D6FC012211466B
:102E70001648FFF748F836208DF8000003208DF83B
:102E800001008DF8020001208DF803006846FDF76F
:102E900016FB01210D48FFF71BF800200C490860C4
:102EA0007FBD0B490860704710B501210748FFF747
:102EB000D8FA012805D10648006810B10448006816
:102EC000804701210148FFF7DDFA10BD00100040E6
:102ED0002800002010B56FF00400FDF73AFB4FF01A
:102EE000E020006940F002004FF0E021086142F26A
:102EF000283048610846006940F00100086110BDB3
:102F0000F0B504460D4600212AE001EB81008B4E0E
:102F100056F8200010BB01EB810046F8204001204C
:102F200001EB8106854F07EB8606707401EB81008B
:102F30003E4606EB8000456001EB810006EB800019
:102F4000826001EB810006EB80000374002001EB3E
:102F5000810607EB8606F0600846F0BD481CC1B24A
:102F60001E29D2DBFF20F8E710B50146002027E03C
:102F700000EB8002714B53F822208A421ED10022BE
:102F800000EB80036D4C44F8232000EB800304EB3E
:102F900083035A7400EB800304EB83035A6000EB55
:102FA000800304EB83039A6000EB800304EB83034C
:102FB0001A7400EB800304EB8303DA60421CD0B286
:102FC0001E28D5DB10BD002100EB80025B4B43F8CF
:102FD000221000EB800203EB8202517400EB8002AE
:102FE00003EB8202516000EB800203EB82029160EE
:102FF00000EB800203EB8202117400EB800203EB12
:103000008202D1607047002048E000EB80014B4A0B
:1030100002EB8101097CE9BB00EB800102EB81013D
:10302000497C012938D100EB800102EB8101C9689C
:1030300081BB00EB800102EB8101496859B100EBD3
:10304000800102EB81014968491E00EB80023B4B85
:1030500003EB8202516000EB8001384A02EB8101F0
:103060004968B9B9012100EB8002344B03EB8202BD
:10307000D16000EB80011A4602EB8101896849B1F9
:1030800000EB800102EB8101896800EB800203EB19
:10309000820200E000E05160411CC8B21E28B4DB8F
:1030A000704710B5002440E004EB8400234901EB95
:1030B0008000407C012836D104EB840051F82000C8
:1030C00088B304EB840001EB8000007C012806D16A
:1030D00004EB8401194A52F82100804723E004EBF5
:1030E0008400164901EB8000007CE0B904EB840009
:1030F00001EB8000C068B0B104EB84010F4A52F8C4
:1031000021008047002004EB84010C4A02EB81017E
:10311000C86004EB8400114601EB8000806810B9A0
:103120002046FFF750FF601CC4B21E2CBCDB10BD54
:1031300010B504F04AFEFFF766FF10BDC40D002075
:10314000002000210160704710B5FFF7C3FE04F0B6
:1031500019FD04F0B5FD04F07BFC06F0EDFB03F077
:10316000D1FC02F079FB04F0D6FB01F0CAFC01F0BF
:1031700068FD01F098FE02F055F901F044F811F0F5
:1031800059FB07F0BDFE05F058FD07F06EFD044643
:103190000EF03EF840F25371032000F0E3FF0123EC
:1031A0000A2211463548FFF7ABFE00230A221146DA
:1031B0003348FFF7A5FE00230A2205213148FFF717
:1031C0009FFE0123002205212F48FFF799FE0023CF
:1031D000642208212D48FFF793FE00234FF47A72F2
:1031E00005212B48FFF78CFE00230A2211462948AF
:1031F000FFF786FE00230A2211462748FFF780FECC
:1032000000230A2211462548FFF77AFE00230A22EE
:1032100011462348FFF774FE00230A221146214875
:10322000FFF76EFE0023642219461F48FFF768FE71
:1032300000230A2219461D48FFF762FE00230A22D6
:1032400005211B48FFF75CFE0123002205211948D8
:10325000FFF756FE00230A224FF4FA611648FFF7E3
:103260004FFE00230A2211461448FFF749FE10BD05
:1032700010B5FFF716FF00F08CFF10BD356B00088E
:10328000575D0008E3450008F7460008E57A0008A6
:10329000257A0008637C0008A78500087B470108A1
:1032A000EF1D0108A5150108BDD60008AD9900085D
:1032B00055D300087FD300088B5400081D8E0008EA
:1032C00070B503460C4603E014F8015B03F8015B9C
:1032D0001500A2F10102F7D170BD30B5034601E03F
:1032E00003F8011B1400A2F10102F9D130BD00B5B1
:1032F0007C494FF42072C8680021FFF7EEFF79493E
:103300004FF4A04288680021FFF7E7FF01207549CC
:10331000087400BD0022002105E07248C068405CCE
:1033200000B1521C491CB1F5207FF6D364205043F4
:103330004FF42073B0FBF3F0C0B270472DE9F041B9
:1033400006460024A0466748007C10B96549086815
:1033500080471EB94FF0FF30BDE8F0816248006839
:10336000B6FBF0F085B260480068B6FBF0F100FBF8
:10337000116008B1681C85B25C480068441E1BE0FF
:103380005848C068005D20B908F101001FFA80F8B4
:1033900001E04FF00008A8450DD1002704E0514995
:1033A000C968E2198D547F1CAF42F8D34E490968B1
:1033B00004FB01F0D0E7641E002CE1DA4FF0FF308F
:1033C000CAE770B505464748007C20B945490868FA
:1033D0008047012070BD46480068854212D24248AD
:1033E0000068B5FBF0F13F48C068425C002405E08E
:1033F00000203C4BDB680E199855641C9442F7DBA7
:103400000020E7E70220E5E72DE9F04105463548D1
:10341000007C20B9334908688047BDE8F081314815
:1034200080682E1A3248006886421ED22E4B1B68D6
:10343000B6FBF3F02B4BDB68195C2A46002402E054
:1034400000231355641C284B1B684B43A342F7D839
:10345000002407E00023234FFF6800EB040C07F86B
:103460000C30641C8C42F5DBD7E700BFD5E770B5A4
:10347000044604B970BD1B488068251AFFF7D8FCC4
:103480002046FFF7C1FFFFF7D5FC00BFF2E770B59C
:103490000546FFF7CDFC2846FFF750FF0446FFF72F
:1034A000C9FC601C08B9002070BD0E48806820442B
:1034B000FAE770B506460C462046FFF73FFF054683
:1034C000681C08B9002070BD064989684819224661
:1034D0003146FFF7F5FE3046FFF7C9FF0148806827
:1034E0002844F0E738000020300000202C000020A5
:1034F00034000020012080F3138800BF00BF65481E
:10350000006800F4E06064490843001D61490860F8
:10351000BFF3408F00BF00BFFEE72DE9F05F064616
:103520000F4690460024B3463D46A14617E0687812
:103530004FEA002A28788244AD1C2046641C574973
:1035400021F810A0B4F5806F07D100244FF48062F9
:10355000584600F0DAF80BF5006B09F10209C14595
:10356000E5D324B1A2B24D49584600F0CEF8BDE8EB
:10357000F09F10B50446206849490840B0F1005F4B
:1035800008D16068474908602068FCF765FE454837
:103590000068804710BD08B54FF6FF70009002220A
:1035A0006946414800F0B1F84048FFF7E2FF08BD26
:1035B0003E483849091F08607047F0B59BB0054682
:1035C0000E461746684600F02BF9324629466846F3
:1035D00000F0FBFC17A9684600F05CFD002409E040
:1035E000395D17A8005D814202D000201BB0F0BDFC
:1035F000601CC4B2102CF3DBFF20F7E738B504469B
:10360000221D2B482168FFF7D8FF50B10020009001
:1036100002226946244800F078F8FCF720FEFF20DB
:1036200038BD0020FCE738B50446221D204821683B
:10363000FFF7C3FF40B100200090022269461A48FC
:1036400000F063F8FF2038BD0020FCE70020194996
:10365000088019490860704710B50446208815494C
:103660000988884214D1628813490968104BC81828
:10367000211DFFF752FF0F480088401C0D490880AC
:1036800060880D49096808440B490860FF2010BD97
:103690000020FCE70CED00E00000FA059C62002031
:1036A0000000FE2F4C000020001400080018000845
:1036B00000A801085000002054000020014608889E
:1036C00070472DE9F04105460E461746002407E0F5
:1036D00036F814102846FDF74EFAAD1C601C84B273
:1036E000BC42F5DBBDE8F08130B503460C4615461B
:1036F000002207E01846FFF7E1FF24F812009B1CA8
:10370000501C82B2AA42F5DB30BD2DE9F05F804645
:103710008A461746B8F1006F02D33848804501D376
:10372000BDE8F09FFDF7DFF8A8F1006B4FEADB255D
:10373000CBF34909C9F58064A74200DC3C464EE062
:103740004FF0006101EBC5204A142D49FFF7CCFF73
:1037500000260BE009EB0600294931F810004FF66E
:10376000FF71884200D003E0701C86B2A642F1DBF4
:1037700000BFA6421BDA4FF0006101EBC520FDF748
:10378000F7F8002608E03AF8160006EB09011C4A93
:1037900022F81100701C86B2A642F4DB4FF00061E3
:1037A00001EBC5204A141649FFF78BFF04E02246BF
:1037B00051464046FFF785FFA74200D110E06D1C3F
:1037C0004FF000090AEB440A08EB4408381B87B2A3
:1037D000B7F5806F02DD4FF4806400E03C46AFE750
:1037E00000BFFDF78CF800BF9AE713B5044601222D
:1037F00001A92046FFF789FF1CBD00000000040856
:103800009C6A0020014600BF704700BF704770B53A
:1038100004460D46E1B2012005F0E1FE204670BDF0
:10382000002101604160FE498160FE4AC260CA43D6
:103830000261FC4AD2434261704770B503460024DE
:10384000002010E00E5C451C4D5D46EA0526851CF7
:103850004D5D46EA0546C51C4D5D46EA056543F8E3
:103860002450641C001D9042ECD370BD2DE9F04340
:10387000C0B080468946D8F80040D8F80450D8F83F
:103880000860D8F80C70402249466846FFF7D5FF1B
:1038900005EA060027EA0501084300990844E249C1
:1038A00008440444E00140EA54642C4404EA05005E
:1038B00026EA0401084301990844DC490844074406
:1038C000380340EA1757274407EA040025EA0701AE
:1038D000084302990844D64908440644700440EA63
:1038E000D6363E4406EA070024EA06010843039957
:1038F0000844D04908440544A80540EA95253544C4
:1039000005EA060027EA0501084304990844CA4964
:1039100008440444E00140EA54642C4404EA0500ED
:1039200026EA0401084305990844C44908440744A9
:10393000380340EA1757274407EA040025EA07013D
:10394000084306990844BE4908440644700440EA06
:10395000D6363E4406EA070024EA060108430799E2
:103960000844B84908440544A80540EA952535446B
:1039700005EA060027EA0501084308990844B24908
:1039800008440444E00140EA54642C4404EA05007D
:1039900026EA0401084309990844AC49084407444D
:1039A000380340EA1757274407EA040025EA0701CD
:1039B00008430A990844A0F524404F38064470048F
:1039C00040EAD6363E4406EA070024EA06010843E8
:1039D0000B9908449E4908440544A80540EA9525EA
:1039E000354405EA060027EA050108430C99084416
:1039F000984908440444E00140EA54642C4404EA31
:103A0000050026EA040108430D9908449249084438
:103A10000744380340EA1757274407EA040025EA19
:103A2000070108430E9908448C4908440644700471
:103A300040EAD6363E4406EA070024EA0601084377
:103A40000F990844864908440544A80540EA95258D
:103A5000354405EA070026EA0701084301990844AE
:103A6000804908440444600140EAD4642C4404EAD8
:103A7000060025EA06010843069908447A490844E5
:103A80000744780240EAD757274407EA050024EAAA
:103A9000050108430B990844744908440644B003DF
:103AA00040EA96463E4406EA040027EA0401084339
:103AB000009908446E4908440544280540EA153534
:103AC000354405EA070026EA07010843059908443A
:103AD000684908440444600140EAD4642C4404EA80
:103AE000060025EA060108430A9908446249084489
:103AF0000744780240EAD757274407EA050024EA3A
:103B0000050108430F9908445C4908440644B00382
:103B100040EA96463E4406EA040027EA04010843C8
:103B200004990844564908440544280540EA1535D7
:103B3000354405EA070026EA0701084309990844C5
:103B4000504908440444600140EAD4642C4404EA27
:103B5000060025EA060108430E9908444A4908442C
:103B60000744780240EAD757274407EA050024EAC9
:103B70000501084303990844444908440644B00336
:103B800040EA96463E4406EA040027EA0401084358
:103B9000089908443E4908440544280540EA15357B
:103BA000354405EA070026EA070108430D99084451
:103BB000384908440444600140EAD4642C4404EACF
:103BC000060025EA060108430299084432490844E0
:103BD0000744780240EAD757274407EA050024EA59
:103BE00005010843079908442C4908440644B003DA
:103BF00040EA96463E4406EA040027EA04010843E8
:103C00000C990844264908440544280540EA15351E
:103C1000354485EA0600784005990844214943E087
:103C20000123456789ABCDEF78A46AD756B7C7E8BB
:103C3000DB702024EECEBDC1AF0F7CF52AC68747CE
:103C4000134630A8019546FDD8988069AFF7448B9C
:103C5000BED75C892211906B937198FD8E4379A633
:103C60002108B44962251EF640B340C0515A5E2671
:103C7000AAC7B6E95D102FD65314440281E6A1D835
:103C8000C8FBD3E7E6CDE121D60737C3870DD5F4CE
:103C9000ED145A4505E9E3A9F8A3EFFCD9026F67D3
:103CA0008A4C2A8D4239FAFF08440444200140EA34
:103CB00014742C4484EA0500704008990844FC49B7
:103CC00008440744F80240EA5757274487EA0400AB
:103CD00068400B990844F74908440644300440EA18
:103CE00016463E4486EA070060400E990844F249B1
:103CF00008440544E80540EA5525354485EA0600B0
:103D0000784001990844ED4908440444200140EA00
:103D100014742C4484EA0500704004990844E8496E
:103D200008440744F80240EA5757274487EA04004A
:103D3000684007990844E34908440644300440EACF
:103D400016463E4486EA070060400A990844DE4968
:103D500008440544E80540EA5525354485EA06004F
:103D600078400D990844D94908440444200140EAA8
:103D700014742C4484EA0500704000990844D44926
:103D800008440744F80240EA5757274487EA0400EA
:103D9000684003990844CF4908440644300440EA87
:103DA00016463E4486EA0700604006990844CA4920
:103DB00008440544E80540EA5525354485EA0600EF
:103DC000784009990844C54908440444200140EA60
:103DD00014742C4484EA050070400C990844C049CE
:103DE00008440744F80240EA5757274487EA04008A
:103DF00068400F990844BB4908440644300440EA2F
:103E000016463E4486EA0700604002990844B649D7
:103E100008440544E80540EA5525354465EA0700AD
:103E2000704000990844B14908440444A00140EAA4
:103E300094642C4464EA0600684007990844AC493D
:103E400008440744B80240EA9757274467EA050048
:103E500060400E990844A74908440644F00340EA2C
:103E600056463E4466EA0400784005990844A24953
:103E700008440544680540EAD525354465EA07004D
:103E800070400C9908449D4908440444A00140EA4C
:103E900094642C4464EA06006840039908449849F5
:103EA00008440744B80240EA9757274467EA0500E8
:103EB00060400A990844934908440644F00340EAE4
:103EC00056463E4466EA04007840019908448E490B
:103ED00008440544680540EAD525354465EA0700ED
:103EE000704008990844894908440444A00140EA04
:103EF00094642C4464EA060068400F99084484499D
:103F000008440744B80240EA9757274467EA050087
:103F10006040069908447F4908440644F00340EA9B
:103F200056463E4466EA040078400D9908447A49B2
:103F300008440544680540EAD525354465EA07008C
:103F4000704004990844754908440444A00140EABB
:103F500094642C4464EA060068400B990844704954
:103F600008440744B80240EA9757274467EA050027
:103F70006040029908446B4908440644F00340EA53
:103F800056463E4466EA040078400999084466496A
:103F900008440544680540EAD5253544D8F80000B2
:103FA0002044C8F80000D8F804002844C8F80400E9
:103FB000D8F808003044C8F80800D8F80C00384495
:103FC000C8F80C0040B0BDE8F0832DE9F047044686
:103FD0000F4615460026B046B1462088C0F3C508F6
:103FE000C8F14009206800EBC50020602068B0EBF4
:103FF000C50F02D26068401C6060606800EB5570BD
:1040000060604D451CD304F1180101EB08004A46DD
:10401000394615F030F804F1180104F10800FFF7F3
:1040200025FC4E4605E0B91904F10800FFF71EFC17
:10403000403606F14000A842F5D94FF0000800E0F4
:104040000026AA1BB91904F1180303EB080015F0A8
:1040500012F8BDE8F08770B5034614460022002030
:1040600015E011F822501D5431F82250C5F30726EF
:10407000451C5E5551F82250C5F30746851C5E5518
:1040800051F822502D0EC61C9D55521C001DA042F9
:10409000E7D370BD2DE9FC4104460E4600250027FC
:1040A0002088C0F3C505382D40D2C5F138003FE067
:1040B00081F6718722619D6D0C38E5FD44EABEA44E
:1040C000A9CFDE4B604BBBF670BCBFBEC67E9B2843
:1040D000FA27A1EA8530EFD4051D880439D0D4D958
:1040E000E599DBE6F87CA21F6556ACC4442229F4AE
:1040F00097FF2A43A72394AB39A093FCC3595B6570
:1041000092CC0C8F7DF4EFFFD15D84854F7EA86F3C
:10411000E0E62CFE144301A3A111084E827E53F762
:1041200035F23ABDBBD2D72A91D386EBC5F17800E0
:104130000746082221466846FFF78DFF3A460849A0
:104140002046FFF742FF082269462046FFF73DFF61
:10415000102204F108013046FFF77DFFBDE8FC8125
:104160005C00002070B505460C4645F25550FDF741
:1041700027F82846FDF727F82046FDF727F8FDF732
:1041800028F8FDF72BF870BD4AF6AA20034908600D
:10419000704700B5FFF7F8FF00BD00000030004099
:1041A00070B5054600240AE02146002001F068FAB7
:1041B00081B2F94800EB44000180601CC4B2082CB5
:1041C000F2DB00240BE02146012001F059FA81B214
:1041D000F148203000EB44000180601CC4B2082C80
:1041E000F1DB00240BE02146022001F049FA81B204
:1041F000E948403000EB44000180601CC4B2082C48
:10420000F1DB70BD70470020E44981F8A10281F81C
:10421000A0024FF41670A1F88C020020A1F89202BF
:10422000A1F89002A1F88E02012081F88A020020F4
:1042300081F8880281F8A20281F8890281F8A3023C
:1042400081F8810281F88002142081F8820270478F
:1042500070477047D14890F88202704710B5044605
:10426000CE4890F8820208B9002010BDCB4991F8E1
:104270008012CA4A02EB411020222146FFF720F8A3
:10428000C64890F88002401CC44981F88002084664
:1042900090F88202401E81F88202084690F880025F
:1042A000142802D1002081F88002FF20DDE710B53C
:1042B0000446BA4890F88202142801D1002010BDAB
:1042C000B64890F88102B54A02EB40112022204600
:1042D000FEF7F6FFB14890F88102401CAF4981F823
:1042E0008102084690F88202401C81F8820208464A
:1042F00090F88102142802D1002081F88102012067
:10430000DDE7F0B589B004460D4616461F46F1B20A
:104310008DF8121000218DF8131000208DF8100078
:10432000E9B28DF8111005940797002102910391CD
:104330008DF800006846FFF791FF09B0F0BD2DE948
:10434000F04389B080460C4616461F46DDF8409083
:104350002546A9788DF81210E9788DF81310287881
:104360008DF8100069788DF81110CDF81890CDE90E
:1043700002678DF800806846FFF770FF09B0BDE85E
:10438000F083864981F8A2027047844890F8A2021F
:10439000704770B50446207C01F04CFA002848D1E3
:1043A00002207E4981F8A002207C01F017FA48BB68
:1043B0007A48B0F88C02B0F5967F51DA207C02F092
:1043C000DFFC18B9207C02F0C8FC20B1E07C401E64
:1043D000E074012070BD7148B0F88C0200283FD114
:1043E0006E4890F8A10258B101206C4981F8A002F2
:1043F000084690F8A102401E81F8A1020220E9E7D8
:104400000320E7E7207C01F0E9F90546012D0ED1F4
:10441000207C02F0B5FC18B9207C02F09EFC20B193
:10442000E07C401EE0740520D4E70420D2E706209B
:10443000D0E7207C01F0EFF9012811D1207C02F0B7
:104440009FFC18B9207C02F088FC48B1E07C401E3B
:10445000E074627CA17C207C01F0FDF80120B9E7CA
:104460000020B7E770B5044600264D48007830B10B
:10447000012811D0022828D003280CD152E00020B6
:10448000464981F8A00201204549087040F2DC50FD
:104490004249A1F8920299E0627CA17C207C01F063
:1044A000ABF888B1207C02F06BFC207C02F055FC5C
:1044B0004FF416703949A1F88C020220384908706F
:1044C0001E203649A1F8920280E0207C01F0B2F96A
:1044D000022826D1207C02F053FC207C02F03DFC17
:1044E00001F0BDFA20B12D4890F8A002012804D1B6
:1044F00000202A4981F8A10203E00120274981F820
:10450000A1020120254981F8A00203202449087056
:1045100040F2DC502149A1F892024FF41670A1F844
:104520008C0253E02046FFF734FF0546072D4BD29F
:10453000DFE805F004050E172038410044E0FF26AF
:104540000020174908701E201449A1F892023BE090
:1045500001201349087040F2DC501049A1F8920282
:1045600032E0032600200E4908701E200B49A1F8F6
:10457000920229E0627CA17C207C01F094F808B1D1
:10458000042600E001260020054908701E2003498A
:10459000A1F8920218E0000069010020A07200203A
:1045A000C901002005260020FD4908701E20FD4994
:1045B000A1F8920208E002260020F94908701E20A6
:1045C000F849A1F8920200BF00BF00BF00BFF54844
:1045D000B0F8920218B90E260020F1490870304652
:1045E00070BD00B5EF4890F8A00202280BD1ED484D
:1045F000B0F88C02002806DDEA48B0F88C02401EB4
:10460000E849A1F88C02E748B0F89602642807DA76
:10461000E448B0F89602401CE249A1F8960205E091
:10462000FFF7F0FD0020DF49A1F89602DD48B0F861
:104630009202002806DDDB48B0F89202401ED949FC
:10464000A1F89202D748B0F89002002806DDD548BC
:10465000B0F89002401ED349A1F89002D148B0F8BA
:104660008E02002806DDCF48B0F88E02401ECD49EC
:10467000A1F88E02CB48B0F89402002806DDC948A4
:10468000B0F89402401EC749A1F89402C548B0F89A
:104690009802002806DDC348B0F89802401EC149C0
:1046A000A1F89802BF48B0F89A02002806DDBD487C
:1046B000B0F89A02401EBB49A1F89A02B948B0F876
:1046C0009C02002806DDB748B0F89C02401EB549A0
:1046D000A1F89C0200BD437A00F10A0202EB8302BA
:1046E0001160427A521C427270470146487A0A228F
:1046F00002EB800070477CB5AA4890F8A2020F2810
:1047000076D2DFE800F00875C3757575755A8FF5B8
:10471000659AF4F35600A448FFF7C9FDE8B10120FB
:10472000A04981F88902A048807CA04988709E48F1
:10473000C07CC8709C48007C08709B48407C4870D6
:104740009948406948600020487208720120C1F809
:104750002A000E20FFF715FE2AE09248B0F89E02CC
:1047600010B39048B0F89C02F0B900208D49A1F830
:104770009E020CF059FDC0B100F091FB50B109F060
:1047800066F918B102200FF0CDF911E003200FF007
:10479000C9F90DE000F06BFB18B105200FF0C2F96C
:1047A00006E004200FF0BEF902E000200FF0BAF995
:1047B00086E10220FFF7E5FD82E141F658336422ED
:1047C0000121002003F080FA0A20FFF7DAFD77E1EB
:1047D000002003F09CFA20BB002003F0AFFA40B9A0
:1047E00073497248FFF777FF0220FFF7CAFD18E010
:1047F00065E16F4966316D48FFF76DFF6A48C06932
:1048000030B16A4BD3F82A105868674BDA69904781
:10481000664AD2F82A10506800F0B8FC0020FFF772
:10482000B0FD4DE141F6583364220021084603F003
:104830004BFA0B20FFF7A5FD42E1002003F067FAD9
:1048400018BB002003F07AFA38B959495748FFF7E6
:1048500042FF0220FFF795FD17E0554969315348A3
:10486000FFF739FF5048C06930B1504BD3F82A10D8
:1048700058684D4BDA6990474C4AD2F82A10506874
:1048800000F084FC0020FFF77CFD19E14648FFF7AB
:10489000E9FD04462046042C37D007DC68B1012826
:1048A0000CD0022816D0032865D122E0052838D084
:1048B0000E2845D0FF285ED14EE05CE008200FF0C6
:1048C00031F94FF497703949C1F82A000D20FFF7EC
:1048D00058FD50E008200FF025F94FF49870334947
:1048E000C1F82A000D20FFF74CFD44E045E0B8E098
:1048F000ACE008200FF016F940F22D102B49C1F85A
:104900002A000D20FFF73DFD35E008200FF00AF9E1
:104910004FF497702549C1F82A000D20FFF731FDAB
:1049200029E02249087803F0AFF807200FF0FAF8E1
:1049300002201E49C1F82A000D20FFF722FD1AE0CF
:1049400008200FF0EFF84FF497701849C1F82A00CB
:104950000D20FFF716FD0EE01449087803F094F8D7
:1049600007200FF0DFF802201049C1F82A000D20BF
:10497000FFF707FD00BF00BFA2E00B48C06930B1E0
:104980000A4BD3F82A105868074BDA699047074852
:10499000D0F82A0040F22D1188420BD101200AE004
:1049A000C9010020A0720020487500206875002011
:1049B000E0A501000020D8B1424890F8A3020228E7
:1049C00007DA404890F8A302401C3E4981F8A30250
:1049D0002AE006F0B5F8682803D16A2006F0B3F89B
:1049E00022E006F0ADF8F8B9662006F0ACF81BE05E
:1049F0003548D0F82A00022801D1012000E000202B
:104A000090B100202F4981F8A30206F099F86A2896
:104A100003D1682006F097F806E006F091F86628C2
:104A200002D1002006F08FF8274AD2F82A105068E9
:104A300000F0ACFB0020FFF7A4FC01202149A1F805
:104A40009E024FF4FA70A1F89C0239E041F6583307
:104A500064220021084603F037F90C20FFF791FC8F
:104A60002EE0002003F053F940BB002003F066F96C
:104A700020B916491448FFF72EFE04E013496931A6
:104A80001148FFF728FE1248806970B10E48FFF701
:104A90002CFE85B20E48C1688068CDE900010C4942
:104AA00008782A468B6908499847074AD2F82A109D
:104AB000506800F06BFB0020FFF763FC00E000BFD4
:104AC00000BF7CBDA072002068750020E0A5010039
:104AD0004875002010B5044614B902F0DBFC10BD87
:104AE0003A4800EBC400C079F9E710B504461CB998
:104AF00002F0D3FCC0B210BD344800EBC400807992
:104B0000F9E710B5324800F0FCF8314B9A78597843
:104B10001B7803F0010002F0C4FC04222C492B484E
:104B2000FEF7CEFB04222A49091D28480830FEF76B
:104B3000C7FB04222649083124481030FEF7C0FB89
:104B400010BD38B505460C46207820B9E278A1782A
:104B5000607802F0A6FC617820781D4A12F82000E7
:104B600061F30000217802F82100A078217802EB9F
:104B700081014870E07840B2217802EB81018870B1
:104B8000104600F0A6F861782078104A12F830003C
:104B900061F30000217802F83100A078217802EB5F
:104BA000C1014870E07840B2217802EBC101887001
:104BB00020788DF8000000208DF8020001208DF88B
:104BC000010000208DF8030038BD0000967500201C
:104BD000AE7500200146F84830F811007047F748DC
:104BE00090F8FE007047F54890F8FC007047F0B56B
:104BF0000346002400201A4600BF03E0156828443D
:104C0000121D641CB4EB910FF8D301F0030555B1EC
:104C100001F00306C6F10406F7004FF0FF36FE4030
:104C2000156835402844F0BD02460B46002104E0DB
:104C3000505C08B100207047491C9942F8D3FF200E
:104C4000F9E710B5DE48DF4908604FF43171DD48FF
:104C50000068FFF7CCFF0446DA480068D0F8C402C9
:104C6000A04226D1F4B94FF43171D6480068FFF75D
:104C7000DBFFFF280FD14FF43171D048FFF7B7FFAA
:104C80000446CE48C0F8C4424FF4B2720146CC4844
:104C9000FEF73BFD1CE04FF4B272C849C848FEF76E
:104CA00023FD15E04FF4B272C449C548FEF71CFD60
:104CB0000EE04FF43171C148FFF799FF0446BF4839
:104CC000C0F8C4424FF4B2720146BD48FEF71DFD64
:104CD00010BD70B504460C222146B8482430FEF7BA
:104CE000EFFA4FF43171B548FFF781FF0546B3483D
:104CF000C0F8C4524FF4B2720146B148FEF705FD48
:104D000070BD10B504460C22AC4924312046FEF794
:104D1000D7FA10BD70B50446CC222146A7483030E2
:104D2000FEF7CEFA4FF43171A448FFF760FF054655
:104D3000A248C0F8C4524FF4B2720146A048FEF730
:104D4000E4FC70BD10B50446CC229C4930312046AD
:104D5000FEF7B6FA10BD70B50446242221469748E6
:104D6000FEF7AEFA4FF431719448FFF740FF054665
:104D70009248C0F8C4524FF4B27201469048FEF710
:104D8000C4FC70BD10B5044624228C492046FEF7B1
:104D900097FA10BD70B5044680222146864820301F
:104DA000FEF78EFA4FF431718448FFF720FF054675
:104DB0008248C0F8C4524FF4B27201468048FEF7F0
:104DC000A4FC70BD10B5044680227B4920312046EA
:104DD000FEF776FA10BD70B505460C462246294608
:104DE0007548A330FEF76CFA744880F8A1414FF47F
:104DF0003171FFF7FCFE06467048C0F8C4624FF4FC
:104E0000B27201466E48FEF780FC70BD70B5054673
:104E10000C46224629466848C330FEF751FA6748D7
:104E200080F8A2414FF43171FFF7E1FE0646634876
:104E3000C0F8C4624FF4B27201466148FEF765FCE7
:104E400070BD10B504465D4890F8A12100F2A31191
:104E50002046FEF735FA10BD10B50446574890F8C5
:104E6000A22100F2C3112046FEF72AFA10BD5348D2
:104E700090F8A201704770B50446504880F8A041F0
:104E80004FF43171FFF7B3FE05464C48C0F8C452E9
:104E90004FF4B27201464A48FEF737FC70BD4748EE
:104EA00090F8A001704710B50024474847490860B2
:104EB000C42146480068FFF79AFE0446434800684C
:104EC000D0F8C400A04221D1D4B94048006800887D
:104ED0004AF2A00188420DD0C4213D48FFF787FE69
:104EE00004463B48C0F8C440642201463648FEF7F9
:104EF0000CFC18E0642236493348FEF7F5FB12E05B
:104F0000642233493048FEF7EFFB0CE0C4213048FF
:104F1000FFF76DFE04462E48C0F8C44064220146E7
:104F20002948FEF7F2FB10BD10B50446542228496B
:104F3000091D2046FEF7C4F910BD70B50446542281
:104F400021462348001DFEF7BBF9C4212048FFF786
:104F50004EFE05461E48C0F8C450642201461A4859
:104F6000FEF7D3FB70BD10B5044620221849583116
:104F70002046FEF7A5F910BD70B504462022214653
:104F800013485830FEF79CF9C4211148FFF72FFE53
:104F900005460F48C0F8C450642201460A48FEF78F
:104FA000B4FB70BD10B504462A2209497831204669
:104FB000FEF786F910BD0000D0020020D0010020CD
:104FC00000D80308CC01002000EC0308980400205E
:104FD0009C04002070B504462A2221465148FEF761
:104FE0006FF9C4214F487838FFF701FE05464D4858
:104FF0007838C0F8C450642201464B48FEF785FB60
:1050000070BD10B50446202246492A312046FEF7DD
:1050100057F910BD70B504462022214641482A3078
:10502000FEF74EF9C4213F487838FFF7E0FD05460A
:105030003C487838C0F8C450642201463A48FEF72C
:1050400064FB70BD08B50020009001226946374816
:10505000FEF74AFBBDF8000008BD08B5002000902F
:10506000012269463148801CFEF73EFBBDF8000076
:1050700008BD08B500200090012269462B48001D9C
:10508000FEF732FBBDF8000008BD08B50020009017
:10509000012269462548801DFEF726FBBDF8000069
:1050A00008BD70B504460D46B4F5616F09DAC4EB6E
:1050B000C4011E4A083202EB81000E222946FEF787
:1050C00013FB70BD70B504460D46B4F5616F09DA87
:1050D000C4EBC401154A083202EB81000E222946B6
:1050E000FEF713FB70BD01B5012269460F48FEF7BC
:1050F0000CFB08BD01B5012269460C48801CFEF777
:1051000004FB08BD01B5012269460848001DFEF7F1
:10511000FCFA08BD01B5012269460448801DFEF76E
:10512000F4FA08BD1405002000EC0308004802084A
:1051300070B588B00546FFF790FF064600240AE0E8
:10514000A0B201A9FFF7ADFF0398A84202D1012048
:1051500008B070BD641CB442F2D30020F8E770B50B
:1051600088B00546FFF779FF064600240AE0A0B2A2
:1051700001A9FFF796FF0398A84202D1069808B04C
:1051800070BD641CB442F2D30220F8E7F0B587B0DA
:1051900005460E46FFF761FF074600240DE0A0B26A
:1051A0006946FFF77EFF0298A84205D10596A0B296
:1051B0006946FFF787FF02E0641CBC42EFD300BFE3
:1051C00007B0F0BDF0B587B007461C2239466846E7
:1051D000FEF776F8FFF741FF0546FFF74AFF064660
:1051E000FFF753FF0446069469462046FFF76AFF1F
:1051F000B5F5616F0ADA681C85B240F60F6084422B
:1052000002DA601C84B211E000240FE040F60F6067
:10521000844202DA601C84B200E0002440F60F6091
:10522000864202DA701C86B200E000262846FFF7AC
:1052300061FF3046FFF766FF2046FFF76BFF07B0C0
:10524000F0BD2DE9F04F9BB004460D4617464FF0D8
:10525000000BD9462088BA49A0FB0110A078B94AB2
:1052600050430918E078B84A00FB02F00918207989
:1052700042F2107200FB02F0091860794FF06402EC
:1052800000FB02F00918A07908181A902888AC4988
:10529000A0FB0110A878AB4A00FB02F00918E878DF
:1052A000A94A00FB02F00918287942F2107200FBAB
:1052B00002F0091868794FF0640200FB02F0091847
:1052C000A87908181990FFF7C8FE8246C84654E02E
:1052D0001FFA88F012A9FFF7E4FEBDF848009849CC
:1052E000A0FB01109DF84A00964A504309189DF80A
:1052F0004B00954A00FB02F009189DF84C0042F261
:10530000107200FB02F009189DF84D004FF0640286
:1053100000FB02F009189DF84E000E181A988642FC
:1053200029D31998864226D8BBF5787F00DB26E082
:1053300009F10109DDE91423DDE91610CDE90423A3
:10534000CDE906109DF84E009DF84D109DF84C20BB
:105350009DF84B30CDE90032CDE902109DF84A307E
:10536000BDF8482079A109A813F044FC1FB109A990
:10537000384613F074FE08F10108D045A8D300BFE9
:1053800048461BB0BDE8F08F2DE9F04399B00446C4
:105390000D464FF000090027FFF75FFE804600260C
:1053A00039E0B0B212A9FFF77CFEBDF848002188B1
:1053B00088422FD19DF84A00A17888422AD19DF8D1
:1053C0004B00E178884225D1B9F5BF5F00DB24E0CE
:1053D0007F1CDDE91423DDE91610CDE90423CDE9B6
:1053E00006109DF84E009DF84D109DF84C209DF83C
:1053F0004B30CDE90032CDE902109DF84A30BDF8BE
:1054000048205AA109A813F0F5FB1DB109A92846A7
:1054100013F025FE761C4645C3D300BF384619B0AD
:10542000BDE8F08310B50024FFF70CFE0446012C04
:105430000CD00020FFF75EFE0020FFF763FE002087
:10544000FFF768FE0120FFF74EFE01E000BF00BF3E
:1054500010BD88B0002413E0039401200690482C6E
:1054600001D100BF00BF01A8FFF7ACFE2046FFF747
:1054700076FE06900698012801D000BFFEE7641C66
:10548000B4F57A6FE8D300BFFEE770B596B000249C
:1054900000250026032001F023FC10B101203D4926
:1054A00008703C480078002847D03A48407810B14E
:1054B000012841D115E03848FFF7C3FC364937A031
:1054C00013F08CFB0EA8FFF74EFD0EA937A013F0CA
:1054D00085FB12A939A013F081FB01202D494870EA
:1054E0002AE0FFF7BAFD054600241EE0A0B207A996
:1054F000FFF7D7FDDDE90923DDE90B10CDE9032333
:10550000CDE905109DF822109DF821009DF820207E
:10551000CDE9002002919DF81F309DF81E20BDF8B6
:105520001C102BA013F05AFB641CAC42DED30020ED
:1055300018494870087000BF00BF16B070BD000069
:1055400000E40B5400E1F50540420F0025346425CA
:1055500032642532642532642532642532642F2575
:10556000642F25642F25642F25642300253034649F
:10557000253032642530326425303264253032647F
:10558000253032642F25642F25642F25642F256450
:105590002300000064050020BA7500200D0A0D0AE2
:1055A000C9E8B1B849443A25730D0A00574946493C
:1055B000C3FBB3C63A25730D0A000000574946499C
:1055C000C3DCC2EBA3BA25730D0A0D0A000000006C
:1055D000253034642530326425303264253032641D
:1055E00025303264253032642F25642F25642F2521
:1055F000642F25640D0A000070B504460E4615465A
:1056000024B92946304600F03DF970BD04EB840012
:1056100000EBC4008F4901EBC000807808B1002086
:10562000F3E7012004EB840101EBC401894A02EB9A
:10563000C101087104EB840000EBC400114601EBCA
:10564000C000867104EB840000EBC40001EBC000D5
:105650004571FF20D9E770B504460D46164624B9BA
:105660003146284600F01EF970BD002004EB84018D
:1056700001EBC401774A02EBC101087100BFF3E7F7
:1056800070B504460D461CB9284600F010F970BDEF
:1056900004EB840000EBC4006E4901EBC00008304D
:1056A00050F82500F3E770B504460E4615466CB970
:1056B00029462046FFF7E4FF04EB840101EBC40117
:1056C000644A02EBC101083141F8250004EB840073
:1056D00000EBC4005F4901EBC000083050F8251012
:1056E0000120B040014009B1012070BD0020FCE75D
:1056F000024602EB820000EBC200564B03EBC000F7
:10570000283050F831007047024602EB820000EB6F
:10571000C200504B03EBC0004078704770B50446A0
:105720000E4615466CB929462046FFF7E1FF04EB0B
:10573000840101EBC401474A02EBC101283141F861
:10574000350004EB840000EBC400424901EBC000CB
:10575000283050F835100120B040014009B1012037
:1057600070BD0020FCE770B504460D461CB9284604
:1057700000F04CF970BD04EB840000EBC400354927
:1057800001EBC000283000EBC5004068F2E770B5BF
:1057900004460E46154674B929462046FFF7E3FF36
:1057A00004EB840101EBC4012A4A02EBC101283158
:1057B00001EBC501486004EB840000EBC4002549FF
:1057C00001EBC000283000EBC50040680121B1406A
:1057D000084008B1012070BD0020FCE710B5044668
:1057E00014B900F034F910BD04EB840000EBC400E0
:1057F000184901EBC0004078F5E710B5044614B92C
:1058000000F029F910BD04EB840000EBC40011493D
:1058100011F83000F6E710B5044614B900F01FF98E
:1058200010BD04EB840000EBC4000A4901EBC0008A
:10583000C078F5E710B5044614B900F0DBF810BDE8
:1058400004EB840000EBC400024901EBC000807847
:10585000F5E70000FC75002010B500240CE00021E5
:1058600004EB440000EB0412FE4840F822106038BC
:1058700040F82410601CC4B2082CF0DB00F06CFE71
:1058800010BD70470246F7487838807C08B1002088
:1058900070470120F34B783B1875184682754175A7
:1058A000FF20F5E70022EF4B783B1A757047014661
:1058B000EC48603850F8210070470246E9486038EB
:1058C00050F8210001239340184008B1012070478F
:1058D0000020FCE70146E348403850F831007047AB
:1058E0000146E0487838407C704710B50246DD48F4
:1058F000403850F831000124944000EA04030BB111
:10590000012010BD0020FCE730B5024601EB41004C
:1059100000EB0114D34800EB84004068012494405C
:1059200000EA040393B101EB410000EB0114CD4800
:1059300000EB84004068984301EB410404EB01153F
:10594000C84C04EB85046060012030BD0020FCE7FA
:1059500030B5024601EB410000EB0114C14800EBF9
:10596000840080680124944000EA040393B101EBB1
:10597000410000EB0114BB4800EB840080689843B1
:1059800001EB410404EB0115B64C04EB8504A06067
:10599000012030BD0020FCE710B5024601EB4100BC
:1059A00000EB0114AF4850F824000124944000EAB1
:1059B00004030BB1012010BD0020FCE7024601EBFF
:1059C000410000EB0113A74800EB83000C3030F8D6
:1059D00012007047A3487838C0687047024601EB50
:1059E000410000EB01139F4800EB83002C3030F89E
:1059F000120070479B487838807C70479948783807
:105A0000017D09B1012070470020FCE7014695485F
:105A1000403800EBC1004068704710B5024691481D
:105A2000403800EBC10040680124944000EA0403C0
:105A30000BB1012010BD0020FCE702460B4689484F
:105A40007838417C09B1012070470020FCE7854887
:105A50007838407C704783487838007C70478148AC
:105A60007838C07C704710B57E487838007D38B1F2
:105A700000207D4908707D4908707D49087010BD7F
:105A800079480078052808DA77480078401C76497C
:105A900008707648007800F00EFB734800780528FF
:105AA0007ED173480178022000F0C6FE88B16D48AF
:105AB00060386F49097850F821006C490A78012153
:105AC0009140084367496039694A127841F82200D9
:105AD00010E0644860386649097850F8210063494D
